:020000040800F2
:10000000F8FF0420C5010008D5010008D50100084B
:10001000D5010008D5010008D50100080000000046
:10002000000000000000000000000000D5010008F2
:10003000D501000800000000D5010008214B000890
:10004000D5010008D5010008D5010008D501000838
:10005000D5010008D5010008D5010008D501000828
:10006000D5010008D5010008D5010008D501000818
:10007000D5010008D5010008D5010008D501000808
:10008000D5010008D5010008D5010008D5010008F8
:10009000D5010008D5010008D5010008D5010008E8
:1000A000D5010008D5010008D5010008D5010008D8
:1000B000D5010008D5010008D5010008D5010008C8
:1000C000D5010008D5010008D5010008D5010008B8
:1000D000D5010008D5010008D5010008D5010008A8
:1000E000D5010008D5010008D5010008D501000898
:1000F000D5010008D5010008D5010008D501000888
:10010000D5010008D5010008D5010008D501000877
:10011000D5010008D5010008D5010008D501000867
:10012000D5010008D5010008D5010008D501000857
:10013000D5010008D5010008D5010008D501000847
:10014000D5010008D5010008D5010008D501000837
:10015000D5010008D5010008D5010008D501000827
:10016000D5010008D5010008D5010008D501000817
:10017000D5010008D5010008D5010008D501000807
:10018000D5010008D5010008D5010008D5010008F7
:10019000D5010008D5010008D5010008D5010008E7
:1001A000D5010008D5010008D5010008D5010008D7
:1001B000D5010008D5010008D5010008D5010008C7
:1001C000D5010008DFF808D000F006F800F0DEB92D
:1001D000F8FF0420FEE70000F0B4BFF34F8FBFF339
:1001E0006F8F5B480022C0F85022BFF34F8FBFF3E0
:1001F0006F8F436943F400334361BFF34F8FBFF305
:100200006F8FC0F88420BFF34F8FD0F8805043F633
:10021000E07CC5F3C906C5F34E35B7076D0105EAA5
:100220000C043946324644EA0103013A01F14041E7
:10023000C0F86032531CF6D1203D15F1200FEED1ED
:10024000BFF34F8F436943F480334361BFF34F8F54
:10025000BFF36F8FD0F888103E4B41F470011A46FF
:10026000C0F88810416921F008014161196841F026
:100270000101196013689907FCD500233549936083
:10028000136823F0A0631360136843F48033136092
:100290000B689A03FCD5304B1B68DBB2112B50D096
:1002A0002E4B40F205321A602A4B2D491A465960EE
:1002B000196841F08071196013689B01FCD594683E
:1002C00049F2024327482349204090609068034345
:1002D00093608B6803F00C03082BFAD100234FF4D2
:1002E00080104FF080544FF48042086310204B631D
:1002F0008B630C644A640B681B4A23F001030B6098
:100300000B6B43F00F030B630B6B03430B630B6B24
:1003100043F020030B630B6B43F040030B630B6B49
:1003200043F080030B630B6B43F480730B630B6B25
:1003300043F400730B630B6B43F48063F0BC0B63FB
:100340001047064A136843F005031360ACE700BF8B
:1003500000ED00E000380240002004E0003C0240D4
:10036000196C40090F03FFFF49060008012915D841
:100370000C4B01EB4101012003EB81011070D1E92D
:1003800001301844834203D30AE00433984207D96A
:1003900019680131F9D000201070704709207047AA
:1003A000002070472C520308012901D90920704709
:1003B00001EB4101114B53F82130072B1BD8104A98
:1003C0001169002930B411DB0D49DB0040F2022530
:1003D0000C4C0A461D431C430D610C61D368DB03C2
:1003E000FCD44FF00043136130BC7047064C074902
:1003F00054605160E8E70320704700BF2C520308A7
:10040000003C02400202010023016745AB89EFCDA9
:100410008BB10A480844B0F5002F0AD20A44914231
:1004200005D2086804318A4243F8040BF9D8002049
:100430007047092070470220704700BF0000F8F79E
:10044000002B34D01B480844B0F5002F25D21A48A1
:1004500030B40469002C22DB0A44174C40F201201E
:100460009142206112D2043B53F8040F0D6885427B
:1004700009D00860BFF34F8FE068C003FCD40D685B
:100480001868854210D104318A42EDD80A4B4FF0EA
:10049000004200201A6130BC704709207047074DA8
:1004A000074C45604460D7E7082030BC7047022005
:1004B000704700BF0000F8F7003C02402301674589
:1004C000AB89EFCD704700BF70B5244B0446244D77
:1004D00018600669A84701462046B047A66AA847A3
:1004E0004FF08041426820461E4DB0472669A8471C
:1004F00001462046B047A66AA8471B4942682046E5
:100500001A4DB0472669A84701462046B047A66A5B
:10051000A847174942682046B047164B25699847B7
:1005200001462046A847144B2569984701462046B6
:10053000A847124B2569984701462046A847104B0B
:100540002569984701462046A84720460D4B984705
:1005500020460D4BBDE87040184700BFC005002085
:100560003D0A00080129000804000040B1180008F5
:1005700003000040053A000805420008755C0008C9
:100580009D83000819460008C5040008F0B587B02F
:100590001C4B98471C4B03A902A898471B4B0024EF
:1005A0001B4DDDE9020198471A4A05A904A81A4B18
:1005B00014609847194BDDE9040198470022184957
:1005C00009231848A847184B9847184B05469847E1
:1005D000174B064698470746164B98473146034641
:1005E0003A462846144DA847012206A8134B00F8A6
:1005F000112D98479DF80710114B12489847204637
:1006000007B0F0BD314600081D460008B59A000845
:1006100059860008C005002099460008DD9A0008A8
:100620008C500308A05003084D0B0008712A0008E5
:10063000492C0008914A000801990008B1460008B9
:100640001DA30008C90400082DE9F04F002387B05E
:10065000644A0393049305938DF80B30136B019058
:1006600043F0FC03DFF898911363059B59F823309E
:10067000002B58D04FF0010B4FF00F0A0DE01A6A13
:10068000009922EA070739431962059B0133059354
:10069000059B59F82330002B45D0059B4FF00C0CDF
:1006A000059A514959F823308E5C03221D6831B2F6
:1006B000A6F10800072E4FEA41044FEA810102FA31
:1006C00004FE4FF002020AFA01F70CFA01F102FAF5
:1006D00004F800FA02F06FEA0E020BFA04F400913B
:1006E0000AFA00F105EA02050CFA00F045EA0805ED
:1006F0000BFA06F81D605D6825EA08055D609D68D7
:1007000005EA020545EA0E059D60DD6802EA05027C
:1007100042EA0402DA60B2D95A6A22EA010C4CEACF
:1007200000005862B1E72F4A936B43F001039363D3
:10073000019B102B05D0202B03D000238DF80B300C
:1007400003E09DF804308DF80B309DF80B1041F656
:100750004412264B0A43264819461A6098608B6952
:1007600013F02003FBD13120224A08610593059B39
:10077000934205D8059B01330593059B9342F9D914
:100780001A498B699D06FCD43223184A0B61936980
:100790009C06FCD440F21313144913618B6998062C
:1007A000FCD4154B114A0B6193699906FCD453692B
:1007B0000E4943F4506353618B699B06FCD44FF0A0
:1007C00040430E490393039B8B4208D81F20039A92
:1007D000039B108002330393039B8B42F7D907B02E
:1007E000BDE8F08F00380240B0500308400100A07F
:1007F000727422023F420F0034400400FF0F00C019
:10080000D850030800280CBF02200020704700BF0A
:100810001E4B585C10B4002831D003F1120401E0E3
:10082000A34228D013F8011F8142F9D1A0F110048E
:10083000174B012CD96C586317D9154B986819467A
:1008400040F0804098600B689B07FCD5012C06D9CE
:100850000F4B00205DF8044BDB6C136070470D49B3
:100860004B6823F400034B60F2E70A494B6843F4FA
:1008700000034B60E1E703205DF8044B7047044B35
:100880006FF00F04D96C5863D7E700BFD851030845
:100890000022014000230140132070470C207047C4
:1008A0000020704740F6FF70704700BF002070477F
:1008B000002914BF04200020704700BFB1FA81F066
:1008C00040097047F0B5414F83B07C5C122C49D889
:1008D0000F2C0E4632D9002C64D03D4D3B4B01E02D
:1008E0009D4242D013F8012FA242F9D139494B6CF5
:1008F00013F480633CD1486C0125374A0F2C40F437
:100900008060DFF8ECC0486434483549CCF80430E6
:10091000D36253609560D06011612BD8BC5D122CFE
:1009200032D94FF0FF30002403232E4D019422468C
:1009300000941946A847204603B0F0BD4CB13B4691
:1009400007F1120501E0AB4217D013F8012FA242C4
:10095000F9D1254A254B105D98470028BBD10C20C2
:1009600003B0F0BD062003B0F0BD032003B0F0BD1E
:100970000F2C09D9002003B0F0BD4FF0FF301B4B06
:1009800098470028AAD1EAE74CB1104B03F11201B5
:1009900001E09942C5D013F8012FA242F9D1124BC0
:1009A000185DC0E70B4B5A6C5205F8D4596C012006
:1009B000094A41F480610E4D59640849084B6C6046
:1009C000D46254609060D1601361A7E7D8510308E6
:1009D000EA510308003802400022014092244902F3
:1009E0009224491225260008C4510308492500080D
:1009F0000023014008B50B4B595C0F290DD841B1BC
:100A000003F1120001E0834209D013F8012F8A425A
:100A1000F9D1054B585C054B9847002008BD4FF0B5
:100A2000FF30F8E7D8510308C451030879250008BE
:100A300000280CBF02200020704700BF264900227A
:100A400026484FF0804C264B2DE9F041C860012725
:100A50002448254D086125486E1C4A6000224861E3
:100A600006F1120422488B60002388612148DFF8D8
:100A7000B080C861204808622048486220488862E7
:100A80002048C8622048086320484863204808601E
:100A9000C1612049876101601F4F2049C0F808C02B
:100AA0004160C0E9042315F8011F0F290BD839B1A3
:100AB000334601E0A3420BD013F8012F8A42F9D14B
:100AC00018F80100B847A542EDD11148BDE8F08102
:100AD0004FF0FF30F6E700BFC4050020310A0008E0
:100AE00005080008C5080008D7510308F5090008E3
:100AF00011080008B1080008AD080008BD0800088A
:100B0000A1080008A50800089D0800089908000829
:100B10000006002074510308792500088C51030851
:100B2000C4510308012300200B7070470020704758
:100B300030B404480224044D0860002015601C6095
:100B400030BC7047640600206C060020174B002064
:100B5000174A1849F0B4DA604FF00054164D0026D9
:100B6000164A00275860012099604FF48021C3E99C
:100B70000452134D134AC3E90652134A134D1A6027
:100B80001D62D361124B94601360124B906110464A
:100B90005360114C114D124BC2E90467114AC3E96D
:100BA0000011C4E90052F0BC704700BF40060020AD
:100BB0002D0B0008250B0008110400084104000853
:100BC000A90300086D03000820060020310B00086F
:100BD00074510308EC510308640600200000080863
:100BE0006C06002000000C0803490020034B4FF066
:100BF000404208701A6070476C07002028020020ED
:100C0000014B0020187070476807002004207047CF
:100C1000F0B41B4C00251B4824680D601460049937
:100C200002681A60002927D0174A4FF47A73174ECA
:100C30001268174D03FB02F337682D78154C1648E0
:100C4000164A174E4B60174B366824780078127896
:100C50000D701D68144B4C701C78144B887018680C
:100C6000134B0A721A68134BCF601B680C764B62E9
:100C7000C1E90465C1E907020820F0BC704700BF64
:100C80002402002000020020140200200C02002098
:100C900010020020110200206A07002069070020CE
:100CA00008020020040200206B0700202002002020
:100CB0001C0200201802002030B400200125034C43
:100CC00008601D60146030BC704700BF64070020DE
:100CD000F0B4049C002932D11C4D1D482A600360E9
:100CE000002C2FD0636808461A4A1B4DA2FB032331
:100CF000217867789B09A678184A2B60184B1170E9
:100D00001F70217AE768174D174A184B2E701F6025
:100D100026691170164D6169164A174B94F818C070
:100D20002E60E769154E116083F800C01449154B19
:100D30003760D4E908520D601A60F0BC7047042097
:100D4000F0BC70472046F0BC704700BF2402002072
:100D500000020020D34D6210140200201002002077
:100D6000110200206A070020690700200C02002001
:100D700008020020040200206B070020200200204F
:100D80001C02002018020020B24800782DE9F0472C
:100D9000099F002846D0B048B04D0678B04CB14805
:100DA0002D6800682468032E3CD8DFE806F07580C3
:100DB000B73E04FB00F25200002A1446B8BFD41D0F
:100DC000534202F007024FEAE40403F0070358BF5E
:100DD0005A42002C0ADDE400A5F108033E19F7E8A9
:100DE0000201BE42E3E90201F9D12544002A19DDDE
:100DF0003B78012A2B7015D07B78022A6B7011D0BA
:100E0000BB78032AAB700DD0FB78042AEB7009D0B5
:100E10003B79052A2B7105D07B79062A6B7101D0AD
:100E2000BB79AB710020BDE8F087A4EB010901EBB1
:100E3000030C089904FB02FAA0EB0108A9EB0301DB
:100E400001FB002089454FEA4000EBDD089B4FEA9B
:100E50004808D618B242E5DA0AF1FF3E08EB43082B
:100E600002380EEB0C030CF1FF3C05EB000EA3EB7C
:100E70000909D4448944614670461346013337F862
:100E800011502144B34220F8025FF7D10CF1FF3C2E
:100E9000C644CC45EFD1C5E751EA020679D1834279
:100EA00002D1089EA64284D04FF0000E72E0089E48
:100EB000A0EB020C0B449619089A9942ACEB020E77
:100EC000A0EB020806F1FF3600FB01E004FB06F68A
:100ED0004FEA4000A6DAF4454FEA4802A2DD314469
:100EE00002381E44C4EBC474ACEB0E0307EB4101A3
:100EF00007EB460605EB0008640002EB430740469B
:100F00000A4673460133158822449C4520F8025F47
:100F1000F8D10231B844B142F1D183E7089EA41A56
:100F2000A0EB030E3244461A02F1FF39089AA6EBF1
:100F30000308A4EB020C00FB091164450CFB0080C4
:100F4000194405EB40007FF76DAF46454FEA4E036D
:100F50007FF768AFA8EB060203EB4603A6EB080693
:100F600007EB4105A2EB0E0EA3EB480877004FEA12
:100F70004E0EC61903462A4632F8021D23F8021BFC
:100F8000B342F9D10CF1010C754440446445F0D1F1
:100F900048E79646089C02EB040CE645BFF642AFD4
:100FA0005B000EFB00F24000002B994603F007089F
:100FB000B8BF03F107095C424FEAE90904F00703EF
:100FC00001EB8906114458BFC3F100084FEAC90A72
:100FD0001644C9EB497205EB410107EB4606D70001
:100FE000B9F1000F0A4606EB070309DDA1F108027B
:100FF000F3E80245B342E2E90245F9D10AEB010206
:10100000B8F1000F1FDD1C78B8F1010F14701AD071
:101010005C78B8F1020F547015D09C78B8F1030FCA
:10102000947010D0DC78B8F1040FD4700BD01C7918
:10103000B8F1050F147106D05C79B8F1070F54713F
:1010400001D19B7993710EF1010E06440144E645EE
:10105000C6D1E7E6680700206C07002028020020C0
:1010600000020020240200202DE9F04F9F4D85B0A2
:101070009F4C4FF400322968002300209D4F21F03F
:1010800080519D4EDFF898B229602968A0479B499E
:101090004FF4803200230020C5F88810D5F88C105A
:1010A00021F4403141F48031C5F88C10296841F0B9
:1010B000805129602968A047696C0024904B41F059
:1010C00080619048904A6964696C904D01F080613C
:1010D00000682D68039100F1FF3A996928448C4D0E
:1010E00021F0704C3968376800F1FF384E1E2D68CA
:1010F0003944884FDFF82CE228443F6801F1FF397A
:10110000DBF800B0136000955944DEF800E0C3F846
:1011100018C007F1FF3C9D690EF1FF3E7E4F9D61B7
:101120000CEB0005D3F808C08E44013801390CEAF5
:10113000070CC2F814A09661948682F83640C2F873
:101140001C800195D562C2E90890C2E90144C2E958
:101150000344C2F830E09162C3F808C0D3F808C075
:10116000009D46EA0C06C2F844B0D5634FF0020C6D
:1011700046EA0A46946314644FF0FF0A14659E60C1
:10118000DE68C2F84CA03E40C2F848C0009DDE6058
:10119000DE6849EA0609614E49EA0848DFF88891A5
:1011A000C3F80C80D3F810C0DFF880810CEA070C7C
:1011B000C3F810C0D3F810C041EA0C0141EA004066
:1011C0004FF040411861586938406F00586103374B
:1011D000586947EA454700954EEA000E019D0520F3
:1011E0004EEA054E0125C3F814E0D3F82CC00CF0EC
:1011F0007F4CC3F82CC0D3F82CC0C3F82CC0D3F854
:1012000034C04CF0040CC3F834C0D3F834C04CF0F4
:10121000020CC3F834C0D3F818C04CF0010CC3F86A
:1012200018C05D624FF480655565D3F80CC0D6F8E0
:1012300004E0009DCCF30B4C0EF4704EC2F864B089
:1012400015666544A2F86840C6F804E0D3F80CC0FF
:1012500082F86A40CCF30B4CDFF8D4E0C2E9160107
:10126000012084444CEA05457560DD68B268C5F329
:101270000A0502F470425D44B260DA68C2F30A0201
:10128000024442EA0542B260326922F0070232614A
:1012900002223261B269B461B461726922F0FF0264
:1012A0007261C6F814A0F26902EA090940F2054227
:1012B000C6F81C90F261B26AB462B162F26A02F0DE
:1012C000E022F262F762326B02EA0808C6F8308068
:1012D000C6F830B032680243326058624FF0010302
:1012E0008EF8003005B0BDE8F08F00BF0038024036
:1012F0003148000820020020180200200030035F5F
:10130000006801400C020020C406002004020020F6
:10131000240200200802002000F800F08468014048
:10132000000200201C020020F8F8FFFF00F8FFFF79
:1013300068070020BC4B1B7813B30C282DE9F04F35
:1013400095B07FD00D2800F08581B84A0A2813682F
:10135000019316D1013300211846B54B1F28029383
:10136000196000F2E881B34C1060B34B04442022B2
:10137000034404F8202BA342FBD115B0BDE8F08F45
:1013800070474FEAC308AD4AA94B00EB800B1468C5
:1013900008F1020719680022029308F10103129173
:1013A00001EB410105934FEA440904FB08F34900AE
:1013B000DFF89CA21E19CB180697A51911938E1958
:1013C000139063194D1910960F9508F103050795B1
:1013D00008F104050395E518CB180E9308F10603F0
:1013E000089308F10703049305EB09034D1904EB77
:1013F000030ECB180D9508F105050C9301EB0E07B4
:101400008F4B09951E68AEEB09038E4D40F6FF79B0
:101410000B440B97D5F800C00AEB0B0593468A46A0
:101420000A9315F8013B0AEB020013F0010E33D1C9
:10143000844234D9E04580F019811199114426F88D
:1014400011E013E17D4B7F4A1B68146804FB03F431
:1014500063000BD0A40000214FF040407A4D22469B
:10146000A847224600214FF04040A8477748002374
:101470006E4D4FF031316E4A00F120042B60136045
:1014800000F50A62034643F8201C20339342FAD148
:1014900004308442F4D170E7844200F2E18099077D
:1014A00040F1E680844200F23B815F0740F1EC802E
:1014B000844200F22D81190740F1F280844200F24B
:1014C0001F81DF0603F020010DD484420BD9039F56
:1014D000674504D20D9F07EB020E26F81EB00029C7
:1014E00040F0FC8002E0002940F0F680844240F2A7
:1014F000898009998C4503D90A99511826F811B0A9
:10150000590640F1F480844240F2818008998C456C
:1015100003D90C99114426F81190DB0979D104996B
:10152000614503D20B99114426F811300132052A86
:101530007FF477AF414B5146414C1A680531414B1E
:10154000914213981B6824683ED2984504D202FB4E
:101550000818002524F81850059DAB4204D905FB56
:101560000215002624F81560069DAB4204D905FB40
:101570000215002624F81560079DAB4204D905FB2F
:101580000215002624F81560039D9D4204D202FB3B
:101590000515002624F81560099DAB4204D905FB0A
:1015A0000215002624F81560089DAB4204D905FBFE
:1015B0000215002624F81560049D9D4204D202FB0A
:1015C0000511002524F8115012991A4C4D1C019E4A
:1015D00004EB4111442D885540F2AA803046002189
:1015E000029D013029601F2800F2D18004F50C63B0
:1015F0000E49044420220344086004F8202B9C4236
:10160000FBD1BAE65F063FF57EAF84426FD8DB09B7
:101610008CD084428AD9049B634587D20B9B1344A8
:1016200026F8139082E700BF6807002034100020DE
:10163000301000207007002010100020240200202D
:1016400028020020000200208345030890070020A4
:10165000805203085F4B00221A6015B0BDE8F08F7E
:10166000E04503D21199114426F81190990757D4F7
:1016700084427FF61AAF05998C4503D9109911441D
:1016800026F811B05F0743D484427FF614AF069961
:101690008C4503D90F99114426F811B019072FD49E
:1016A00084427FF60EAF07998C4503D90E991144F9
:1016B00026F811B0DF0603F020017FF506AF039F87
:1016C000674506D20D9F07EB020E26F81E9029B93A
:1016D0000CE700293FF40DAF844293D909998C455A
:1016E0007FF60EAF0A99511826F8119008E708996D
:1016F0008C457FF612AF0C99114426F811B00CE717
:1017000007998C45D6D90E99114426F81190D1E746
:1017100006998C45C2D90F99114426F81190BDE75E
:1017200005998C45AED91099114426F81190A9E776
:10173000029B1D6021E6284B1F20284A1B68126867
:10174000274C02FB03F22060530004D092004FF0BC
:101750004040244B9847244E0023214A741E1360B6
:10176000A046029A04F1200913600025705D08F874
:1017700005002035FFF7DEFDB5F50A6FF6D101361D
:1017800008F101084E45F0D1154B1868EDE503FB53
:1017900002F213481F230360530004D092004FF05D
:1017A0004040104B9847104D00230D4A6E1E1360A9
:1017B00006F12007029A13600024285D305520347A
:1017C000FFF7B8FDB4F50A6FF7D101350136BD4218
:1017D000F2D1D2E5301000202402002000020020C7
:1017E0003410002083450308710700205AB170B5FA
:1017F0008D184C1E054E013D14F8010FB047AC4248
:10180000FAD1002070BD0020704700BF35130008DA
:10181000F0B51B4C83B000261A4D04F1E007227985
:10182000083454F8080C03230221CDE90062002299
:10183000A847A742F3D1144B1978A9B90A460191D8
:101840000091032302218C20104EA847002403237B
:101850000121A320224601940094A8470121A3203E
:10186000B047012003B0F0BD01960323009600228B
:1018700001218C20A847054E01218C20B047E5E7C7
:10188000085503082526000810020020F526000848
:1018900008B5054B984720B1044B984708B1002084
:1018A00008BD082008BD00BF111800086910000815
:1018B000134B00201349144A70B4C3E901011349C2
:1018C0000024DA600025124A0126596211499A6201
:1018D0009961114A11495A611961114A1149DA6134
:1018E0001962114A11491A601046D3611160104BF8
:1018F00010499661C2E90445C2E9011370BC704702
:1019000098060020E90B0008010C00089118000857
:101910000D0C0008D10C0008110C0008B90C0008CF
:10192000890D0008ED17000878060020745103089F
:101930000300004044520308014B53F82100704754
:1019400024130020B02070470023064A10B552F837
:1019500021201846044CA047044C0A220023A0472B
:1019600010BD00BFE4150020BD460008414103083A
:101970002DE9F0470F2782B090460C1101EA0706C7
:10198000012501A8374AB3008946B5404FEA960AB7
:1019900003F00C039F409C409047B8F1000F48D0E3
:1019A000314A02EB8A0293683B40A34208D02F4B96
:1019B0001B682B4247D1936823EA070323439360B4
:1019C0002B49760100232B4C8F192B4A184601F81E
:1019D000069052F829203C6128498847284C0A2261
:1019E0000023A047274B78600020C7F81480EC4301
:1019F00098471E4AC7E902019068214613462040D5
:101A00009060D0680140D160D1682943D16091686D
:101A1000294391605D6158692840FBD11A680446EA
:101A200015431D6001A8184B9847204602B0BDE839
:101A3000F0870AF102020C4B53F822301F40A742F4
:101A400003D04446EEE70C24ECE708494446084B33
:101A50000A6803EB461622EA05050D60C6F81480F5
:101A6000E0E700BF692B000800380140003C01405E
:101A70003810002038120020E4150020BD46000870
:101A800041410308C1470008752B0008A1F1FF3050
:101A9000B0FA80F04009AF29C8BF40F0010018B982
:101AA000032A98BF012070470020704730B583B0EB
:101AB0000C460B4B01A89847AF2C0EDC631C0CD0D6
:101AC000084B1D5D3DB901221A5501A8064B9847E8
:101AD000284603B030BD0C25F7E70325F5E700BF26
:101AE000692B000874120020752B0008AF2915DC43
:101AF000A1F1FF30B0FA80F0400978B9012330B489
:101B00000D1101F00F01064C9A4203FA01F104EBAA
:101B1000852418BF0904A16130BC704703207047B9
:101B200000000240AF2915DCA1F1FF30B0FA80F0CF
:101B3000400978B9084B10B40C1101F00F0103EB08
:101B400084235DF8044B1B6923FA01F101F00101C4
:101B5000116070470320704700000240AF2938B57C
:101B60001ADCA1F1FF34B4FA84F46409A4B9501E5C
:101B700042F20E7398420CD842F210730D46204682
:101B8000074982FB03238847064B43F8250020467C
:101B900038BD0F24204638BD0324204638BD00BF81
:101BA000F1460008E4150020344B2DE9F04F5C6944
:101BB00099461B6883B00A26314D1C40DFF8DC8053
:101BC000304FC4F3852405E0640806F1010605F1F1
:101BD000200525D0E307F7D56846C04701A8B847D8
:101BE00095F840210123AF2A03FA06F31BDDC9F85B
:101BF0001430D5F854314BB1D5F844210ABBD5F88F
:101C0000582195F84011D5F8500198471E4B01A86E
:101C1000984768461D4B0136984720356408D9D14E
:101C200003B0BDE8F08F1011194902F00F0201EB6B
:101C30008021096921FA02F202F00102C5F8582157
:101C4000D5E705F5A47A134B00209847124B95F879
:101C50004021DAE900BC53F822200023B0EB0B0B43
:101C600061EB0C0C9C4508BF9345CFD3094B00207A
:101C70009847CAE90001D5F85431C0E7003C01405B
:101C800038100020692B0008752B0008552B000820
:101C900000000240C1470008E4150020412B000865
:101CA000334B2DE9F04F5C6999461B6883B00526DC
:101CB000304D1C40DFF8D4802F4FC4F3441405E0AE
:101CC000640806F1010605F1200525D0E307F7D5E4
:101CD0006846C04701A8B84795F8A0200123AF2A5D
:101CE00003FA06F31BDDC9F81430D5F8B4304BB154
:101CF000D5F8A4200ABBD5F8B82095F8A010D5F8DF
:101D0000B00098471D4B01A8984768461C4B013608
:101D1000984720356408D9D103B0BDE8F08F101181
:101D2000184902F00F0201EB8021096921FA02F241
:101D300002F00102C5F8B820D5E70020DFF850A076
:101D4000D047114B95F8A020D5E92ABC53F82220A2
:101D50000023B0EB0B0B61EB0C0C9C4508BF9345CB
:101D6000D0D30020D047D5F8B430C5E92A01C2E766
:101D7000003C014038100020692B0008752B00083A
:101D8000552B000800000240E4150020412B0008FC
:101D9000C14700082DE9F04182B00D462A4E684641
:101DA000B047AF2D47DCA5F1FF34B4FA84F46409E1
:101DB000002C40D105F00F07244A2B1101A85455DF
:101DC0009D02DFF89080B04703227B0055F8086041
:101DD0004FEAE70E01A89A4005EB0803D14306EA53
:101DE000010C03EB8E064FEA870E45F808C0D3F8C6
:101DF0000CC00EF01C054FF00F0E01EA0C0C0EFA91
:101E000005FEC3F80CC04FF0010C9D680CFA07FCEE
:101E100029400F4D11439960326A22EA0E02326264
:101E20005F6827EA0C075F60A8476846A847204616
:101E300002B0BDE8F0810324054D6846A84720465E
:101E400002B0BDE8F08100BF692B000874120020C9
:101E5000752B0008000002402DE9F04882B0214BAC
:101E6000214C68469847214B01A898472378AF2B0F
:101E700013DD1F4A0121656951612DB16268CAB93C
:101E80001946A2692069A84701A81A4B98471A4B1E
:101E90006846984702B0BDE8F0881911174803F06A
:101EA0000F0200EB8121096921FA02F202F001021E
:101EB000A261DEE70020124DA847124B2278D4E938
:101EC000026753F822200023861B61EB07079F421D
:101ED00008BF9642D8D30020A84765692378C4E993
:101EE0000201CDE7412B000838100020692B0008C3
:101EF000003C0140752B0008552B000800000240F3
:101F0000C1470008E41500202DE9F04882B0234BBA
:101F1000234C68469847234B01A8984794F82030F3
:101F2000AF2B13DD204A0221656B51612DB1626A2E
:101F3000CAB91946A26B206BA84701A81B4B98474A
:101F40001B4B6846984702B0BDE8F0881911194844
:101F500003F00F0200EB8121096921FA02F202F07D
:101F60000102A263DEE70020134DA847134B94F84B
:101F70002020D4E90A6753F822200023861B61EB56
:101F800007079F4208BF9642D7D30020A847656B3A
:101F900094F82030C4E90A01CBE700BF412B0008C8
:101FA00038100020692B0008003C0140752B000808
:101FB000552B000800000240C1470008E41500202E
:101FC0002DE9F04882B0264B264C68469847264BB0
:101FD00001A8984794F88030AF2B17DD234A1021D1
:101FE000D4F89450516145B1D4F88420E2B919462F
:101FF000D4F89820D4F89000A84701A81C4B984723
:102000001C4B6846984702B0BDE8F08819111A4881
:1020100003F00F0200EB8121096921FA02F202F0BC
:102020000102C4F89820D9E70020144DA847144BAA
:1020300094F88020D4E9226753F822200023861BDD
:1020400061EB07079F4208BF9642D6D30020A847FE
:10205000D4F8945094F88030C4E92201C7E700BF57
:10206000412B000838100020692B0008003C01407B
:10207000752B0008552B000800000240C1470008DE
:10208000E41500202DE9F04882B0234B234C68462C
:102090009847234B01A8984794F84030AF2B13DDA5
:1020A000204A0421656D51612DB1626CCAB919468F
:1020B000A26D206DA84701A81B4B98471B4B684693
:1020C000984702B0BDE8F0881911194803F00F02D3
:1020D00000EB8121096921FA02F202F00102A265F6
:1020E000DEE70020134DA847134B94F84020D4E9B5
:1020F000126753F822200023861B61EB07079F42DB
:1021000008BF9642D7D30020A847656D94F84030A9
:10211000C4E91201CBE700BF412B000838100020B2
:10212000692B0008003C0140752B0008552B000866
:1021300000000240C1470008E41500202DE9F048E6
:1021400082B0234B234C68469847234B01A89847FD
:1021500094F86030AF2B13DD204A0821656F516180
:102160002DB1626ECAB91946A26F206FA84701A8A7
:102170001B4B98471B4B6846984702B0BDE8F08858
:102180001911194803F00F0200EB8121096921FAA6
:1021900002F202F00102A267DEE70020134DA84719
:1021A000134B94F86020D4E91A6753F822200023D7
:1021B000861B61EB07079F4208BF9642D7D30020DA
:1021C000A847656F94F86030C4E91A01CBE700BFF7
:1021D000412B000838100020692B0008003C01400A
:1021E000752B0008552B000800000240C14700086D
:1021F000E4150020AF2911DC4B1C0FD02DE9F04F66
:10220000154683B00C46052A00F29381DFE812F0F0
:102210004E008C00CC000D015201080003207047D5
:1022200001F00F06C44B01A80F114FEA4608DFF872
:1022300014A398470322BF024FF0010E02FA08F2DE
:1022400001A857F80AB00EFA08FCD14307EB0A03BD
:102250000EFA06FE4FEAE6080BEA010BB60003EBA6
:1022600088084BEA0C0B06F01C0947F80AB00F2748
:10227000DE6807FA09F9B14F0E4046EA0C06DE6047
:102280009E68314011439960D8F8206026EA09061B
:10229000C8F820605A6822EA0E025A60B847A84B74
:1022A000002043F8245003B0BDE8F08F01F00F0880
:1022B000A14B01A80E114FEA480ADFF8889298470F
:1022C0000323B60201A803FA0AF14FEAE80E56F812
:1022D000097006EB0902CB4307EA030C02EB8E07F9
:1022E00046F809C04FEA880CD2F80CE00CF01C0646
:1022F0004FF00F0C03EA0E0E0CFA06FC0126C2F892
:102300000CE0D2F808E006FA08F88C4E03EA0E0357
:102310000B4393603B6A23EA0C033B62536823EA56
:1023200008035360B047BAE701F00F06824B01A8DB
:102330000F114FEA4609DFF80C8298470323BF02CA
:10234000012103FA09FE4FEAE60C57F808A001FA4A
:1023500009F36FEA0E0907EB0802B140B6000AEA7A
:10236000090A02EB8C0C06F01C0601A843EA0A03DA
:1023700047F808300F23D76803FA06F86F4E09EACA
:102380000707D760936809EA03034EEA03039360E3
:10239000DCF8203023EA0803CCF82030536823EA25
:1023A00001015160B0477AE701F00F06624B01A8C6
:1023B0000F114FEA4608DFF88C9198470323BF02BC
:1023C0004FF0010C03FA08F101A857F809E007EBF8
:1023D0000902CB430CFA08F80CFA06FC0EEA030ECD
:1023E00047F809E0F710D2F80CE0B60002EB8707D7
:1023F00003EA0E0E06F01C0648EA0E084FF00F0E18
:10240000C2F80C800EFA06FED2F808804B4E03EAA2
:1024100008030B4393603B6A23EA0E033B62536855
:1024200023EA0C035360B04739E701F00F07424B32
:1024300001A80E114FEA4708DFF8089198470322D8
:10244000B6024FF0020E02FA08F101A856F809C0D0
:1024500006EB0903CA430EFA08F807FA0EFE0CEA67
:10246000020C46F809C0FE10D3F80C900EF01C0CBC
:1024700003EB86064FF00F0E02EA09090EFA0CFE76
:102480004FF0010C48EA09080CFA07FCC3F80C806D
:10249000D3F8088002EA0802DFF8A0800A439A60B5
:1024A000326A22EA0E0232625F6827EA0C075F6036
:1024B000C047F4E601F00F061F4B01A84FEA2119AF
:1024C0007700DFF880A0984703234FEA89294FF06F
:1024D000010C03FA07F84FEAE60E59F80A100CFA55
:1024E00007F26FEA080309EB0A070CFA06FCB600CC
:1024F000194007EB8E0E06F01C0601A811430F22AF
:1025000049F80A1002FA06F9F9680C4E1940F96008
:10251000BA68134048EA0303BB60DEF8202022EAD1
:102520000902CEF820207B684CEA03037B60B047A9
:10253000B5E60420B7E600BF692B0008752B00083C
:102540002413002000000240A0F1FF330246B3FA3A
:1025500083F35B09AF28D4BF184643F0010030B9BC
:1025600004498B5C23B901238B5418467047002023
:10257000704700BF74120020AF2848DCA0F1FF3282
:10258000B2FA82F25209002A41D1034621492DE9CB
:10259000F04182B000F00F051F4E041101A84FEA70
:1025A0004508F25488470322A4021C4F4FEAE50E67
:1025B00002FA08F201A8E659E319D143DFF8608076
:1025C00006EA010C03EB8E0644F807C0AF00D3F80F
:1025D0000CC007F01C040F2701EA0C0CA7400124D3
:1025E000C3F80CC0D3F808C004FA05F501EA0C01E1
:1025F00011439960326A22EA070232625A6822EA7B
:1026000005055D60C047204602B0BDE8F0810020AE
:10261000704700BF692B00087412002000000240C0
:10262000752B00082DE9F04FAF2885B09DF838A034
:102630009DF83C6050DC441C4ED000F00F054FF07C
:10264000010C1F46914605FA0CF20411264B03A813
:1026500001FA02F80AFA02FA974000920CFA05F21F
:10266000A4024FEA850B019298470323009A1F4961
:102670000BF01C0B03FA02F21D4163580F20D243EA
:1026800006FA0BF600FA0BFB60181340B9F1010FC4
:1026900000EB850543EA08036350C36803EA0203BD
:1026A00043EA0A03C360836802EA030247EA0207B7
:1026B00087602B6A23EA0B0B4BEA06032B62436805
:1026C0000ED0019A23EA0206466003A8084B9847F9
:1026D000012005B0BDE8F08F002005B0BDE8F08F07
:1026E000019E1E434660F0E7692B0008000002408F
:1026F000752B000810B4074A0411012300F00F00E5
:1027000002EB842203FA00F001B9000490615DF845
:10271000044B7047000002402DE9F04F654E89B030
:102720004FF00009DFF8CCB1DFF8CCA107E009F1E8
:1027300001090AF1070AB9F1B00F00F093800025F2
:1027400009F00F045C4A0023284606F8015F5B4944
:1027500088475B4FA2084BF8040FA1000F23901C81
:102760004FEA191201F00C0157F820008B408A4003
:1027700003409A420AD153480121534B0268A140B9
:1027800003EB441322EA010202605D619AF806300D
:10279000002BCCD0A1004FF0010C9AF804E007A860
:1027A00001F01C0104FA0CF59AF803704FEA29189D
:1027B0000EFA01FE9AF8022005910CFA04F1AA40E3
:1027C000AF4000914FEA88289AF801103F4BCDF8AE
:1027D00008E0039704929AF8007001919847032348
:1027E000DFF818C107FA05F205991C41AB4058F80B
:1027F0000C0008EB0C05DB434FF00F0E05EB8404D7
:1028000018400EFA01F1104348F80C00EA680398EA
:102810001A40024307A8EA60AA681340049A1343C7
:10282000009AAB60236A23EA0101029B19432162EB
:1028300001996B6801290CBF134393436B60244BD0
:102840009847012F7FF473AF9AF80530002B2CD0F6
:1028500009F10109009B0AF1070AB9F1B00FAB6158
:102860007FF46DAF174B00241A4D06201C602246E2
:102870001949A847224619490720A847224618495E
:102880000820A847224617490920A847224616498A
:102890000A20A847224615491720A847224614496E
:1028A0002820A84709B0BDE8F08F009B1B04AB614E
:1028B0003DE700BF73120020400D0300F146000801
:1028C00000380140003C014038100020692B00080E
:1028D000752B0008E92A0008591E0008091F000886
:1028E000852000083D210008C11F0008A11C000828
:1028F000A91B0008E0150020205603080000024034
:1029000070B5184B0026184D0020184C00210122EC
:10291000DC60174CC3E90165164D5C611D61164D05
:10292000164C9D61164DDC61164C1D62164D5C62A5
:10293000164C9D62164DDC62164C1D63164D5C6391
:10294000164C9D63164D1C60E361164B2560164DB9
:102950006360164BA560A261C4E904019847204654
:1029600070BD00BF38120020B1290008C12900083D
:10297000951D0008AD1A0008251B0008ED1A000877
:102980008D1A000839190008F521000849190008B6
:102990005D1B00087119000845190008A8180020DF
:1029A00074510308E8550308040000401927000883
:1029B00008B5024B9847002008BD00BF1927000842
:1029C00008B5024B9847002008BD00BF1927000832
:1029D00070B4134B4FF0FF32124C06461248C3F846
:1029E0008020E063C3F88420C3F88820C3F88021E6
:1029F000C3F88421C3F88821BFF35F8F0B4A0020FE
:102A00000B4DC3F80C2CC3F8084CD3F8242C094CFC
:102A100042F4E022C3F8242C2E60216070BC704781
:102A200000E100E000000020214B00080007FA054B
:102A3000CC180020C818002000207047EFF3108049
:102A400000F00100704700BF62B60120704700BF70
:102A5000EFF3108072B600F001007047EFF31083BF
:102A600062B630BF83F31088704700BF62B670470C
:102A7000114B00201149124A70B4C3E901011149F8
:102A80000024DA600025104A012619610F495A61B5
:102A900099610F4A0F49DA6119620F4A0F491A60AA
:102AA0001046D36111600E4B0E499661C2E9044590
:102AB000C2E9011370BC7047F0180020D12900084A
:102AC000392A0008492A0008512A00085D2A00080E
:102AD0003D2A00086D2A0008D01800207451030810
:102AE00001000020F05A030803460B4A103010B4CE
:102AF00042F82010BFF35F8F012003F01F02074947
:102B00005B1100FA02F201EB8304C4F8802141F862
:102B100023205DF8044B70470000002000E100E036
:102B20000123411100F01F0220311846934010B4D8
:102B3000024C44F821305DF8044B704700E100E09E
:102B4000034B10B504461B689847204610BD00BFD4
:102B5000CC180020034B10B504461B68984720464C
:102B600010BD00BFC8180020EFF31082026072B6DB
:102B7000704700BF0368DB0700D462B6704700BF30
:102B8000006800F0010070470368DB0703D5EFF32E
:102B90001083036072B670470368DB0703D4EFF35A
:102BA0001083036062B67047014B024ADA60FEE7A9
:102BB00000ED00E00400FA0500207047012911D063
:102BC00002290BD11C491D4A0B6943F004030B6118
:102BD000136843F00203136030BF7047174B1B6844
:102BE00030BF7047144B40F201221448196941F07C
:102BF0000401196101680A43026030BF104A10687D
:102C0000114640F4803010601A6922F004021A6103
:102C10000B689A03FCD50B68094A43F080730B607C
:102C200013689B01FCD5936843F00203936013681B
:102C300023F001031360704700ED00E000700040D6
:102C400000380240002070470E4A00200E4B0F490A
:102C500070B4C2E90103D16000240D4B00250D4979
:102C60000126136151610C4B0C4913601846DA615F
:102C700019600B4A0B499E61C3E90445C3E901127F
:102C800070BC704714190020B92B0008452C0008AF
:102C9000A92B0008BD2B000830190020745103082F
:102CA000020000202C5B0308042070470000000095
:102CB00043680B4AC3EBC3031B01D358DB0302D4A5
:102CC0009FED030B70479FED040B7047AFF300803F
:102CD00000000000CCBF894100000000CCBF99413A
:102CE00088190020000000009FED010B704700BF15
:102CF000000000000000F03F2DE9F04FD0F80490F4
:102D000093463F4D88464FEAC9033E4A3E4C2DED5F
:102D1000028B85B0B0EE408AF0EE608A0193A3EB9F
:102D200009031B0105EB030AEF58DAF8606030462F
:102D3000904753EC182BCDE90201A047334B98473D
:102D4000DAF86430DAF86820864206F1FF3103F1E0
:102D5000FF3328BF0646052ABB62F96237D0022A34
:102D600035D007F13403B2B223F828204FEA8802A5
:102D7000022393403A6ABBF1000F38D013433B6201
:102D8000019B214CA3EB090308EB430305EBC303B1
:102D9000DDE90201D3E91023A0471C4B9847B0425C
:102DA00001D001237B61019B0020A3EB090405EB0B
:102DB000041308EB4404984405EBC40488F824B0D9
:102DC00084ED108B05B0BDEC028BBDE8F08FB8F13F
:102DD000000F01D17E63C9E7B8F1010F0BD0B8F144
:102DE000020F0AD0B8F1030FC0D13E64BEE722EA59
:102DF00003033B62C4E7BE63B8E7FE63B6E700BF08
:102E0000881900201D390308113A0308C13F03083F
:102E1000F8B543680E462C4C0746C3EBC3032B4959
:102E200006EB43021B0104EBC202E55850688847D9
:102E3000002842D015F4803F2549264AC5F3842353
:102E400008BF0A464FF0010C786811680CFA03F3CA
:102E500019424FEAC0010ED117683B430F1A04EB29
:102E6000071713608422BB6E2A60012BC5F814C0BB
:102E700025D0082B23D016F0010F4FF0000305F1E9
:102E8000340214BF4FF4D04C4FF0680C22F82630B7
:102E9000B3070ED405F11807AB69091A43EA0C030E
:102EA0000122002004EB01143B60A11981F82820C5
:102EB000F8BD05F11C07EB69EFE70C20F8BD6B6C62
:102EC00043F400436B64D6E78819002049250008C5
:102ED0004038024044380240F8B50D464168064685
:102EE0001F4CCB0015F0010FA3EB010214BF6FF4D0
:102EF0007F4C6FF0FF0CA8074FEA0212A2582BD4A8
:102F000002F11807906900EA0C0038609769D069EF
:102F100038430ED112F4803FDFF850C01148C2F39D
:102F2000842208BF604601279740026822EA070210
:102F300002605B1A0C4A05EB430304EBC3035868B9
:102F4000904771680023C1EBC101184604EB0114DE
:102F5000611981F82830F8BD02F11C07D069D2E769
:102F60008819002044380240792500084038024082
:102F7000406800220323C0EBC000F0B501EB40061F
:102F80000F4D83B0000105EBC6060C4600920221EE
:102F90002D58A4007068367A0A4F0196B84701226E
:102FA0002B6A02FA04F4A4B21C432C622B68D907E2
:102FB00003D413436A619BB22B60002003B0F0BDC1
:102FC0008819002025260008426803231348C2EB15
:102FD000C202F0B5150101248F000026455901EB0E
:102FE000420104FA07F783B02C6A00EBC1003246B5
:102FF0003146A4B2406824EA0704094F2C62CDE9A7
:103000000066B84741F211131C4203D12B6823F02C
:1030100001032B60002003B0F0BD00BF8819002021
:10302000252600080000000043682DE9F04FDA0073
:1030300087B0DFF884920393D31A04921B018E4A5F
:10304000D618D55800228D4B05F4803596ED0E7BB1
:1030500058EC177B17EE100A41468DED007BC847F0
:10306000002800F09080864C3A4643467EA1D1E984
:103070000001A0470022834C834BA047834B984715
:10308000002D04460290824A18BFD825814808BF07
:103090006C25814918BF01469442B36E22D804FBC7
:1030A00005F47E4A7E4F0125A2FB0424A409022BCD
:1030B00000F08D80052B00F08A80B4F5803F05D2AA
:1030C00085E064086D00B4F5803F17D3B5F5004F77
:1030D000F7D94FF0000A4FF0000B4BEC10AB07B0E4
:1030E000BDE8F08F22466D4C022BA4FB02244FEA70
:1030F000941400F0A280052B694FDED1B1FBF5F3EB
:1031000005934FF00108B3FBF4F6B7FBF6F6654BF9
:10311000B7FBF6F0984782468B4602460B46DDE940
:103120000001C847002856D018F0FF0F03D0029BBB
:103130009E4280F087800134059BB3FBF4F6B7FB19
:10314000F6F6002EC5D098460595564B4FF0010572
:10315000B7FBF6F0984782468B4602460B46DDE900
:103160000001C84708B94FF0000515F0FF0F02D065
:10317000029B9E4265D20134B8FBF4F6B7FBF6F62B
:10318000002EE2D1A5E7DDE900AB0022464B504618
:103190005946C84728B33A4C52465B46434F34A180
:1031A000D1E90001A0470022364C374BA047374BEE
:1031B0009847002D384A0446B36E18BFD8253549C4
:1031C00004BF6C251146022B02907FF473AF002CD4
:1031D0003FF47FAF92E74FF0000818F0FF0FA6D141
:1031E000A9E752465B46264C00202449A04700220E
:1031F000254B244CA047254B9847002D2C4B264AA5
:1032000024492C4D04BF11461D46031E0293FFF6B0
:1032100060AF1C4602E0002CFFF65BAF6D08640057
:10322000B5F5803FF7D8DDE903234FF47A779B1A91
:10323000114A02EB03139B6E39E71C4B184F0593A1
:103240005FE7059DDDE903234BEC10AB9B1A0A4AAF
:1032500002EB0313C3E90CABC3E9184507B0BDE8A3
:10326000F08F00BFAFF300800000000065CDCD41BE
:103270000000000080842E418819002000408F400B
:10328000653C0308A53603080000E03FC13F030882
:103290004B682F0100E6DF0C00F36F06D34D621080
:1032A00000CA9A3B1D3903080000F03F40420F005E
:1032B000E0A50100C04B03001D3F030843682DE952
:1032C000F04FC3EBC303B54C83B0814604EB031549
:1032D0008846DFF8D8A2D1E90067D5E90E01324669
:1032E0003B46D04718B1002003B0BDE8F08FC5E9D8
:1032F0000E67AB4B48469847D9F80450EE00731B55
:103300001B01E7187A68013288ED000B5AD1731B54
:103310001B01E718FA68013240F09880731B1B010B
:10332000E7187A69013240F0D280731B1B01E7185D
:10333000FA690132D7D0D7F860909A4A484654F8D3
:1033400003809047DFF868B297F827A097ED167BC7
:1033500053EC172B8DED007BD847934B98477B6E32
:10336000BA6E814509F1FF3C494603F1FF3328BF9E
:103370000146052AC8F82830C8F82CC000F00B8197
:10338000022A00F0088189B2A8F84010D8F820304D
:10339000BAF1000F00F0F18043F40053C8F8203078
:1033A000814502D20123C8F81430751B00209DED21
:1033B000007B04EB051484F827A084ED167B03B092
:1033C000BDE8F08FD7F86090764A484654F80380FD
:1033D0009047DFF8DCB197F824A097ED107B53EC11
:1033E000172B8DED007BD8476F4B98477B6EBA6EDD
:1033F000814509F1FF3C494603F1FF3328BF0146EF
:10340000022AC8F82830C8F82CC000F0BB80052A72
:1034100000F0B88089B2A8F83410BAF1000F00F0BB
:103420009780D8F8203043F00203C8F82030814557
:1034300002D20123C8F81430731B9DED007B04EB0E
:10344000031383F824A083ED107B60E7D7F8609026
:10345000544A484654F803809047DFF854B197F82F
:1034600025A097ED127B53EC172B8DED007BD847F1
:103470004D4B98477B6EBA6E814509F1FF3C49463A
:1034800003F1FF3328BF0146052AC8F82830C8F8E1
:103490002CC07AD0022A78D089B2A8F83810BAF1B4
:1034A000000F5CD0D8F8203043F02003C8F820305B
:1034B000814502D20123C8F81430731B9DED007BB7
:1034C00004EB031383F825A083ED127B26E7D7F8DE
:1034D0006090344A484654F803809047DFF8D0B0F3
:1034E00097F826A097ED147B53EC172B8DED007BFE
:1034F000D8472D4B98477B6EBA6E814509F1FF3C4A
:10350000494603F1FF3328BF0146052AC8F8283091
:10351000C8F82CC03CD0022A3AD089B2A8F83C1096
:10352000BAF1000F22D0D8F8203043F40073C8F865
:103530002030814502D20123C8F81430731B9DED61
:10354000007B04EB031383F826A083ED147BECE6E9
:10355000D8F8203023F00203C8F8203067E7D8F805
:10356000203023F02003C8F82030A1E7D8F820301D
:1035700023F40073C8F82030DBE723F40053C8F8C5
:1035800020300DE7C8F8341047E7C8F8381086E750
:10359000C8F83C10C4E7C8F84010F7E688190020C6
:1035A000293000081D390308C13F0308E13E030824
:1035B000113A03082DE9F04FCB4B4FEA4018C600F3
:1035C000CA4C53F8082003EB0801331A83B0097979
:1035D000054604EB03135A600132197206D000222B
:1035E0000020002183F82420C3E91001731B04EBA1
:1035F000031393F82830002B61D1BB4B03EB080277
:10360000731B916804EB0313127BD96001311A74A8
:1036100006D000220020002183F82520C3E91201F2
:10362000731B04EB031393F82930002B40F06A81DD
:10363000AD4B03EB0802731B116904EB0313127DFE
:10364000596101311A7606D000220020002183F84A
:103650002620C3E91401731B04EB031393F82A30EB
:10366000002B40F0E480A04B03EB0807731BBA6902
:1036700004EB0313397FDA61013283F8201006D09E
:1036800000220020002183F82720C3E91601731BC4
:1036900004EB031393F82B30002B6DD1761B002223
:1036A0000023013504EB06140021A566C4E91811B6
:1036B000C4E90E23C4E90C2303B0BDE8F08FDFF8A2
:1036C0003C924FF0000C0323894F59F825106246B5
:1036D00048686146C0EBC000000154F800B02044C7
:1036E000DBF820A040681FFA8AFA2AF0010E1FFAC0
:1036F0008EFECBF820E0CDE900CCB84741F21013A4
:103700001AEA030F05D1DBF8003023F00103CBF8F0
:10371000003059F82590D9F80430D800C21A1201A7
:10372000A258916921F0FF019161D2F818C0D169C6
:103730005CEA010110D112F4803FDFF8C4E16D4969
:10374000C2F3842208BF71464FF0010C0CFA02FC50
:103750000A6822EA0C020A60C31A674A04EB0313E0
:1037600058689047D9F804300022C3EBC30304EB38
:10377000031383F8282040E7DFF880914FF0000C16
:1037800003235B4F59F82510624648686146C0EB39
:10379000C000000154F800802044D8F820A0C0697F
:1037A0001FFA8AFA2AF4805E1FFA8EFEC8F820E01B
:1037B000CDE900CCB84740F211131AEA030F05D146
:1037C000D8F8003023F00103C8F8003059F825700C
:1037D0007968CA00531A1B01E358D86920F47F4066
:1037E000D861D3F818C0D8695CEA000010D113F48E
:1037F000803FDFF80CE13F48C3F3842308BF7046E5
:103800004FF0010C0CFA03FC036823EA0C0303607D
:10381000521A394B04EB0212D06998477B68002298
:10382000C3EBC30304EB031383F82B2036E7DFF865
:10383000CC904FF0000C03232D4F59F82510624611
:1038400048686146C0EBC000000154F800B0204455
:10385000DBF820A040691FFA8AFA2AF4807E1FFA5A
:103860008EFECBF820E0CDE900CCB84741F2110341
:103870001AEA030F05D1DBF8003023F00103CBF87F
:10388000003059F82590D9F80430D800C21A120136
:10389000A258D16921F0FF01D161D2F818C0D169D5
:1038A0005CEA010110D112F4803FDFF854E01149C5
:1038B000C2F3842208BF71464FF0010C0CFA02FCDF
:1038C0000A6822EA0C020A60C31A0B4A04EB0313CB
:1038D00058699047D9F804300022C3EBC30304EBC6
:1038E000031383F82A20BEE69C5B03088819002096
:1038F0002526000844380240792500085019002088
:1039000040380240DFF8C4904FF0000C03232C4FE6
:1039100059F82510624648686146C0EBC0000001B6
:1039200054F800B02044DBF820A0C0681FFA8AFADF
:103930002AF0100E1FFA8EFECBF820E0CDE900CC65
:10394000B84741F201131AEA030F05D1DBF8003042
:1039500023F00103CBF8003059F82590D9F8043052
:10396000D800C21A1201A258916921F47F419161D5
:10397000D2F818C0D1695CEA010110D112F4803F7D
:10398000DFF84CE00F49C2F3842208BF71464FF0C4
:10399000010C0CFA02FC0A6822EA0C020A60C31A43
:1039A000094A04EB0313D8689047D9F80430002281
:1039B000C3EBC30304EB031383F8292038E600BFED
:1039C00025260008443802407925000850190020B7
:1039D0004038024028B1406808B5034B98470020A2
:1039E00008BD0220704700BFB535000828B1406807
:1039F00008B5034B9847002008BD0220704700BF60
:103A0000B5350008E74A00214FF0010CE64B02F102
:103A100068002DE9F04FDFF8C8B302F13404022743
:103A200083B0DFF8C0A3E14EDFF8BC93DFF8BC83BE
:103A3000DFF8BCE3DE4DC2F838C0D766DFF8B4C3A8
:103A4000DC4F51600191CBF80800DB49DB48C2F83C
:103A500008A0C2F83CA0C2F870A0D360136416613D
:103A60005664C2F81490C2F84890C2F81880C2F8A0
:103A70004C80C2F81CE0C2F850E0C2F820C0C2F886
:103A800054C057629765D06210661560556395669D
:103A9000CBE90024CA4C9462D46511635166C2F824
:103AA0009C50C2E92374C2E931400324C2F8A0400B
:103AB00002F19C04CBF80C4002F1D004C2E91D369F
:103AC000C2E91F98C2E921ECC2E92501C2E929A394
:103AD000C2E92B69C2E92D8EC2E92FC7C2E936A31C
:103AE000C2E93869C2E93A8EC2E93315CBF8104011
:103AF0000424C2F80011C2F8D440B14CC2F80CA1A1
:103B0000C2F82C41C2F86041C2F81031C2F8146109
:103B1000C2F81891C2F81C81C2F820E1C2F824C191
:103B2000C2F82871C2F83001C2F83411C2F840A1BD
:103B3000C2F84431C2F84861C2F84C91C2F85081D1
:103B4000C2F854E1C2F858C1C2F85C71C2F864010D
:103B5000C2F86811C2F80451C2F83851C2E93E40B7
:103B600002F58274CBF814400524C2F8084102F52E
:103B70009C74C2E93CC7CBF818400624C2F874A173
:103B8000C2F83C4102F5B674C2F87831CBF81C405B
:103B90008B4CC2F87C61C2F89441C2F8C84102F56E
:103BA000D074C2F88091CBF8204002F5EA74C2F8D4
:103BB0008481CBF824400724C2F888E1C2F8704120
:103BC0000824C2F88CC1C2F89071C2F89801C2F8FA
:103BD0009C11C2F8A8A1C2F8AC31C2F8B061C2F819
:103BE000B491C2F8B881C2F8BCE1C2F8C0C1C2F851
:103BF000C471C2F8CC01C2F8D011C2F8DCA1C2F87D
:103C0000E031C2F86C51C2F8A051C2F8D451C2F8E8
:103C1000A4410924C2F8E461C2F8D84102F5027453
:103C2000C2F8E891CBF82840654CC2F8EC81C2F8A4
:103C3000FC41C2F8304202F50F74C2F8F0E1CBF853
:103C40002C400A24C2F8F4C1C2F8F871C2F800028C
:103C5000C2F80412C2F810A2C2F81432C2F81862F4
:103C6000C2F81C92C2F82082C2F824E2C2F828C22C
:103C7000C2F82C72C2F83402C2F83812C2F844A258
:103C8000C2F84832C2F84C62C2F85092C2F854826C
:103C9000C2F858E2C2F85CC2C2F80852C2F83C52FC
:103CA000C2F80C420B24C2F86C12C2F8404202F572
:103CB0001C74C2F8A012C2F8D41202F52971CBF814
:103CC0003040CBF834100C213D4CC2F87C32C2F8A5
:103CD0006442C2F89842C2F8B032C2F8CC424FF007
:103CE0008044384BC2F874120D21C2F86072C2F8D9
:103CF0006802C2F878A2C2F88062C2F88492C2F860
:103D00008882C2F88CE2C2F890C2C2F89472C2F8FB
:103D10009C02C2F8ACA2C2F8B462C2F8B892C2F86F
:103D2000BC82C2F8C0E2C2F8C4C2C2F8C872C2F80B
:103D3000D002C2F87052C2F8A452C2F8A8121C678E
:103D400004F58064204EC3F8E04004F58064DFF899
:103D5000A8A0C3F8504104F58064DFF8A090DFF814
:103D6000A080DFF8A0E0DFF8A0C0184F184819497C
:103D7000194A1E60C3F8C0410024184EC3F830A28F
:103D8000C3F8A092C3F81083C3F880E3C3F8F0C36C
:103D9000C3F86074C3F8D004C3F84015C3F8B02565
:103DA00034E000BFA81F0020ED390008112E0008E4
:103DB00080220020BD320008A92C0008B12C000888
:103DC000E92C00088819002000000140004801404B
:103DD00000180040001C004000200040B5350008DD
:103DE00050190020D5390008D92E0008712F00087D
:103DF000C92F0008F92C00080010004000140040F2
:103E000000040140004001400044014020460134CC
:103E1000B0470E2CFAD1084E00220848002308496A
:103E2000AC61C5F81CB0A960C5E900600548C5E9EA
:103E3000042303B0BDE8F08F74510308645B0308EA
:103E400006000040802200204368034A013B0348EB
:103E5000012B88BF10467047F36F0600F937030047
:103E60004368034A013B0348012B88BF1046704753
:103E700080F93703C0FC9B012DE9F041446882B012
:103E8000012C089857DCE7003D4E07EB040C06EBCD
:103E90008C0CDCF810508D4265D0DFF8F8C03D196D
:103EA00000F1FF385CF824C006EB8505B8F1020F7D
:103EB000DCF800E029612EF03B0E6B612862CCF843
:103EC00000E0AA6135D82F4B53F82850DFF8C8809E
:103ED00004F1FF3ED01746F67813BEF1020F88FBBF
:103EE00002824DF2F02840F2976EC0EBA21240F62B
:103EF0002F5024BF43468646B3EBC20F02D945F08C
:103F000020057346B3EB420F02D99B0845F010051C
:103F10009342DCF8003008461B4A88BF45F008058C
:103F20001D43CCF80050904748B9002002B0BDE8CE
:103F3000F0810025CAE7082002B0BDE8F0813C44CA
:103F400000250323012106EB84062A460F4CCDE908
:103F500000553069A047306901210D4B984728462C
:103F600002B0BDE8F081DCF814509D4295D1DCF838
:103F70002050854291D1DCF8185095428DD1D4E77C
:103F8000A82200205C5D03084925000825260008BA
:103F9000F526000858230020D34D6210002830D0A9
:103FA00000224FF0FF312DE9F04F446885B0DFF873
:103FB0001881E5003F4F58F834902B193E4E484683
:103FC00007EB8303C3E904121A629A61B047A0B1F8
:103FD000DFF8F8A05AF834B05846B04768B1374B0C
:103FE00053F8343018460393B04730B1052C0FD83E
:103FF000DFE804F05A544E4842090C2005B0BDE8F1
:10400000F08F022070472E4A536C43F40013536420
:10401000A8442C4B00264FF4517153F824E0AA44D5
:1040200098F804C03246CEF800104846DFF8A08069
:10403000032302212C44CDE9006CC0479AF804C048
:1040400032460096CDF804C0584603230221C047EB
:104050001A4B009632462B440398022107EB840446
:1040600093F804C00323CDF804C0C04701233046B1
:10407000237705B0BDE8F08F114A536C43F48013E9
:104080005364C5E70E4A536C43F400535364BFE7CF
:104090000B4A136C43F400431364B9E7084A136CEA
:1040A00043F480431364B3E7054A536C43F48053ED
:1040B0005364ADE7A822002049250008B05D03083D
:1040C0000038024058230020C05D0308A05D0308AB
:1040D0002526000800286BD02DE9F047456882B0FE
:1040E000052D09D8DFE805F0464C52585E03314AE9
:1040F000536C23F4001353642F4A00242F4E0323E0
:1041000052F8359021462246019400944846B04723
:104110002B4B2246214653F835700323019400941B
:104120003846B047274B2246214653F835A0032393
:10413000019400945046B047DFF890805046EE005E
:10414000C0474846C047204C38467719C04704EB63
:1041500087073869431C08D100233544184604EB0F
:104160008504237702B0BDE8F087C0474FF0FF33E6
:104170003B61F1E70F4A536C23F480535364BBE770
:104180000C4A136C23F480431364B5E7094A136C9B
:1041900023F400431364AFE7064A536C23F400533F
:1041A0005364A9E7034A536C23F480135364A3E7D1
:1041B0000220704700380240A05D03082526000851
:1041C000B05D0308C05D0308A8220020792500081F
:1041D0000020014B184700BF4519000810B51446D0
:1041E00041B112680846054B022A054928BF022240
:1041F0009200984702230020236010BD3B4503082E
:104200002C0200202B482C4A00F134012DE9F84300
:104210002A4B00262A4C01251A60022761604FF0C4
:10422000000828494FF00009274A59609A60274939
:10423000274A8160C163026126494264264A41617E
:10424000816482612549C264254AC16101650262B7
:1042500024494265244A466085634162234D816555
:1042600082622349C265234E234A03604363C162CD
:104270000166026342662060C56005641F4AC3E9A7
:1042800004899F61DC611E4F1E4B317FC2E90073C0
:1042900029B996F840303BB90848BDE8F883A847EB
:1042A00096F84030002BF7D06068A8470348BDE877
:1042B000F88300BFF022002074510308602300201F
:1042C000A0220020685D0308070000409D3F000811
:1042D000793E000821440008A544000895430008E1
:1042E00029450008D1410008493E0008D540000892
:1042F000613E0008A8220020DD410008582300206C
:10430000003001400038004000EBC0021F4BF0B508
:1043100092001F4C53F82030A118A758D1E902454C
:10432000D1F804C0A5422E46B8BF2646002DCCBF0A
:104330009CF8001000219A689007FCD50022D960F3
:10434000511C8E4217DD8D42CCBF1CF801000020AD
:104350009A68D207FCD5D3F80CE09A689207FCD58E
:104360004A1ED860A24202DA7A1802F801EC0A4624
:10437000511C8E42E7DC9968C907FCD5DB68A24274
:104380004FF00100B8BFBB54F0BD00BF5823002060
:10439000A82200202DE9F04F456883B0012D03DDF0
:1043A000082003B0BDE8F08F4FEAC508DFF86C9035
:1043B0008B46174F08EB050600219A460192B6007E
:1043C00009EB06042069B8470C9B019A19686369D8
:1043D000A160102B126849F806A0E260C4F804B08E
:1043E00010D10C4B53F825309C6814F08004FBD19D
:1043F0004544012109EB85052869B847204603B0EB
:10440000BDE8F08F2846044B98470028E9D1C7E75C
:10441000F52600085823002009430008A8220020A0
:104420002DE9F84F4568012D02DD0820BDE8F88F21
:10443000EF00DFF868908B46DFF8648007EB050A31
:10444000002116464FEA8A0A09EB0A042069C04790
:10445000616932680023102949F80AB0E360C4E9B1
:10446000013210D10B4B53F825309C6814F08004B6
:10447000FBD13D44012109EB8509D9F81000C04763
:104480002046BDE8F88F2846034B98470028E9D11D
:10449000CBE700BF5823002009430008A8220020D2
:1044A000F52600082DE9F84F4568012D02DD0820AA
:1044B000BDE8F88F4FEAC508DFF868908A46164FC6
:1044C00008EB050600219346B60009EB06042069B7
:1044D000B84700236169A3601029DBF80020C4F805
:1044E00004A0E26049F806300FD10C4B53F8253098
:1044F0009C6814F08004FBD14544012109EB85053B
:104500002869B8472046BDE8F88F2846044B9847ED
:104510000028EAD1CBE700BFF52600085823002089
:1045200009430008A82200202DE9F04F456883B018
:10453000012D03DD082003B0BDE8F08F4FEAC50B65
:10454000314F0C4606460021DFF8C480CDE9002338
:104550000BEB05034FEA830907EB090ADAF81000B1
:10456000C0470021DAF81400009ACAF80810102891
:104570001268CAF80440CAF80C2047F809103CD168
:10458000DFF890A05AF825309C6814F08004FBD125
:104590005D44012107EB85052869C0477668012E37
:1045A000C8DCF5002146AB199B0007EB030B009319
:1045B000DBF81000C0470C9BDBF814201968102AA8
:1045C000CBF80C40DDE90030CBE90141F85004D0D4
:1045D00030460E4B98470028ACD05AF826309C68DD
:1045E00014F08004FBD13544012107EB85073869BD
:1045F000C047204603B0BDE8F08F2846034B9847DC
:104600000028BDD196E700BFA8220020094300087A
:10461000F526000858230020704700BF024A034BCC
:1046200002609B1A0B607047000040C0F8FF7FC01B
:104630000F491048814210B505D00F4A0F4B22F0A8
:104640000302043298470E490E48814205D00E4AB3
:104650000A4B22F00302043298470C4A00210C480E
:1046600022F003020B4B0432BDE81040184700BF94
:1046700008BC030810760020FCFFFFFF3B45030841
:1046800048B8030800020020BC0300004870000086
:10469000C00500208345030838B5044B05460C4689
:1046A000984700232860236038BD00BF9D83000821
:1046B00001230370704700BF042070472DE978483C
:1046C00014461D464FEA820B084E9B001BEB04006C
:1046D00043EA927C4FF0D8024FF000034CEB050107
:1046E000400041EB0101B047BDE878884141030833
:1046F0002DE93048104619460E4C0A220023A047E7
:10470000420041EB010310EB020B41EB030C4FEABB
:10471000CB044FEACC051BEB040045EA5B754FEA7E
:10472000C0024CEB0501CB0043EA5073104619461A
:10473000BDE83088414103082DE97003114B4FF06B
:10474000FF344FF6FF751049F0264FF000084FF088
:10475000000900220720C3E900450C4B0C4D0D4C0D
:10476000C1E900895D6084F823606FF07F449A603E
:10477000CC60186010465D608C609A60BDE8700384
:10478000704700BF80230020D823002010E000E005
:10479000FEFFFF0000ED00E0034A0020136823F055
:1047A00001031360704700BF10E000E0034B18697D
:1047B00008B1082070471961704700BFD823002056
:1047C0002DE9F04182B0164B01A89847154B1A68A5
:1047D0009B6812F4803F144A23F07F43916801D113
:1047E00099421AD81BB10F484068C01A014401A869
:1047F0000E4E9360D2E9004567184FF6FF7445F1FD
:104800000008C2E90078B0474FF0FF3304EA08011E
:1048100003EA070002B0BDE8F081C91AE7E700BF6C
:10482000692B000810E000E0D8230020752B000859
:10483000500043EB03012DE9700810EB020B054E0D
:104840004FEACB041BEB0400C300581F3346BDE8FE
:10485000700818473BB803082DE9F04F85B0DFF822
:10486000488116461F4602A84C4CC04703A8C047C3
:104870004B4BA1681A689B68D00323F07F4302D496
:104880008B42C0F08980002B40F08180A3604FF6FE
:10489000FF7C4FF0FF3B03A8424DD4E9002312EB0D
:1048A000010943F1000A4A465346C4E9002309EAD4
:1048B0000B020AEA0C034FEA860ADFF8F090CDE912
:1048C0000023A8471AEB06004FEA87034FF00A02BD
:1048D00043EA967B4FF000034BEB0701400041EBAE
:1048E0000101C847420041EB0103861841EB030771
:1048F0004FEAC60A4FEAC70B1AEB06004BEA567B93
:104900004FEAC0024BEB0701CB0043EA5073002B88
:1049100008BF042A38D3D61E43F1FF37DDF800A0C4
:10492000DFF87C9019E08B4222D2C91AA36003A859
:10493000D4E9002312EB010B43F1000CC4E900BCE5
:10494000CDE900BCA847DDE900BCABEB0A0B5A4639
:10495000D3179F4208BF5E4511D303A8C047D9F8BB
:104960000020D9F80830D203A16823F07F43DAD5BC
:10497000002BDBD0D9F80420D21A1144D6E702A8C4
:10498000A84705B0BDE8F08F00260027C6E7044A17
:104990005268D21A114479E7C91A77E7D823002060
:1049A00010E000E0752B0008692B00084141030866
:1049B0002DE9F04F83B0304C904699466846A047A9
:1049C00001A8A0472D4B2E4C1A689B6812F4803F1B
:1049D000A26823F07F4301D193422CD333BB01A8BB
:1049E000284DA360D4E9006716EB020A47F1000BDB
:1049F000C4E900ABA8474FF6FF734FF0FF322249DE
:104A0000994508BF9045C1E9008916D00BEA030714
:104A10000AEA02064F4508BF464518D3236998475E
:104A20006846A847002003B0BDE8F08F13494968E5
:104A3000C91A0A44D3E7D21AD1E7104B6FF07F426C
:104A400012480021C4E9022258609960E8E7A8EB07
:104A500006060E4B9E42E66006D8084B711E0022E9
:104A6000A66059609A60DBE7044A6FF07F4000213E
:104A7000A06053609160D3E7692B000810E000E06C
:104A8000D8230020752B000880230020FEFFFF00A4
:104A9000144B0020144A154970B4C3E90102D960CF
:104AA0000024134A0025134901261A615961124A4C
:104AB00012499A61D961124A12491A625962124A1C
:104AC00012499A62D962124A12491A601046D36199
:104AD0001160114B11499661C2E90445C2E9011305
:104AE00070BC7047882300203947000899470008A8
:104AF000B9460008C1470008BD460008F146000855
:104B0000AD470008B149000831480008594800087D
:104B1000B82300207451030803000020D05D03086F
:104B20002DE9F04182B0204B204E68469847204B3B
:104B300001A898471F4B1A689B6812F4803FB2681F
:104B400023F07F4301D1934227D30BBB1A4901A81D
:104B5000B360D6E90045A71845F10008C6E900781A
:104B600088474FF6FF71154B4FF0FF3008EA0105FB
:104B700007EA0004D3E900239D4208BF94420ED304
:104B8000336998470E4B6846984702B0BDE8F081FC
:104B900008494968C91A0A44D8E7D21AD6E7094928
:104BA00000208847EEE700BF412B0008D8230020F3
:104BB000692B000810E000E0752B0008802300201E
:104BC000552B0008B149000843680020034AC3EB95
:104BD000031302EB83035B6A0B6070470824002019
:104BE000184B2DE9F041074618680E460321436A29
:104BF00098470EB37C688046134D23011A1B05EBC2
:104C00008202516A21B14369516898477C68230147
:104C10001B1BD8F810203146404605EB8304666222
:104C200090477B686060C3EB031305EB83056B68FB
:104C30002BB10020BDE8F0810120BDE8F0816B625E
:104C40001520F7E7C0050020082400204368002055
:104C5000034AC3EB031302EB83035B690B607047EA
:104C600008240020184B2DE9F041074618680E462D
:104C70000321436A984706B37C688046134D23019D
:104C80001A1B9200A918496921B14369A95898478C
:104C90007C6823011B1B314640469C00D8F810302D
:104CA0002A19566198477B682851C3EB03139B0070
:104CB000EA582AB10020BDE8F0810120BDE8F0816A
:104CC0002B4415205A61F6E7C00500200824002077
:104CD0000020704743680020034AC3EB031302EB34
:104CE00083031963704700BF082400204368002035
:104CF000034AC3EB031302EB83035963704700BFFE
:104D00000824002007207047072070472DE9F04154
:104D100082B04668214B804601A80C46154698474C
:104D200030011F4F811B07EB810191F82C305BB3E1
:104D3000D8F80420C2EB021207EB8202536A1BB3BD
:104D4000D1F818C0831B2868002207EB8303611E7B
:104D50006045174628BF604628600FE05C68186A07
:104D6000205C01F8010F186A9C6901305E6A013C01
:104D7000B04218629C6100D11F622868824202F131
:104D80000102EBD3002402E0002306242B6001A8DB
:104D9000044B9847204602B0BDE8F081692B00081B
:104DA00008240020752B000870B5456882B0052DD9
:104DB00003DD0124204602B070BD0646134B01A856
:104DC00000249847124A1349C5EB051302EB8303ED
:104DD00051F8252010499E6351F835009A620F4E14
:104DE0001C611C62C3E90244C3E90644B04730B900
:104DF0000C2401A80A4B9847204602B070BD094B0D
:104E000053F83500B0470028F2D0F2E7692B0008CC
:104E100008240020B0270020405E03084925000830
:104E2000752B0008705E03082DE9F04383B0074638
:104E30006B4B01A86B4D98477C6800222601331B01
:104E400005EB83039B6A1A60072C00F2B780DFE84A
:104E500004F074787C8084889B045320624B9847CC
:104E6000331B05EB83039B6A1A6822F020021A6049
:104E70001A6822F080021A60002C40F089805B4A98
:104E8000536C23F010035364331B594A4FF000094D
:104E9000DFF8748105EB830352F83400C3E902990B
:104EA000C3F81090C3F82090C3E90699C047514B4E
:104EB00053F83400C047504B53F83400C0474F4BB1
:104EC00053F83400C0474E4B186848B3436A032177
:104ED00098477A6880461301991A890005EB010CFE
:104EE000DCF814C0BCF1000F09D069584369984739
:104EF0007A681301991A05EB8101C1F814909B1A85
:104F000005EB83035A6A5AB159684046D8F8143001
:104F100098477B680022C3EB031305EB83035A62B7
:104F2000341B002601A8374B05EB840585F82C605F
:104F30009847304603B0BDE8F0832B4B25209847B7
:104F40008EE7294B262098478AE7274B272098474A
:104F500086E7254B3420984782E7234B3520984736
:104F60007EE7214B47209847D5F854311A6822F044
:104F700020021A601A6822F080021A601B4A536CE1
:104F800023F0200353647FE7174B5220984767E7CD
:104F9000042C08DC15494FF480320B6CA24023EA44
:104FA00002030B6470E7062C13D0072C7FF46CAF60
:104FB0000E4A136C23F00043136465E71A68052C4E
:104FC00022F020021A601A6822F080021A60D5D0FE
:104FD00052E7064A136C23F08043136454E700BF82
:104FE000692B000808240020212B0008003802400B
:104FF000405E0308705E0308A05E0308A05E03081D
:10500000C0050020752B00087925000838B54368D5
:105010000A4CC3EB031304EB830494F82C305BB10C
:10502000A3683BB1064D002301220020A847A368D6
:10503000002BF8D1002038BD062038BD0824002000
:10504000314800082DE9F04F446885B00746052C2B
:1050500053D04CBBB54EB64D706C40F01000706430
:1050600005EB5100B34D2601B0FBF1F1301B89B2C5
:1050700005EB8000806AC160002B3AD0012B41F221
:105080000C4E40F20C4C41F20C6340F20C6102F108
:1050900001021CBF73466146092A14D0082A11D0A8
:1050A000012005B0BDE8F08F042C2DDD062C00F0AA
:1050B0001E81072CD4D19D4E9F4D306C40F0004096
:1050C0003064CDE70B4603600E9B012B00F00C8192
:1050D000022B0CBF4FF40053002343600F9B012BA6
:1050E00000F0AC801BD3032B19D8042005B0BDE819
:1050F000F08F41F20C030C21CEE78C4E8C4D706C7E
:1051000040F020007064ABE7884E4FF480308A4D49
:10511000D6F840C0A04040EA0C003064A0E7874BBE
:105120004FEAC4084FF000094FF0010C03EB0801EF
:1051300053F83430C0F808904A4609791846CDF83B
:1051400000C0032301910221DFF828A2D0477C4B45
:10515000CDF800904A46984453F8340002210323C6
:1051600098F804C0CDF804C0D047072C0ED8DFE86B
:1051700014F00F0109010301D700D100CB00C500D5
:10518000080000226F4953206F4B9847A6EB040894
:105190006E4B012203211B6805EB8808184688F82E
:1051A0002C205B6A9847D8F814308246A3B9684A25
:1051B000036952F82410D7F80490C8F814109847DF
:1051C0007B68C9EB0919C3EB031345F829009B0061
:1051D000EA58002A00F0E280331B05EB83035A6A89
:1051E000C2B95C495046DAF8102051F82410D7F8BB
:1051F0000480596290477B68C8EB0818C3EB03131F
:1052000005EB880805EB8303C8F804005A68002AF8
:1052100000F0C880341B002005EB8405AB6A1A68D7
:1052200042F080021A601A6842F020021A601A687E
:1052300042F001021A6005B0BDE8F08F3F4A4FEA24
:10524000C40A4FF4407E032352F8341002EB0A0CD8
:10525000C0F808E000229CF804C008460F99904668
:10526000CDF804C000910221DFF80891C847344B03
:105270004246CDF8008003EB0A0153F834000323C3
:10528000097901910221C847334B53F834B0334BAD
:10529000584603939847039B10B3314A52F8342081
:1052A000104603929847D8B12B4B5846CDF8008052
:1052B000022103EB0A02032392F804C04246CDF810
:1052C00004C0C847264BCDF8008042469A44039854
:1052D000032302219AF804C0CDF804C0C84744E76C
:1052E0000C2005B0BDE8F08F4FF44053F5E60F4EAB
:1052F000114D306C40F080403064B1E60022194915
:10530000114B5220984741E7002217490E4B472086
:1053100098473BE7002215490B4B3520984735E766
:1053200000221349084B342098472FE700380240E9
:1053300000F36F060824002080F93703405E03085D
:10534000705E0308C1590008E92A0008C005002062
:10535000E85E0308D05E0308A05E03084925000844
:10536000A05E0308BD580008B1550008A954000804
:10537000B95700082526000800220C490C4B2720AD
:10538000984703E700220B49094B26209847FDE682
:1053900000220949064B25209847F7E62B441520A3
:1053A0005A617EE65A6215207BE600BFB9560008B6
:1053B000E92A00089D5B0008C55A000807207047CD
:1053C0000720704707207047072070470720704765
:1053D00007207047072070472DE9F04182B04768E9
:1053E0002E4B054601A816460C4698474FEA071E65
:1053F000DFF8B0C0AEEB07030CEB830393F82C206F
:1054000072B36A68C2EB02120CEB820252693AB3C1
:1054100059699A6830688A1A824228BF0246326007
:1054200098685969884231D00025611EA84610E06D
:1054300011F8014FDA68186884545A69D3E90240B8
:10544000013001349042C3E9024001D1C3F80C801D
:105450003268954205F10105EAD35AB9002402E009
:1054600000230624336001A80D4B9847204602B064
:10547000BDE8F081AEEB070700240CEB870CDCF8ED
:105480002820136843F080031360ECE71A6B002AAE
:10549000E4D0986B042190470024E4E7692B0008CE
:1054A000752B0008082400203C4B70B5DD6982B0E4
:1054B00015F0280F24D1290601D402B070BD384C54
:1054C0006846384B9847D4F818319A6892054FD4FB
:1054D000D4F8F820002A3ED0D4F80001013AD4F8DC
:1054E0000451411CD4F8F060A942C4F80011305CAA
:1054F000C4F8F82002D10022C4F8002198622EE0FE
:10550000274C01A8274B9847D4F80821D4F8143128
:10551000D4F818119A42496A36D0D4F80C31D4F82C
:10552000F420581CC4F80C01D154D4F80831D4F834
:105530000C11D4F8142101339142C4F8083113D06E
:10554000D4F824311BB1D4F828010121984701A8CF
:10555000154B9847AFE71A6822F080021A60124B89
:105560006846984702B070BD0023C4F80C31E7E7E5
:105570000E4B01AA4FF0FF3100209847019B012BF1
:10558000EDD0D4F81831A3E7D4F82031002BDED0C9
:10559000D4F8280102219847D9E700BF0050004005
:1055A00008240020692B0008752B0008251B000823
:1055B0003C4B70B5DD6982B015F0280F24D1290667
:1055C00001D402B070BD384C6846384B9847D4F8C7
:1055D00054319A6892054FD4D4F83421002A3ED031
:1055E000D4F83C01013AD4F84051411CD4F82C6164
:1055F000A942C4F83C11305CC4F8342102D1002225
:10560000C4F83C2198622EE0274C01A8274B98470C
:10561000D4F84421D4F85031D4F854119A42496A4C
:1056200036D0D4F84831D4F83021581CC4F8480199
:10563000D154D4F84431D4F84811D4F8502101336E
:105640009142C4F8443113D0D4F860311BB1D4F87E
:1056500064010121984701A8154B9847AFE71A68E4
:1056600022F080021A60124B6846984702B070BD63
:105670000023C4F84831E7E70E4B01AA4FF0FF3191
:1056800000209847019B012BEDD0D4F85431A3E7BB
:10569000D4F85C31002BDED0D4F8640102219847A5
:1056A000D9E700BF0014014008240020692B00083E
:1056B000752B0008251B00083A4B70B5DD6982B0D8
:1056C00015F0280F23D1290601D402B070BD364C45
:1056D0006846364B9847D4F8A0309A6892054BD468
:1056E000D4F88020002A3AD0D4F88800013AD4F8BF
:1056F0008C50411CA66FA942C4F88810305CC4F8D5
:10570000802002D10022C4F8882098622BE0264C29
:1057100001A8264B9847D4F89020D4F89C30D4F8B0
:10572000A0109A42496A33D0D4F89430E26F581CE2
:10573000C4F89400D154D4F89C20D4E92431013326
:105740009142C4F8903013D0D4F8AC301BB1D4F8E7
:10575000B0000121984701A8154B9847B3E71A6894
:1057600022F080021A60124B6846984702B070BD62
:105770000023C4F89430E7E70E4B01AA4FF0FF3145
:1057800000209847019B012BEDD0D4F8A030A7E76B
:10579000D4F8A830002BDED0D4F8B000022198470E
:1057A000D9E700BF0048004008240020692B00080A
:1057B000752B0008251B00083B4B70B5DD6982B0D6
:1057C00015F0280F24D1290601D402B070BD374C42
:1057D0006846374B9847D4F8DC309A6892054DD428
:1057E000D4F8BC20002A3CD0D4F8C400013AD4F844
:1057F000C850411CD4F8B460A942C4F8C410305C4D
:10580000C4F8BC2002D10022C4F8C42098622CE065
:10581000264C01A8264B9847D4F8CC20D4F8D83091
:10582000D4F8DC109A42496A34D0D4F8D030D4F895
:10583000B820581CC4F8D000D154D4F8D820D4E9EA
:10584000333101339142C4F8CC3013D0D4F8E8306E
:105850001BB1D4F8EC000121984701A8154B9847DB
:10586000B1E71A6822F080021A60124B6846984726
:1058700002B070BD0023C4F8D030E7E70E4B01AA98
:105880004FF0FF3100209847019B012BEDD0D4F859
:10589000DC30A5E7D4F8E430002BDED0D4F8EC00FF
:1058A00002219847D9E700BF004C0040082400209F
:1058B000692B0008752B0008251B00083B4B70B5B1
:1058C000DD6982B015F0280F24D1290601D402B079
:1058D00070BD374C6846374B9847D4F890319A687A
:1058E00092054FD4D4F87021002A3ED0D4F8780124
:1058F000013AD4F87C51411CD4F86861A942C4F83B
:105900007811305CC4F8702102D10022C4F87821EB
:1059100098622EE0264C01A8264B9847D4F88021A7
:10592000D4F88C31D4F890119A42496A35D0D4F821
:105930008431D4F86C21581CC4F88401D154D4F8B3
:105940008031D4F88411D4F88C2101339142C4F809
:10595000803113D0D4F89C311BB1D4F8A0010121BF
:10596000984701A8144B9847AFE71A6822F08002C5
:105970001A60114B6846984702B070BD0023C4F806
:105980008431E7E700210D4B01AA08469847019BA7
:10599000012BEED0D4F89031A4E7D4F89831002B45
:1059A000DFD0D4F8A00102219847DAE70078004060
:1059B00008240020692B0008752B0008251B00080F
:1059C0003B4B70B5DD6982B015F0280F24D1290654
:1059D00001D402B070BD374C6846374B9847D4F8B5
:1059E000CC319A6892054FD4D4F8AC21002A3ED02D
:1059F000D4F8B401013AD4F8B851411CD4F8A461E8
:105A0000A942C4F8B411305CC4F8AC2102D1002220
:105A1000C4F8B42198622EE0264C01A8264B984782
:105A2000D4F8BC21D4F8C831D4F8CC119A42496AD0
:105A300035D0D4F8C031D4F8A821581CC4F8C0011E
:105A4000D154D4F8BC31D4F8C011D4F8C8210133F2
:105A50009142C4F8BC3113D0D4F8D8311BB1D4F87A
:105A6000DC010121984701A8144B9847AFE71A6859
:105A700022F080021A60114B6846984702B070BD50
:105A80000023C4F8C031E7E700210D4B01AA084606
:105A90009847019B012BEED0D4F8CC31A4E7D4F881
:105AA000D431002BDFD0D4F8DC0102219847DAE7AB
:105AB000007C004008240020692B0008752B00089A
:105AC000251B0008304B70B5DD6982B015F0280F3A
:105AD0001CD1290601D402B070BD2C4C68462C4B59
