:020000040800F2
:10000000F8FF0420C5010008D5010008D50100084B
:10001000D5010008D5010008D50100080000000046
:10002000000000000000000000000000D5010008F2
:10003000D501000800000000D5010008816E00080D
:10004000D5010008D5010008D5010008D501000838
:10005000D5010008D5010008D5010008D501000828
:10006000D5010008D5010008D5010008D501000818
:10007000D5010008D5010008D5010008D501000808
:10008000D5010008D5010008D5010008D5010008F8
:10009000D5010008D5010008D5010008D5010008E8
:1000A000D5010008D5010008D5010008D5010008D8
:1000B000D5010008D5010008D5010008D5010008C8
:1000C000D5010008D5010008D5010008D5010008B8
:1000D000D5010008D5010008D5010008D5010008A8
:1000E000D5010008D5010008D5010008D501000898
:1000F000D5010008D5010008D5010008D501000888
:10010000D5010008D5010008D5010008D501000877
:10011000D5010008D5010008D5010008D501000867
:10012000D5010008D5010008D5010008D501000857
:10013000D5010008D5010008D5010008D501000847
:10014000D5010008D5010008D5010008D501000837
:10015000D5010008D5010008D5010008D501000827
:10016000D5010008D5010008D5010008D501000817
:10017000D5010008D5010008D5010008D501000807
:10018000D5010008D5010008D5010008D5010008F7
:10019000D5010008D5010008D5010008D5010008E7
:1001A000D5010008D5010008D5010008D5010008D7
:1001B000D5010008D5010008D5010008D5010008C7
:1001C000D5010008DFF808D000F006F800F052BAB8
:1001D000F8FF0420FEE70000F0B4BFF34F8FBFF339
:1001E0006F8F5B480022C0F85022BFF34F8FBFF3E0
:1001F0006F8F436943F400334361BFF34F8FBFF305
:100200006F8FC0F88420BFF34F8FD0F8805043F633
:10021000E07CC5F3C906C5F34E35B7076D0105EAA5
:100220000C043946324644EA0103013A01F14041E7
:10023000C0F86032531CF6D1203D15F1200FEED1ED
:10024000BFF34F8F436943F480334361BFF34F8F54
:10025000BFF36F8FD0F888103E4B41F470011A46FF
:10026000C0F88810416921F008014161196841F026
:100270000101196013689907FCD500233549936083
:10028000136823F0A0631360136843F48033136092
:100290000B689A03FCD5304B1B68DBB2112B50D096
:1002A0002E4B40F205321A602A4B2D491A465960EE
:1002B000196841F08071196013689B01FCD594683E
:1002C00049F2024327482349204090609068034345
:1002D00093608B6803F00C03082BFAD100234FF4D2
:1002E00080104FF080544FF48042086310204B631D
:1002F0008B630C644A640B681B4A23F001030B6098
:100300000B6B43F00F030B630B6B03430B630B6B24
:1003100043F020030B630B6B43F040030B630B6B49
:1003200043F080030B630B6B43F480730B630B6B25
:1003300043F400730B630B6B43F48063F0BC0B63FB
:100340001047064A136843F005031360ACE700BF8B
:1003500000ED00E000380240002004E0003C0240D4
:10036000196C40090F03FFFF31070008012915D858
:100370000C4B01EB4101012003EB81011070D1E92D
:1003800001301844834203D30AE00433984207D96A
:1003900019680131F9D000201070704709207047AA
:1003A0000020704758760308012901D909207047B9
:1003B00001EB4101114B53F821300B2B1CD8104A93
:1003C0001169002930B412DB0D49DB0040F202252F
:1003D0000C4C0A461C431D430D610C610C61D36833
:1003E000DB03FCD44FF00043136130BC7047064C74
:1003F000064954605160E7E70320704758760308C8
:10040000003C02400202010023016745AB89EFCDA9
:100410008BB10A480844B0F5002F0AD20A44914231
:1004200005D2086804318A4243F8040BF9D8002049
:100430007047092070470220704700BF0000F8F79E
:10044000002B00F08F8048480844B0F5002F7FD281
:1004500000202DE9F043454EC6F88400BFF34F8FCE
:10046000706920F480307061BFF34F8FD6F8800040
:1004700043F6E078C0F3C90EC0F34E3C4FEA8E79E4
:100480004FEA4C1C0CEA08074D46744645EA070043
:10049000013C05F14045C6F87402601CF6D1ACF190
:1004A000200C1CF1200FEDD1BFF34F8FBFF36F8FE6
:1004B0002F480469002C4DDB0A442D4840F20124EA
:1004C0009142046112D21C1F54F8043F0D689D42F2
:1004D00009D00B60BFF34F8FC368DD03FCD40D68F8
:1004E00023689D423BD104318A42EDD8204A4FF027
:1004F00000411E4800231161C0F88430BFF34F8FC4
:10050000D0F8803043F6E07CC3F3C906C3F34E3322
:10051000B7075D0105EA0C043946324644EA010397
:10052000013A01F14041C0F86032531CF6D1203D40
:1005300015F1200FEED1BFF34F8F436943F48033A1
:100540004361BFF34F8FBFF36F8F0020BDE8F0838F
:1005500009207047074D084C45604460ACE708200F
:10056000BDE8F083022070470000F8F700ED00E0DE
:10057000003C024023016745AB89EFCD704700BFC7
:1005800070B52D4B04462D4D18600669A8470146ED
:100590002046B047A66AA8474FF0804142682046EF
:1005A000274DB0472669A84701462046B047A66AAE
:1005B000A847244942682046234DB0472669A847EA
:1005C00001462046B047A66AA8472049426820460F
:1005D0001F4DB0472669A84701462046B047A66A86
:1005E000A8471C4942682046B0471B4B25699847DD
:1005F00001462046A847194B2569984701462046E1
:10060000A847174B2569984701462046A847154B30
:100610002569984701462046A847134B2569984706
:1006200001462046A8472046104B98472046104BCD
:10063000BDE87040184700BFC0050020950A0008BB
:10064000F91F000801000040C542000804000040F6
:100650007532000803000040594C0008655D000831
:1006600065650008D57F0008FDA6000879690008C7
:100670007D050008F0B587B01C4B98471C4B03A9BB
:1006800002A898471B4B00241B4DDDE90201984747
:100690001A4A05A904A81A4B14609847194BDDE9BA
:1006A000040198470022184909231848A847184B05
:1006B0009847184B05469847174B064698470746F4
:1006C000164B9847314603463A462846144DA847EC
:1006D000012206A8134B00F8112D98479DF807102A
:1006E000114B12489847204607B0F0BD91690008A9
:1006F0007D69000815BE0008B9A90008C0050020E2
:10070000F96900083DBE0008EC7303080074030893
:1007100011250008D54D0008AD4F0008F16D000807
:1007200061BC0008116A00087DC600088105000848
:100730002DE9F041002388B03E4A042103931D4671
:100740000493804605933C4C0693079104F59877F3
:10075000136B3A4E43F0FC0313632279083454F8C8
:10076000080C03230221CDE900520022B047BC420D
:10077000F3D1304AB8F1100F936B43F00103936348
:1007800004D0B8F1200F01D0069501E0CDF8188013
:10079000079B06992A4A0B432A48114643F4CA5339
:1007A000136090608B6913F02003FBD13120264A3F
:1007B00008610593059B934205D8059B013305937A
:1007C000059B9342F9D91E498B699D06FCD43223BF
:1007D0001B4A0B6193699C06FCD440F21313184921
:1007E00013618B699806FCD4184B154A0B61936909
:1007F0009906FCD45369124943F4506353618B69E1
:100800009B06FCD4124A4FF0C0401249136843F4CF
:10081000806313600390039B8B4208D80E48039AB1
:10082000039B106004330393039B8B42F7D908B0FA
:10083000BDE8F0810038024010740308E93F000869
:10084000400100A0727422023F420F0034400400B5
:1008500000380140FF0F0060AA55AA5500280CBFC0
:1008600002200020704700BF1E4B585C10B40028C7
:1008700031D003F1120401E0A34228D013F8011F84
:100880008142F9D1A0F11004174B012CD96C5863A7
:1008900017D9154B9868194640F0804098600B684E
:1008A0009B07FCD5012C06D90F4B00205DF8044BAB
:1008B000DB6C136070470D494B6823F400034B60F9
:1008C000F2E70A494B6843F400034B60E1E7032079
:1008D0005DF8044B7047044B6FF00F04D96C5863FC
:1008E000D7E700BFA47503080022014000230140A0
:1008F000132070470C2070470020704740F6FF70AF
:10090000704700BF00207047002914BF042000205A
:10091000704700BFB1FA81F040097047F0B5414F10
:1009200083B07C5C122C49D80F2C0E4632D9002C97
:1009300064D03D4D3B4B01E09D4242D013F8012F66
:10094000A242F9D139494B6C13F480633CD1486C15
:100950000125374A0F2C40F48060DFF8ECC0486472
:1009600034483549CCF80430D36253609560D06088
:1009700011612BD8BC5D122C32D94FF0FF3000240E
:1009800003232E4D0194224600941946A847204681
:1009900003B0F0BD4CB13B4607F1120501E0AB429C
:1009A00017D013F8012FA242F9D1254A254B105D2B
:1009B00098470028BBD10C2003B0F0BD062003B03F
:1009C000F0BD032003B0F0BD0F2C09D9002003B007
:1009D000F0BD4FF0FF301B4B98470028AAD1EAE743
:1009E0004CB1104B03F1120101E09942C5D013F84C
:1009F000012FA242F9D1124B185DC0E70B4B5A6C84
:100A00005205F8D4596C0120094A41F480610E4D19
:100A100059640849084B6C60D46254609060D1609E
:100A20001361A7E7A4750308B675030800380240F0
:100A3000002201409224490292244912E93F000811
:100A4000907503080D3F00080023014008B50B4BCB
:100A5000595C0F290DD841B103F1120001E0834226
:100A600009D013F8012F8A42F9D1054B585C054B88
:100A70009847002008BD4FF0FF30F8E7A475030841
:100A8000907503083D3F000800280CBF022000209D
:100A9000704700BF2649002226484FF0804C264B65
:100AA0002DE9F041C86001272448254D08612548FB
:100AB0006E1C4A600022486106F1120422488B60D5
:100AC000002388612148DFF8B080C86120480862AF
:100AD00020484862204888622048C862204808634D
:100AE0002048486320480860C1612049876101604F
:100AF0001F4F2049C0F808C04160C0E9042315F821
:100B0000011F0F290BD839B1334601E0A3420BD0A6
:100B100013F8012F8A42F9D118F80100B847A5420D
:100B2000EDD11148BDE8F0814FF0FF30F6E700BF8E
:100B3000C4050020890A00085D0800081D09000896
:100B4000A37503084D0A0008690800080909000890
:100B50000509000815090008F9080008FD08000843
:100B6000F5080008F1080008000600204075030899
:100B70003D3F00085875030890750308436800203E
:100B8000034A03EB430302EB43131B6C0B607047F8
:100B900028060020032943680AD8064A012052F893
:100BA0002310054A03EB430302EB43131964704718
:100BB0000020F6E71076030828060020436800208E
:100BC000034A03EB430302EB43135B6C0B60704778
:100BD0002806002043680129054A4FF0010103EB74
:100BE000430314BF0420002002EB431359647047F1
:100BF000280600204368064A03EB430302EB431335
:100C00005B6B002B0B600CBF1A200020704700BFED
:100C10002806002043680020034A03EB430302EB4D
:100C200043131963704700BF280600204368002063
:100C3000034A03EB430302EB4313D962704700BF3F
:100C40002806002041680022044B01EB41011046B8
:100C500003EB4113C3E90D22DA6370472806002035
:100C600040680D4A0D4B10B40024A04218BF134633
:100C70000C709A68500102D49A68120105D50123BC
:100C800000205DF8044B0B7070479B68DB00F6D4C6
:100C900000205DF8044B704700680040006400408D
:100CA00010B4064B44680020054A844218BF13461E
:100CB0005DF8044B9B691B0E0B607047006400409D
:100CC0000068004030B400224568054C054B1046D2
:100CD000954218BF234630BC9B690A60704700BF2D
:100CE0000068004000640040014B00200B6070472A
:100CF00080F93703002848D02DE9F04F456883B0CC
:100D0000234E0446DFF89C9056F835B05846C84745
:100D1000002836D01F4F57F835804046C84780B36B
:100D20004FEAC50A4FF0010902235846564457447A
:100D30001946CDF8009096F804C00022164ECDF862
:100D400004C0B04702233F7940461946CDF80090D1
:100D500000220197B047002205EB45010F4E104BD2
:100D60001046490153F82550731874501D64DA6316
:100D70009A645A60C3E90D22C3E9022203B0BDE8B8
:100D8000F08F0C2003B0BDE8F08F0220704700BF49
:100D900000760308F0750308E93F000828060020E4
:100DA000107603080D3F00082DE9F047002856D0C3
:100DB0002C4B0321446818682B4E436A98472B4BF1
:100DC0008046002053F834703946B047054610B1CC
:100DD0002846BDE8F087264B53F834904946B04783
:100DE00005460028F4D13846DFF890A06700214E70
:100DF000D0474846D04707EB0409002C1E4A06EBB3
:100E000049190CBF6FF000716FF08061136C0B40DB
:100E1000D9F80810136429B1D8F81430404698471F
:100E2000C9F8085007EB040906EB4919D9F80C106A
:100E300031B1D8F81430404698470023C9F80C3037
:100E40003C4406EB441671680029C1D0D8F8143030
:100E500040469847002328467360BDE8F087022586
:100E6000B6E700BFC0050020593700080076030828
:100E7000F075030828060020003802403D3F0008B6
:100E80002DE9F047466882B0244D7700BC1905EB88
:100E90004414606B18B9002002B0BDE8F087984692
:100EA00001A81F4B91468A469847E06B236CC0EB24
:100EB000C0010130626889009842E06302EB010CD6
:100EC00001D10023E3633E44DCF808E09CF80C7099
:100ED00001A805EB4615134C6B6B013B6B63CAF81D
:100EE00000E089F800709CF80D60DCF81850DCF820
:100EF000103088F800600C9E35600B9D2B60DCF88C
:100F000014306B605258DCF804300A990A604B6068
:100F1000A047002002B0BDE8F08700BF28060020EF
:100F2000CD4E0008D94E00082DE9F04F4A4C074637
:100F300085B0994620688A469C000321436A15467D
:100F400098477B6806462146009303699847074601
:100F50002146336930469847804607B158B939462B
:100F60007369304698473046414673699847152063
:100F700005B0BDE8F08F51462246DFF8ECA03846B8
:100F8000D047224629464046D047B9F1010F51D9F2
:100F90003B1D08F1040B4FF0010CDA469E4601930D
:100FA00073465246614653E9015085420AD9146896
:100FB00001391D6052F8045C156043F8040D42F8D5
:100FC000044DF0D10CF1010C0AF1040A0EF1040EEB
:100FD000E145E5D1D8F800203B6893422FD87968E5
:100FE000D8F804308B422AD38A4228D201230199AF
:100FF0000AE0DBF804400BF1040B51F8042FA24285
:101000001DD8006882421AD9013358469C45F0D158
:10101000124B03A89847009A114B03A802EB420118
:10102000104A03EB4113C3F85C90C3E9157890476D
:1010300000209DE73A68D8F800309A42E8D939464E
:101040007369304698473046414673699847012096
:1010500005B0BDE8F08F00BFC0050020CD4E0008F0
:1010600028060020D94E00089B680308334B5A69B4
:10107000520723D4314B5A69110714D42F4B5A69A4
:10108000500526D42D4B5A69920547D42B4B5A69EB
:10109000110529D4294B5A6912042ED4274B5A69B9
:1010A000D10546D47047DA68D206E7D51020244A25
:1010B0000021D860D2F88C30106E1847DA6810071B
:1010C000D8D508201E4A0121D860D2F88C30106E85
:1010D00018479A695107D5D50420194A022158604A
:1010E000D2F88C30106E18479A6912F0700FD1D078
:1010F0000021042299615A6070475A685007CDD583
:101100000F4A0420032110B400249C61D2F88C40C3
:1011100058602346106E5DF8044B18479A69900793
:10112000B4D50420064A03215860D2F88C30106EE2
:1011300018479A69D207B5D5F3E700BF00680040A9
:1011400028060020304B5A69520722D42E4B5A6988
:10115000110714D42C4B5A69500524D42A4B5A69D0
:10116000920543D4284B5A69110526D4264B5A6957
:1011700012042BD4244B5A69D10541D47047DA6844
:10118000D206E7D51020214A0021D860D36A106822
:101190001847DA681007D9D508201C4A0121D86001
:1011A000D36A106818479A695107D7D50420174A9F
:1011B00002215860D36A106818479A6912F0700FBC
:1011C000D4D00021042299615A6070475A685007B0
:1011D000D0D50E4A0420032110B400249C61D46AA7
:1011E0005860234610685DF8044B18479A699007C9
:1011F000B8D50420054A03215860D36A10681847FF
:101200009A69D207BAD5F4E70064004028060020A6
:10121000AC4B5A692DE9F04F540781B000F1A28020
:10122000A84B5A6911071CD4A64B5A69570500F1FF
:10123000C080A44B5A69950500F12781A14B5A69DA
:10124000100500F105819F4B5A69110400F10C81D2
:101250009C4B5D6915F4807540F01F81AB469A4C3C
:101260000CE0DA68D206DFD51022974C0021DA6054
:101270004FF0010BD4F88C30206E98479149E26E04
:10128000D1F8B03103F004031372002B65D1D1F80B
:10129000B0315B0D13608B4BD3F8B01101F002013C
:1012A0005172D3F8B41101F00F019172D3F8B41157
:1012B000090AD174D3F8B811D172D3F8B811090A58
:1012C0001173D3F8B811090C5173D3F8B811090E82
:1012D0009173D3F8BC11D173D3F8BC11090A1174FE
:1012E000D3F8BC11090C5174D3F8BC11090E9174D8
:1012F000DA6842F02002DA60BBF1000F2AD1E76E13
:101300003B7AD7E90026ABBB1646D4F8BC20BAB36B
:10131000013AD4E92D0C00F1B180002103E0591C01
:10132000914200F3AB808B1848BF01335B105CF82F
:101330002350B542F3D350F823505A1EAE42EFD398
:10134000002BC0F29B80D4F8A030D4F89420033B4B
:101350009A423DD901B0BDE8F08FD1F8B031DB0839
:10136000536098E7DA6810077FF55AAF0822564CA9
:1013700001217CE7D4F8BC204FF0010B002AC7D133
:10138000D4F8B020002ADED0013AD4F8AC00E1D481
:10139000002102E0591C9142DCDC531848BF0133A4
:1013A0005B1050F82350AE42F4D880F086805A1E6D
:1013B000F1E79A6956077FF53CAF0422424C0221BF
:1013C0005A604FF0010BD4F88C30206E984755E7E7
:1013D000D4F898300020D4F864A0C3EBC30397F886
:1013E00009903A4A4FEA8308BF7A904702460B4673
:1013F00000203749C9F340098847D4F86CC00AEB8C
:1014000008034FF0000E4AF80800D4F89410D4F8FE
:1014100098209E60013183F80CB0013283F80D9062
:10142000C3F804E0DCF80B50D4F8A0001D61DCF830
:101430000F508242206EC3E90557D4F89030C4E9BA
:10144000251208BFC4F898E001B0BDE8F04F184776
:101450009A6912F0700F3FF4F6AE002504221A4C80
:101460009D61AB465A6009E75A6852077FF5F0AEB6
:1014700000200422144C03219861A1E7D4F8B02085
:10148000002A81D101B0BDE8F08F9A6994077FF5F9
:10149000D5AE04220C4C032192E79D6915F001059D
:1014A0003FF4DCAE084C042203214FF0000B5A60DD
:1014B000206ED4F88C309847E0E6002BBFF643AF9F
:1014C00048E700BF0068004028060020216B0008A4
:1014D0001D6A0008A44B5A692DE9F04F540781B0EA
:1014E00000F19E80A04B5A6911071CD49E4B5A698B
:1014F000570500F1B8809C4B5A69950500F1188199
:10150000994B5A69100500F1F780974B5A691104FD
:1015100000F1FE80944B5D6915F4807540F01081F8
:10152000AB46924C0BE0DA68D206DFD510228F4C26
:101530000021DA604FF0010BE36A206898478A497E
:10154000E268D1F8B03103F004031372002B62D1CA
:10155000D1F8B0315B0D1360834BD3F8B01101F0BB
:1015600002015172D3F8B41101F00F019172D3F856
:10157000B411090AD174D3F8B811D172D3F8B811E3
:10158000090A1173D3F8B811090C5173D3F8B811C3
:10159000090E9173D3F8BC11D173D3F8BC11090AA9
:1015A0001174D3F8BC11090C5174D3F8BC11090E95
:1015B0009174DA6842F02002DA60BBF1000F27D1A3
:1015C000E7683B7AD7E9002693BB1646E26DA2B3E3
:1015D000013AD4E9150C00F1A580002103E0591C63
:1015E000914200F39F808B1848BF01335B105CF879
:1015F0002350B542F3D350F823505A1EAE42EFD3D6
:10160000002BC0F28F80236C626B033B9A4238D967
:1016100001B0BDE8F08FD1F8B031DB0853609BE733
:10162000DA6810077FF55EAF0822504C012180E791
:10163000E26D4FF0010B002ACAD1226D002AE2D0E0
:10164000013AE06CE4D4002102E0591C9142DFDC55
:10165000531848BF01335B1050F82350AE42F4D802
:101660007DD25A1EF2E79A6956077FF544AF0422ED
:101670003E4C02215A604FF0010BE36A2068984704
:101680005DE7A36B0020D4F804A0C3EBC30397F875
:101690000990374A4FEA8308BF7A904702460B46C3
:1016A00000203449C9F3400988470AEB0803D4F8FD
:1016B0000CC04FF0000E4AF80800616BA26B9E60F0
:1016C000013183F80CB0013283F80D90C3F804E0C7
:1016D000DCF80B50206C1D61DCF80F508242206852
:1016E000C3E90557236BC4E90D1208BFC4F838E0FD
:1016F00001B0BDE8F04F18479A6912F0700F3FF43F
:1017000004AF00250422194C9D61AB465A6016E7D0
:101710005A6852077FF5FEAE00200422134C0321C5
:101720009861A7E7226D002A8AD101B0BDE8F08F49
:101730009A6994077FF5E4AE04220C4C032199E7E3
:101740009D6915F001053FF4EBAE084C042203211E
:101750004FF0000B5A602068E36A9847EFE6002BD1
:10176000BFF651AF54E700BF0064004028060020D8
:10177000216B00081D6A0008036823F0020330B4DF
:101780000360036843F001030360436813F001033F
:1017900008D14FF6FF7401E0A34203D04268013341
:1017A000D507F9D5436813F001035BD08B79012B82
:1017B00003680CBF43F0800323F080030360CB7900
:1017C000012B03680CBF43F0400323F04003036088
:1017D0000B7A012B03680CBF43F0200323F0200396
:1017E00003604B7A012B03680CBF43F0100323F016
:1017F000100303608B7A012B03680CBF43F00803CE
:1018000023F008030360CB7A012B03680CBF43F07D
:10181000040323F004030360CB788A781B060D7958
:101820004C7943EA82730A8843EA0543013A43EA62
:1018300004531343C361036823F001030360436847
:10184000D90709D500234FF6FF7101E0D20703D570
:10185000013342688B42F9D14068C04330BC00F08C
:1018600001007047184630BC704700BF374B01225B
:10187000817AF0B4D3F8004214438A40C3F800429E
:10188000D443D3F81C522540C3F81C52057B002DCD
:1018900044D1D3F80C6203EBC101B0F806C0264076
:1018A00045888788C3F80C6245EA0C450388C1F86F
:1018B000405243EA0743C1F84432C37A23493BBB51
:1018C000D1F804322340C1F804320389BBB91F4B5D
:1018D000D3F814120C40C3F81442437B012B05D1FA
:1018E0001A49D1F81C321A43C1F81C22174AD2F8FF
:1018F000003223F00103F0BCC2F800327047012B24
:10190000EBD11249D1F814321343C1F81432E4E791
:10191000D1F804321343C1F80432D6E7012DCCD1FB
:10192000D3F80C6203EBC101B0F800C01643458840
:101930008788C3F80C6245EA0C45C388C1F8405259
:1019400043EA0743C1F84432B7E700BF00640040F0
:101950002DE9F8434568002D40F0B380DFF8B881E9
:101960004FF47A72694E0023694C284675632F46FE
:10197000C6E90E55D8F8201041F00071C8F82010C3
:10198000A047D8F82020634C4FF0007322F000727B
:10199000C8F82020D8F8402013435F4A1364236816
:1019A00023F002032360236843F00103236063688C
:1019B00013F0010308D14FF6FF7101E08B4203D011
:1019C00062680133D207F9D56368D8076BD57B19F4
:1019D0007A1906EB431306EB42129B7D917C012B97
:1019E0002368107D0CBF43F0800323F08003236045
:1019F0007B1906EB4313DB7D012B23680CBF43F0FF
:101A0000400323F0400323607B1906EB43131B7E46
:101A1000012B23680CBF43F0200323F02003236035
:101A20007B1906EB43135B7E012B23680CBF43F04D
:101A3000100323F0100323607B1906EB43139B7EF6
:101A4000012B23680CBF43F0080323F00803236035
:101A50007B1906EB4313DB7E012B23680CBF43F09D
:101A6000040323F004032360D37C1B0643EA817341
:101A7000517D128A43EA0043013A43EA015313437A
:101A8000E361236823F0010323606368D90709D564
:101A900000234FF6FF7101E0D20703D501336268DE
:101AA0008B42F9D163683D441C4B06EB45101C305A
:101AB0009847626948F60E73002013436361BDE8DE
:101AC000F8836F00114EDFF85080002479194FF42D
:101AD0007A720023204606EB4111DFF83490C1E909
:101AE0000D44CC63D8F820100D4C41F08061C8F84B
:101AF0002010C847D8F820204FF0C06322F0806241
:101B0000C8F82020D8F8402046E700BF280600206B
:101B1000916B000800640040003802406D18000816
:101B2000006800402DE9F84F44689046704D03214D
:101B3000704F66002A689A466F4D536A1046002C13
:101B400014BFB946A94635196C4F9847834607EB31
:101B500045156B684BB9296C0369C1EBC10189005C
:101B600098476860002800F09480351907EB451508
:101B7000AB688BB9696C5846DBF8103001EB81011A
:101B800089009847A86038B958466968DBF814306E
:101B900098471520BDE8F88F351907EB4515EB6818
:101BA0009BB9DBF81030142158469847E86060B9BB
:101BB000DBF814305846A968984758466968DBF83E
:101BC000143098471520BDE8F88F4D4D296A002C38
:101BD0007CD141F00071002320464FF47A722962D3
:101BE000DFF848B1D8472B6A4FF0007023F000733C
:101BF0002B62296C0A9D08F1FF3326440B9A45EAB3
:101C000003430AF1FF3A4FEA4618013A43EA0A53FE
:101C1000014307EB08053A4843EA026300260164E2
:101C200008F11001C3F30342C3F3016EC3F3025C76
:101C3000AB64C3F309032A753944484685F813E0B9
:101C400085F815C02F4A2B82AE75EE752E766E760E
:101C5000AE76EE76AE749047F4B92B4A2B482C4BF7
:101C6000C7F82620BC842B4DC7E907449847224675
:101C700029491320A847224628491420A847D9F803
:101C8000142048F60E7300201343C9F81430BDE841
:101C9000F88F1520BDE8F88F08F11803204A08F1E5
:101CA0001C00B8443B441B4C3844191D5E60184B63
:101CB0004E60AE84C8F826209847324619493F2026
:101CC000A047324618494020A047D8E741F080613C
:101CD000002300204FF47A722962DFF850B0D84711
:101CE0002B6A4FF0C06023F080632B62296C81E780
:101CF000C005002000680040006400402806002065
:101D00000038024079170008000001014406002055
:101D10006D1800084D4E000845110008D514000844
:101D20000E0001016D10000811120008916B0008EF
:101D300038B53C4A3C4B002808BF13465A69540743
:101D400024D45A69120711D45A69540527D45A6900
:101D500092054AD45A6914052CD45A69110432D414
:101D60005A6912F480724BD1002038BDDA68D5066A
:101D7000EAD500EB40002D4A102400214001DC6030
:101D800013181058DB6A9847012038BDDA6811072C
:101D9000D7D500EB4000254A08240121EEE79A69D7
:101DA0005107D4D500EB40000424204A0221400111
:101DB0005C60E5E79A6912F0700FCED00020042233
:101DC00098615A6038BD5A685207C9D500EB400087
:101DD000164A002104254001996103211418105866
:101DE0005D60E36A9847012038BD9A699507B1D5CF
:101DF00000EB400004240D4A032140015C60BFE772
:101E00009A6912F001020BD000EB4000074A04244B
:101E1000032140015C6013181058DB6A9847A3E760
:101E2000104638BD006400400068004028060020CD
:101E30004068DFF8B8C12DE9F04147008846DFF877
:101E4000B0E13E18654C069D0CEB4616002818BF05
:101E50007446B1684B72B368002A00F09080042287
:101E60001A72B368C3F804803B18079A0CEB43134B
:101E700002F00F0299688A729A682968D1722A68FA
:101E80009968120A0A739A68698851739A68E9789E
:101E900091739A686968D1736A689968120A0A74BA
:101EA0009A68E9885174E9799A689174A2689E6881
:101EB000510105D4A3681A0171D50127394601E003
:101EC000002739463F01E319D3F8802102F00102CF
:101ED000C3F88021327A002A56D0756896F809C076
:101EE00042EAC502D3F8805142EA0C022A43C3F801
:101EF000802196F80AC027440022394D0CF00F0CBF
:101F000086F80AC0D3F884C12CF00F0CC3F884C142
:101F1000D3F884C196F80AE04EEA0C0EDFF8D4C07C
:101F2000C3F884E1D6F80BE0C7F888E1D6F80FE0F3
:101F30004FF6FF76C7F88CE1D3F880E1294F4EF0D9
:101F4000010EC3F880E10BE003EA0C03AB420FD0B3
:101F500063450DD0BB420BD0B24202F1010224D046
:101F60000129A3682FD00229EED03B40AB42EFD12C
:101F70004FF6FF739A4218D00020BDE8F0811A7224
:101F8000B368C3F800806FE796F809C03268D3F8E9
:101F900080514CEA42522A43C3F88021A9E7A36842
:101FA000DB000AD5022739468CE70129A3680CD04B
:101FB00002290ED043F08003A3600B4BC0B29847B8
:101FC0000820BDE8F0812B40C0E743F40043A36044
:101FD000F3E743F40003A360EFE700BF00640040B1
:101FE0000003000803000004311D0008280600203B
:101FF00000680040000003103B4B3C483C49DFF8C0
:102000002CC13C4A2DE9F04F586203F158093A4877
:102010004FF0000BDFF818814FF0010ADFF814E1F0
:10202000364F374E374D98623748384CC3F804B0B6
:10203000C3F85CA0DFF800B1DFF800A1C1F804909C
:10204000C3F80880DFF8F890C3F86080C3F80CE0AC
:10205000DFF8F080C3F864E0C3F810C0DFF8E8E010
:10206000C3F868C05F61DFF8E4C0DF669E61284F97
:102070001E67DD61274E5D67D862274D27480B60DC
:102080001A609A651C62C3E90C0BC3E90EA9C3E987
:10209000108EC3E912C7C3E91465D1611046134914
:1020A0009C67D9671449C3F8AC50C3F8801016492F
:1020B0001B4CC3F88410194914600024C3F888101D
:1020C0001849C3E923BAC3E92598C3E927ECC3E952
:1020D0002976154BC2E90131022393610023C2E93D
:1020E0000434BDE8F08F00BFE8060020150C00089E
:1020F00020060020980700202D0C0008311E000843
:10210000810E0008251B000835230008F50B000888
:10211000950B0008BD0B0008D50B0008290F00081F
:102120004075030801000040B87503085119000804
:10213000F50C0008A90D0008450C0008610C00080A
:10214000C50C0008A10C0008E90C00087D0B000874
:102150002DE9F047B2F101099E4602F0010A54BF91
:10216000CC4694464FEA6C0C614558DA0F466FF046
:1021700040487D1C6C0050F8353000EBC50604EB80
:10218000080550F82550AB420AD2013C50F82430E3
:10219000644500EB840640F8273005DA2746E8E777
:1021A000644540F82730F9DBBAF1000F21D0621EF8
:1021B00048BF22468C424FEA620215DD50F8227079
:1021C000BE4504D810E050F82570BE450CD9551E08
:1021D00040F8247000EB8206144648BF1546914231
:1021E0004FEA65052A46EEDBC6F800E0BDE8F08759
:1021F0000C46023A48BF4A46B4EB620F02D000EBED
:102200008406D4E7631C6FF040425B001A4450F828
:10221000222040F824205C1E00EB8406C7E7BAF1B8
:10222000000FE5D000EB8106DEE700BF0B1A402B64
:102230007BDD8C462DE9F043074683B09146002AAA
:1022400074D000F10408DB10786809F1FF395CF8FC
:10225000044C57F823103A68884221D2A1425DD33A
:10226000A04221D3C7E900025CF8042C454663462E
:102270002C462E4654F8041B81420FD39042A3F102
:10228000040303D253F8042D8242FBD89D4210D29E
:1022900044F8042C196053F8042C38682546E7E705
:1022A000A042DFD3A14239D23C604CF8042C3868FC
:1022B000DCE761464A462846FFF7B8FFEB1B402B98
:1022C00029DDAC46B9F1000FBDD19C10DFF860806C
:1022D000A51E6D1005F1010907EB890900E0013D1C
:1022E0004FF0000059F8043D224629468DF80000C1
:1022F0003846C047002DF2D156F8043D4FF0000596
:102300003A680021F41B38463260A2108DF8005064
:10231000C047042CF0DC03B0BDE8F083396047F817
:10232000232038685CF8042CA0E770470E46CCE701
:1023300051210008654B2DE9F04F4668940018685C
:1023400083B089460321436A1746984721460369AB
:102350009847002858D0054600EB04084946224615
:102360005B4B9847A8453ED0A21028464146594BA2
:10237000B2FA82F2C2F11F0252009847402C05F1D6
:10238000040045DC80452ED06FF00309DFF854A12E
:10239000A9EB05090EE0854208D005F1080309EB19
:1023A0000B022946A3EB0B031844D047D8452C60F9
:1023B000584618D083462B685BF8044B9C42EAD3FE
:1023C0005BF8083C021F9C427CD2594600E0024662
:1023D00041F8043D101F52F8043C9C42F7D3D84505
:1023E00014605846E6D13C4B01A898473B4B06EB9E
:1023F000460601A83A4A03EB4616C6E9135790472A
:10240000002003B0BDE8F08F152003B0BDE8F08FC9
:102410006FF0030A05F14004AAEB050A10E08542BB
:1024200009D005F1080C0AEB0B0229462D4BACEB49
:102430000B0C604498475C45C5F8009058461AD08C
:1024400083462A685BF8049B9145E8D35BF8082C27
:10245000011F914538D2584600E0614640F8042DEE
:10246000A1F1040C51F8042C9145F6D35C45C1F858
:1024700000905846E4D1A045B5D0A44605F13C0EE5
:10248000614672465CF8044B5EF8043B9C4214D2F1
:10249000614600E0024641F8043D101F52F8043C3A
:1024A0009C42F7D3E04514609DD0614672465CF8CB
:1024B000044B5EF8043B9C42EAD30A46E0451460B4
:1024C000F3D190E702468AE70146CFE7C005002036
:1024D0009B6803082D220008CD4E00082806002026
:1024E000D94E0008B1680308012300200B70704723
:1024F0000020704730B404480224044D08600020D6
:1025000015601C6030BC7047FC07002004080020E8
:10251000174B0020174A1849F0B4DA604FF0005406
:10252000164D0026164A00275860012099604FF486
:102530008021C3E90452134D134AC3E90652134ADA
:10254000134D1A601D62D361124B94601360124BDD
:10255000906110465360114C114D124BC2E9046753
:10256000114AC3E90011C4E90052F0BC704700BF32
:10257000D8070020F1240008E9240008110400080D
:1025800041040008A90300086D030008B8070020F3
:10259000F52400084075030818760308FC0700209E
:1025A000000008080408002000000C08034900206F
:1025B000034B4FF0C04208701A60704704090020B6
:1025C00028020020014B00201870704700090020ED
:1025D00004207047F0B41B4C00251B4824680D6094
:1025E0001460049902681A60002927D0174A4FF432
:1025F0007A73174E1268174D03FB02F337682D7874
:10260000154C1648164A174E4B60174B36682478FF
:10261000007812780D701D68144B4C701C78144BA8
:1026200088701868134B0A721A68134BCF601B68C6
:102630000C764B62C1E90465C1E907020820F0BCD1
:10264000704700BF24020020000200201402002076
:102650000C020020100200201102002002090020BC
:1026600001090020080200200402002003090020C4
:10267000200200201C0200201802002030B400209C
:102680000125034C08601D60146030BC704700BF1A
:10269000FC080020F0B4049C002932D11C4D1D48D8
:1026A0002A600360002C2FD0636808461A4A1B4D2D
:1026B000A2FB0323217867789B09A678184A2B6030
:1026C000184B11701F70217AE768174D174A184B85
:1026D0002E701F6026691170164D6169164A174BDE
:1026E00094F818C02E60E769154E116083F800C099
:1026F0001449154B3760D4E908520D601A60F0BCDC
:1027000070470420F0BC70472046F0BC704700BF03
:102710002402002000020020D34D62101402002089
:1027200010020020110200200209002001090020EF
:102730000C020020080200200402002003090020EF
:10274000200200201C02002018020020B24800785D
:102750002DE9F047099F002846D0B048B04D0678D3
:10276000B04CB1482D6800682468032E3CD8DFE8DF
:1027700006F07580B73E04FB00F25200002A1446B2
:10278000B8BFD41D534202F007024FEAE40403F03D
:10279000070358BF5A42002C0ADDE400A5F10803E4
:1027A0003E19F7E80201BE42E3E90201F9D12544EE
:1027B000002A19DD3B78012A2B7015D07B78022A7C
:1027C0006B7011D0BB78032AAB700DD0FB78042A54
:1027D000EB7009D03B79052A2B7105D07B79062A4D
:1027E0006B7101D0BB79AB710020BDE8F087A4EB21
:1027F000010901EB030C089904FB02FAA0EB0108A4
:10280000A9EB030101FB002089454FEA4000EBDD05
:10281000089B4FEA4808D618B242E5DA0AF1FF3EB3
:1028200008EB430802380EEB0C030CF1FF3C05EB00
:10283000000EA3EB0909D44489446146704613464F
:10284000013337F811502144B34220F8025FF7D129
:102850000CF1FF3CC644CC45EFD1C5E751EA020676
:1028600079D1834202D1089EA64284D04FF0000E57
:1028700072E0089EA0EB020C0B449619089A99424C
:10288000ACEB020EA0EB020806F1FF3600FB01E004
:1028900004FB06F64FEA4000A6DAF4454FEA480288
:1028A000A2DD314402381E44C4EBC474ACEB0E0309
:1028B00007EB410107EB460605EB0008640002EB5D
:1028C000430740460A4673460133158822449C4517
:1028D00020F8025FF8D10231B844B142F1D183E768
:1028E000089EA41AA0EB030E3244461A02F1FF39E7
:1028F000089AA6EB0308A4EB020C00FB091164453F
:102900000CFB0080194405EB40007FF76DAF464596
:102910004FEA4E037FF768AFA8EB060203EB4603CE
:10292000A6EB080607EB4105A2EB0E0EA3EB480849
:1029300077004FEA4E0EC61903462A4632F8021DAA
:1029400023F8021BB342F9D10CF1010C7544404449
:102950006445F0D148E79646089C02EB040CE64536
:10296000BFF642AF5B000EFB00F24000002B994621
:1029700003F00708B8BF03F107095C424FEAE90911
:1029800004F0070301EB8906114458BFC3F10008A6
:102990004FEAC90A1644C9EB497205EB410107EB3E
:1029A0004606D700B9F1000F0A4606EB070309DD1A
:1029B000A1F10802F3E80245B342E2E90245F9D188
:1029C0000AEB0102B8F1000F1FDD1C78B8F1010F0E
:1029D00014701AD05C78B8F1020F547015D09C783E
:1029E000B8F1030F947010D0DC78B8F1040FD470F4
:1029F0000BD01C79B8F1050F147106D05C79B8F1D1
:102A0000070F547101D19B7993710EF1010E0644A9
:102A10000144E645C6D1E7E600090020040900208C
:102A20002802002000020020240200202DE9F04F9F
:102A30009F4D85B09F4C4FF4003229680023002041
:102A40009D4F21F080519D4EDFF898B22960296892
:102A5000A0479B494FF4803200230020C5F888101E
:102A6000D5F88C1021F4403141F48031C5F88C1038
:102A7000296841F0805129602968A047696C0024C9
:102A8000904B41F080619048904A6964696C904D28
:102A900001F0806100682D68039100F1FF3A9969A7
:102AA00028448C4D21F0704C3968376800F1FF38AC
:102AB0004E1E2D683944884FDFF82CE228443F68C9
:102AC00001F1FF39DBF800B0136000955944DEF8DE
:102AD00000E0C3F818C007F1FF3C9D690EF1FF3E0E
:102AE0007E4F9D610CEB0005D3F808C08E44013881
:102AF00001390CEA070CC2F814A09661948682F89A
:102B00003640C2F81C800195D562C2E90890C2E93E
:102B10000144C2E90344C2F830E09162C3F808C03E
:102B2000D3F808C0009D46EA0C06C2F844B0D5634D
:102B30004FF0020C46EA0A46946314644FF0FF0A11
:102B400014659E60DE68C2F84CA03E40C2F848C0E2
:102B5000009DDE60DE6849EA0609614E49EA0848E0
:102B6000DFF88891C3F80C80D3F810C0DFF88081BB
:102B70000CEA070CC3F810C0D3F810C041EA0C01EE
:102B800041EA00404FF0C0411861586938406F0079
:102B900058610337586947EA454700954EEA000EE9
:102BA000019D05204EEA054E0125C3F814E0D3F837
:102BB0002CC00CF07F4CC3F82CC0D3F82CC0C3F849
:102BC0002CC0D3F834C04CF0040CC3F834C0D3F894
:102BD00034C04CF0020CC3F834C0D3F818C04CF029
:102BE000010CC3F818C05D624FF480655565D3F8D9
:102BF0000CC0D6F804E0009DCCF30B4C0EF4704EE4
:102C0000C2F864B015666544A2F86840C6F804E0EE
:102C1000D3F80CC082F86A40CCF30B4CDFF8D4E058
:102C2000C2E91601012084444CEA05457560DD685F
:102C3000B268C5F30A0502F470425D44B260DA6816
:102C4000C2F30A02024442EA0542B260326922F04B
:102C50000702326102223261B269B461B461726901
:102C600022F0FF027261C6F814A0F26902EA0909B3
:102C700040F20542C6F81C90F261B26AB462B162D9
:102C8000F26A02F0E022F262F762326B02EA0808AE
:102C9000C6F83080C6F830B03268024332605862FD
:102CA0004FF001038EF8003005B0BDE8F08F00BF93
:102CB00000380240916B000820020020180200201A
:102CC0000030035F006801400C0200205C08002017
:102CD00004020020240200200802002000F800F076
:102CE00084680140000200201C020020F8F8FFFF69
:102CF00000F8FFFF00090020BC4B1B7813B30C2821
:102D00002DE9F04F95B07FD00D2800F08581B84AAD
:102D10000A281368019316D1013300211846B54BD8
:102D20001F280293196000F2E881B34C1060B34B86
:102D300004442022034404F8202BA342FBD115B005
:102D4000BDE8F08F70474FEAC308AD4AA94B00EBCE
:102D5000800B146808F1020719680022029308F139
:102D60000103129101EB410105934FEA440904FB71
:102D700008F34900DFF89CA21E19CB180697A51985
:102D800011938E19139063194D1910960F9508F130
:102D90000305079508F104050395E518CB180E9374
:102DA00008F10603089308F10703049305EB0903F0
:102DB0004D1904EB030ECB180D9508F105050C9386
:102DC00001EB0E078F4B09951E68AEEB09038E4D84
:102DD00040F6FF790B440B97D5F800C00AEB0B05C2
:102DE00093468A460A9315F8013B0AEB020013F05A
:102DF000010E33D1844234D9E04580F01981119914
:102E0000114426F811E013E17D4B7F4A1B681468DA
:102E100004FB03F463000BD0A40000214FF0C0407A
:102E20007A4D2246A847224600214FF0C040A847CD
:102E3000774800236E4D4FF031316E4A00F1200487
:102E40002B60136000F50A62034643F8201C203310
:102E50009342FAD104308442F4D170E7844200F204
:102E6000E180990740F1E680844200F23B815F07F0
:102E700040F1EC80844200F22D81190740F1F2808C
:102E8000844200F21F81DF0603F020010DD484424A
:102E90000BD9039F674504D20D9F07EB020E26F85E
:102EA0001EB0002940F0FC8002E0002940F0F680CE
:102EB000844240F2898009998C4503D90A995118B6
:102EC00026F811B0590640F1F480844240F2818026
:102ED00008998C4503D90C99114426F81190DB0907
:102EE00079D10499614503D20B99114426F8113028
:102EF0000132052A7FF477AF414B5146414C1A68A5
:102F00000531414B914213981B6824683ED2984585
:102F100004D202FB0818002524F81850059DAB4286
:102F200004D905FB0215002624F81560069DAB4266
:102F300004D905FB0215002624F81560079DAB4255
:102F400004D905FB0215002624F81560039D9D4257
:102F500004D202FB0515002624F81560099DAB423A
:102F600004D905FB0215002624F81560089DAB4224
:102F700004D905FB0215002624F81560049D9D4226
:102F800004D202FB0511002524F8115012991A4CA5
:102F90004D1C019E04EB4111442D885540F2AA803E
:102FA00030460021029D013029601F2800F2D180A7
:102FB00004F50C630E49044420220344086004F81D
:102FC000202B9C42FBD1BAE65F063FF57EAF8442E0
:102FD0006FD8DB098CD084428AD9049B634587D2A1
:102FE0000B9B134426F8139082E700BF00090020D2
:102FF000CC110020C811002008090020A8110020D1
:10300000240200202802002000020020E3680308B8
:1030100028090020AC7603085F4B00221A6015B027
:10302000BDE8F08FE04503D21199114426F81190C4
:10303000990757D484427FF61AAF05998C4503D976
:103040001099114426F811B05F0743D484427FF6EB
:1030500014AF06998C4503D90F99114426F811B085
:1030600019072FD484427FF60EAF07998C4503D9F8
:103070000E99114426F811B0DF0603F020017FF508
:1030800006AF039F674506D20D9F07EB020E26F899
:103090001E9029B90CE700293FF40DAF844293D963
:1030A00009998C457FF60EAF0A99511826F81190B0
:1030B00008E708998C457FF612AF0C99114426F861
:1030C00011B00CE707998C45D6D90E99114426F812
:1030D0001190D1E706998C45C2D90F99114426F871
:1030E0001190BDE705998C45AED91099114426F889
:1030F0001190A9E7029B1D6021E6284B1F20284A5A
:103100001B681268274C02FB03F22060530004D0B6
:1031100092004FF0C040244B9847244E0023214A90
:10312000741E1360A046029A04F120091360002562
:10313000705D08F805002035FFF7DEFDB5F50A6F74
:10314000F6D1013608F101084E45F0D1154B18684B
:10315000EDE503FB02F213481F230360530004D084
:1031600092004FF0C040104B9847104D00230D4A7D
:103170006E1E136006F12007029A13600024285D7A
:1031800030552034FFF7B8FDB4F50A6FF7D101359B
:103190000136BD42F2D1D2E5C81100202402002040
:1031A00000020020CC110020E36803080909002078
:1031B0005AB170B58D184C1E054E013D14F8010F23
:1031C000B047AC42FAD1002070BD0020704700BF6C
:1031D000F92C0008F0B51B4C83B000261A4D04F101
:1031E000E0072279083454F8080C03230221CDE9C2
:1031F00000620022A847A742F3D1144B1978A9B95D
:103200000A4601910091032302218C20104EA84709
:10321000002403230121A320224601940094A847FF
:103220000121A320B047012003B0F0BD0196032384
:103230000096002201218C20A847054E01218C20F8
:10324000B047E5E734790308E93F000810020020A1
:10325000B940000808B5054B984720B1044B984782
:1032600008B1002008BD082008BD00BFD531000806
:103270002D2A0008134B00201349144A70B4C3E9E7
:10328000010113490024DA600025124A012659621F
:1032900011499A629961114A11495A611961114A99
:1032A0001149DA611962114A11491A601046D36155
:1032B0001160104B10499661C2E90445C2E901133F
:1032C00070BC704730080020AD250008C5250008F7
:1032D00055320008D125000895260008D52500089C
:1032E0007D2600084D270008B13100081008002095
:1032F000407503080300004070760308014B53F843
:1033000021007047BC140020B02070470023064AFB
:1033100010B552F821201846044CA047044C0A224C
:103320000023A04710BD00BF7C1700201D6A0008C5
:10333000A16403082DE9F0470F2782B090460C11D5
:1033400001EA0706012501A8374AB3008946B540BE
:103350004FEA960A03F00C039F409C409047B8F157
:10336000000F48D0314A02EB8A0293683B40A342E7
:1033700008D02F4B1B682B4247D1936823EA0703E1
:10338000234393602B49760100232B4C8F192B4A42
:10339000184601F8069052F829203C6128498847D0
:1033A000284C0A220023A047274B78600020C7F84A
:1033B0001480EC4398471E4AC7E9020190682146F1
:1033C000134620409060D0680140D160D168294305
:1033D000D1609168294391605D6158692840FBD1B3
:1033E0001A68044615431D6001A8184B98472046EB
:1033F00002B0BDE8F0870AF102020C4B53F822300C
:103400001F40A74203D04446EEE70C24ECE70849EE
:103410004446084B0A6803EB461622EA05050D6090
:10342000C6F81480E0E700BFCD4E00080038014028
:10343000003C0140D0110020D01300207C17002058
:103440001D6A0008A1640308216B0008D94E00081A
:10345000A1F1FF30B0FA80F04009AF29C8BF40F0B9
:10346000010018B9032A98BF012070470020704757
:1034700030B583B00C460B4B01A89847AF2C0EDC3F
:10348000631C0CD0084B1D5D3DB901221A5501A8E3
:10349000064B9847284603B030BD0C25F7E70325B7
:1034A000F5E700BFCD4E00080C140020D94E0008EF
:1034B000AF2915DCA1F1FF30B0FA80F0400978B9EE
:1034C000012330B40D1101F00F01064C9A4203FAAA
:1034D00001F104EB852418BF0904A16130BC7047D9
:1034E0000320704700000240AF2915DCA1F1FF3036
:1034F000B0FA80F0400978B9084B10B40C1101F013
:103500000F0103EB84235DF8044B1B6923FA01F1DF
:1035100001F0010111607047032070470000024074
:10352000AF2938B51ADCA1F1FF34B4FA84F4640988
:10353000A4B9501E42F20E7398420CD842F2107396
:103540000D462046074982FB03238847064B43F874
:103550002500204638BD0F24204638BD03242046D0
:1035600038BD00BF516A00087C170020344B2DE99C
:10357000F04F5C6999461B6883B00A26314D1C40A8
:10358000DFF8DC80304FC4F3852405E0640806F1E1
:10359000010605F1200525D0E307F7D56846C047A9
:1035A00001A8B84795F840210123AF2A03FA06F392
:1035B0001BDDC9F81430D5F854314BB1D5F844218E
:1035C0000ABBD5F8582195F84011D5F85001984715
:1035D0001E4B01A8984768461D4B01369847203579
:1035E0006408D9D103B0BDE8F08F1011194902F079
:1035F0000F0201EB8021096921FA02F202F00102B7
:10360000C5F85821D5E705F5A47A134B0020984753
:10361000124B95F84021DAE900BC53F82220002330
:10362000B0EB0B0B61EB0C0C9C4508BF9345CFD363
:10363000094B00209847CAE90001D5F85431C0E78A
:10364000003C0140D0110020CD4E0008D94E0008AA
:10365000B94E000800000240216B00087C170020D2
:10366000A54E0008334B2DE9F04F5C6999461B6865
:1036700083B00526304D1C40DFF8D4802F4FC4F3B3
:10368000441405E0640806F1010605F1200525D083
:10369000E307F7D56846C04701A8B84795F8A020CA
:1036A0000123AF2A03FA06F31BDDC9F81430D5F85D
:1036B000B4304BB1D5F8A4200ABBD5F8B82095F8A2
:1036C000A010D5F8B00098471D4B01A89847684650
:1036D0001C4B0136984720356408D9D103B0BDE8AA
:1036E000F08F1011184902F00F0201EB80210969D7
:1036F00021FA02F202F00102C5F8B820D5E7002055
:10370000DFF850A0D047114B95F8A020D5E92ABC8E
:1037100053F822200023B0EB0B0B61EB0C0C9C4503
:1037200008BF9345D0D30020D047D5F8B430C5E9C1
:103730002A01C2E7003C0140D0110020CD4E000814
:10374000D94E0008B94E0008000002407C17002046
:10375000A54E0008216B00082DE9F04182B00D460E
:103760002A4E6846B047AF2D47DCA5F1FF34B4FAC6
:1037700084F46409002C40D105F00F07244A2B1172
:1037800001A854559D02DFF89080B04703227B00CA
:1037900055F808604FEAE70E01A89A4005EB0803C8
:1037A000D14306EA010C03EB8E064FEA870E45F87B
:1037B00008C0D3F80CC00EF01C054FF00F0E01EA44
:1037C0000C0C0EFA05FEC3F80CC04FF0010C9D68FE
:1037D0000CFA07FC29400F4D11439960326A22EA26
:1037E0000E0232625F6827EA0C075F60A8476846EE
:1037F000A847204602B0BDE8F0810324054D684685
:10380000A847204602B0BDE8F08100BFCD4E0008B9
:103810000C140020D94E0008000002402DE9F048A9
:1038200082B0214B214C68469847214B01A898470C
:103830002378AF2B13DD1F4A0121656951612DB13A
:103840006268CAB91946A2692069A84701A81A4B3B
:1038500098471A4B6846984702B0BDE8F08819119E
:10386000174803F00F0200EB8121096921FA02F2E7
:1038700002F00102A261DEE70020124DA847124BC0
:103880002278D4E9026753F822200023861B61EBDB
:1038900007079F4208BF9642D8D30020A847656912
:1038A0002378C4E90201CDE7A54E0008D01100201D
:1038B000CD4E0008003C0140D94E0008B94E00082A
:1038C00000000240216B00087C1700202DE9F04821
:1038D00082B0234B234C68469847234B01A8984756
:1038E00094F82030AF2B13DD204A0221656B516123
:1038F0002DB1626ACAB91946A26B206BA84701A80C
:103900001B4B98471B4B6846984702B0BDE8F088B0
:103910001911194803F00F0200EB8121096921FAFE
:1039200002F202F00102A263DEE70020134DA84775
:10393000134B94F82020D4E90A6753F8222000237F
:10394000861B61EB07079F4208BF9642D7D3002032
:10395000A847656B94F82030C4E90A01CBE700BFA3
:10396000A54E0008D0110020CD4E0008003C0140BB
:10397000D94E0008B94E000800000240216B000833
:103980007C1700202DE9F04882B0264B264C684673
:103990009847264B01A8984794F88030AF2B17DD45
:1039A000234A1021D4F89450516145B1D4F88420B1
:1039B000E2B91946D4F89820D4F89000A84701A895
:1039C0001C4B98471C4B6846984702B0BDE8F088EE
:1039D00019111A4803F00F0200EB8121096921FA3D
:1039E00002F202F00102C4F89820D9E70020144D39
:1039F000A847144B94F88020D4E9226753F822207A
:103A00000023861B61EB07079F4208BF9642D6D36F
:103A10000020A847D4F8945094F88030C4E92201DB
:103A2000C7E700BFA54E0008D0110020CD4E00080A
:103A3000003C0140D94E0008B94E00080000024089
:103A4000216B00087C1700202DE9F04882B0234B41
:103A5000234C68469847234B01A8984794F8403078
:103A6000AF2B13DD204A0421656D51612DB1626CCD
:103A7000CAB91946A26D206DA84701A81B4B9847EB
:103A80001B4B6846984702B0BDE8F08819111948E9
:103A900003F00F0200EB8121096921FA02F202F022
:103AA0000102A265DEE70020134DA847134B94F8EE
:103AB0004020D4E9126753F822200023861B61EBD3
:103AC00007079F4208BF9642D7D30020A847656DDD
:103AD00094F84030C4E91201CBE700BFA54E0008BE
:103AE000D0110020CD4E0008003C0140D94E000806
:103AF000B94E000800000240216B00087C1700202E
:103B00002DE9F04882B0234B234C68469847234B5D
:103B100001A8984794F86030AF2B13DD204A0821A4
:103B2000656F51612DB1626ECAB91946A26F206FDF
:103B3000A84701A81B4B98471B4B6846984702B003
:103B4000BDE8F0881911194803F00F0200EB81213C
:103B5000096921FA02F202F00102A267DEE7002001
:103B6000134DA847134B94F86020D4E91A6753F813
:103B700022200023861B61EB07079F4208BF964265
:103B8000D7D30020A847656F94F86030C4E91A01C4
:103B9000CBE700BFA54E0008D0110020CD4E000895
:103BA000003C0140D94E0008B94E00080000024018
:103BB000216B00087C170020AF2911DC4B1C0FD0B3
:103BC0002DE9F04F154683B00C46052A00F293818B
:103BD000DFE812F04E008C00CC000D01520108000D
:103BE0000320704701F00F06C44B01A80F114FEAE4
:103BF0004608DFF814A398470322BF024FF0010ED6
:103C000002FA08F201A857F80AB00EFA08FCD143EC
:103C100007EB0A030EFA06FE4FEAE6080BEA010B71
:103C2000B60003EB88084BEA0C0B06F01C0947F8BA
:103C30000AB00F27DE6807FA09F9B14F0E4046EACD
:103C40000C06DE609E68314011439960D8F8206010
:103C500026EA0906C8F820605A6822EA0E025A606D
:103C6000B847A84B002043F8245003B0BDE8F08FBC
:103C700001F00F08A14B01A80E114FEA480ADFF826
:103C8000889298470323B60201A803FA0AF14FEA83
:103C9000E80E56F8097006EB0902CB4307EA030C5D
:103CA00002EB8E0746F809C04FEA880CD2F80CE008
:103CB0000CF01C064FF00F0C03EA0E0E0CFA06FC7B
:103CC0000126C2F80CE0D2F808E006FA08F88C4E9B
:103CD00003EA0E030B4393603B6A23EA0C033B6247
:103CE000536823EA08035360B047BAE701F00F06B0
:103CF000824B01A80F114FEA4609DFF80C82984762
:103D00000323BF02012103FA09FE4FEAE60C57F82C
:103D100008A001FA09F36FEA0E0907EB0802B140A7
:103D2000B6000AEA090A02EB8C0C06F01C0601A890
:103D300043EA0A0347F808300F23D76803FA06F866
:103D40006F4E09EA0707D760936809EA03034EEA52
:103D500003039360DCF8203023EA0803CCF820301A
:103D6000536823EA01015160B0477AE701F00F067A
:103D7000624B01A80F114FEA4608DFF88C91984773
:103D80000323BF024FF0010C03FA08F101A857F812
:103D900009E007EB0902CB430CFA08F80CFA06FC21
:103DA0000EEA030E47F809E0F710D2F80CE0B6006F
:103DB00002EB870703EA0E0E06F01C0648EA0E081F
:103DC0004FF00F0EC2F80C800EFA06FED2F80880F3
:103DD0004B4E03EA08030B4393603B6A23EA0E034E
:103DE0003B62536823EA0C035360B04739E701F0A4
:103DF0000F07424B01A80E114FEA4708DFF8089160
:103E000098470322B6024FF0020E02FA08F101A809
:103E100056F809C006EB0903CA430EFA08F807FA78
:103E20000EFE0CEA020C46F809C0FE10D3F80C9006
:103E30000EF01C0C03EB86064FF00F0E02EA090988
:103E40000EFA0CFE4FF0010C48EA09080CFA07FCC8
:103E5000C3F80C80D3F8088002EA0802DFF8A080DB
:103E60000A439A60326A22EA0E0232625F6827EAE7
:103E70000C075F60C047F4E601F00F061F4B01A876
:103E80004FEA21197700DFF880A0984703234FEA13
:103E900089294FF0010C03FA07F84FEAE60E59F8AA
:103EA0000A100CFA07F26FEA080309EB0A070CFA8A
:103EB00006FCB600194007EB8E0E06F01C0601A8A2
:103EC00011430F2249F80A1002FA06F9F9680C4E5C
:103ED0001940F960BA68134048EA0303BB60DEF892
:103EE000202022EA0902CEF820207B684CEA030356
:103EF0007B60B047B5E60420B7E600BFCD4E0008B2
:103F0000D94E0008BC14002000000240A0F1FF338D
:103F10000246B3FA83F35B09AF28D4BF184643F0D7
:103F2000010030B904498B5C23B901238B54184636
:103F300070470020704700BF0C140020AF2848DCF9
:103F4000A0F1FF32B2FA82F25209002A41D10346AF
:103F500021492DE9F04182B000F00F051F4E0411F8
:103F600001A84FEA4508F25488470322A4021C4FD7
:103F70004FEAE50E02FA08F201A8E659E319D14327
:103F8000DFF8608006EA010C03EB8E0644F807C0F8
:103F9000AF00D3F80CC007F01C040F2701EA0C0C8B
:103FA000A7400124C3F80CC0D3F808C004FA05F5F3
:103FB00001EA0C0111439960326A22EA0702326277
:103FC0005A6822EA05055D60C047204602B0BDE898
:103FD000F0810020704700BFCD4E00080C14002077
:103FE00000000240D94E00082DE9F04FAF2885B0FF
:103FF0009DF838A09DF83C6050DC441C4ED000F089
:104000000F054FF0010C1F46914605FA0CF2041102
:10401000264B03A801FA02F80AFA02FA9740009226
:104020000CFA05F2A4024FEA850B0192984703238C
:10403000009A1F490BF01C0B03FA02F21D41635852
:104040000F20D24306FA0BF600FA0BFB6018134060
:10405000B9F1010F00EB850543EA08036350C3681B
:1040600003EA020343EA0A03C360836802EA030225
:1040700047EA020787602B6A23EA0B0B4BEA060329
:104080002B6243680ED0019A23EA0206466003A819
:10409000084B9847012005B0BDE8F08F002005B01F
:1040A000BDE8F08F019E1E434660F0E7CD4E00084C
:1040B00000000240D94E000810B4074A0411012341
:1040C00000F00F0002EB842203FA00F001B90004B3
:1040D00090615DF8044B7047000002402DE9F04FFD
:1040E000654E89B04FF00009DFF8CCB1DFF8CCA104
:1040F00007E009F101090AF1070AB9F1B00F00F070
:104100009380002509F00F045C4A0023284606F836
:10411000015F5B4988475B4FA2084BF8040FA10081
:104120000F23901C4FEA191201F00C0157F82000E0
:104130008B408A4003409A420AD153480121534B95
:104140000268A14003EB441322EA010202605D61B0
:104150009AF80630002BCCD0A1004FF0010C9AF851
:1041600004E007A801F01C0104FA0CF59AF80370AA
:104170004FEA29180EFA01FE9AF8022005910CFA6E
:1041800004F1AA40AF4000914FEA88289AF8011044
:104190003F4BCDF808E0039704929AF80070019124
:1041A00098470323DFF818C107FA05F205991C4167
:1041B000AB4058F80C0008EB0C05DB434FF00F0E3A
:1041C00005EB840418400EFA01F1104348F80C0086
:1041D000EA6803981A40024307A8EA60AA681340F5
:1041E000049A1343009AAB60236A23EA0101029BFD
:1041F0001943216201996B6801290CBF1343934352
:104200006B60244B9847012F7FF473AF9AF8053009
:10421000002B2CD009F10109009B0AF1070AB9F122
:10422000B00FAB617FF46DAF174B00241A4D062021
:104230001C6022461949A847224619490720A84769
:10424000224618490820A847224617490920A847AE
:10425000224616490A20A847224615491720A84792
:10426000224614492820A84709B0BDE8F08F009BDA
:104270001B04AB613DE700BF0B140020400D0300A1
:10428000516A000800380140003C0140D011002074
:10429000CD4E0008D94E00084D4E00081D380008CC
:1042A000CD380008493A0008013B0008853900086C
:1042B000653600086D350008781700204C7A030831
:1042C0000000024070B5184B0026184D0020184C15
:1042D00000210122DC60174CC3E90165164D5C61C9
:1042E0001D61164D164C9D61164DDC61164C1D620C
:1042F000164D5C62164C9D62164DDC62164C1D63B9
:10430000164D5C63164C9D63164D1C60E361164BA5
:104310002560164D6360164BA560A261C4E90401D7
:104320009847204670BD00BFD01300207543000899
:10433000854300085937000871340008E934000843
:10434000B134000851340008FD320008B93B0008C0
:104350000D33000821350008353300080933000803
:10436000401A002040750308147A03080400004036
:10437000DD40000808B5024B9847002008BD00BF8B
:10438000DD40000808B5024B9847002008BD00BF7B
:10439000DD400008012A436830B40ED052B9084D00
:1043A00003EB4303074A00209B00D418D1506560FB
:1043B00030BC7047042030BC7047034DF0E700BFAD
:1043C00021172080881A0020591BB000002832D005
:1043D0002DE9F047446882B03C4D3D4E55F83470AD
:1043E0003846B04718B3DFF8188158F8349048467B
:1043F000B047E0B14FEAC40A0126384603235544CA
:10440000D044324600962F790221324D0197A847B9
:104410000096324698F8046003234846022101962C
:10442000A847032C19D8DFE804F0402F1E080C2001
:1044300002B0BDE8F08702207047274B4FF080762E
:10444000002226491C6C5F20254D34431C641E62EB
:10445000A847002223496020A84700201E4B18626D
:1044600002B0BDE8F0871C4B4FF4000600221E4945
:104470001C6C48201A4D34431C641E62A84700225D
:104480001A494920A847E8E7134B4FF48006002259
:1044900017491C6C2120124D34431C641E62A8472E
:1044A000002214492220A847D7E70B4B4FF40016EF
:1044B000002211491C6C1F20094D34431C641E62EC
:1044C000A84700220D492020A847C6E75C7F0308C3
:1044D0000D3F0008E93F000800380240B94B0008D2
:1044E0004D4E0008C1450008794A00088D46000875
:1044F000D949000849460008194B0008054600083C
:10450000547F030800284DD038B54468032C11D8D7
:10451000DFE804F01B2A3902234D5F20A847602002
:10452000A847224B224A0021DB681960136C23F054
:10453000807313641F4B204D53F83400A8471F4B62
:1045400053F83400A847002038BD174D1F20A84756
:104550002020A847154B164A00211B681960136CD0
:1045600023F400131364E5E70F4D2120A847222010
:10457000A8470E4B0E4A00215B681960136C23F4A8
:1045800080031364D6E7084D4820A8474920A84770
:10459000064B074A00219B681960136C23F4000343
:1045A0001364C7E702207047854E0008841A002074
:1045B000003802405C7F03083D3F0008547F030839
:1045C00030B583B00B4B01A898470B4B0B494FF408
:1045D0005052DB68C968DA6109B102220A611A68BF
:1045E0000125074C01A822F096021A608D70A047A1
:1045F00003B030BDA54E0008841A0020BC1A00206C
:10460000B94E000830B583B00B4B01A898470B4B4F
:104610000B494FF450521B680968DA6109B1022254
:104620000A611A680125074C01A822F096021A6057
:104630008D70A04703B030BDA54E0008841A00203D
:10464000BC1A0020B94E000830B583B00B4B01A84E
:1046500098470B4B0B494FF450525B684968DA613D
:1046600009B102220A611A680125074C01A822F04B
:1046700096021A608D70A04703B030BDA54E0008A9
:10468000841A0020BC1A0020B94E000830B583B04F
:104690000B4B01A898470B4B0B494FF450529B68AA
:1046A0008968DA6109B102220A611A680125074C9A
:1046B00001A822F096021A608D70A04703B030BDA9
:1046C000A54E0008841A0020BC1A0020B94E00082C
:1046D0002DE9F8434568904631484FF0010C05EB51
:1046E0008502994605EB45062E4F9300DFF8C8E09A
:1046F000B60000F803C00344BC195EF825205960D9
:104700000020D8F80010D4F804C04FF4FA6499607F
:10471000090498705870D86001F47F00C2F810C086
:1047200057F806C01168204E41F001074FEA4C01CE
:1047300046F825301D4BC1F30901176003431C4F98
:10474000506838401B4F03430B435360136843F0DA
:104750009403136000E054B14FF47A7200230020F8
:10476000013CB84756F825309A78002AF3D0DB6828
:10477000D8F8002093420AD00BB193420BD3002CFF
:10478000C8F800300CBF12200020BDE8F8830022DA
:10479000C9F80020F3E70122C9F80020EFE700BFC5
:1047A000941A0020881A0020BC1A002000240082DD
:1047B000009800FC916B0008841A00202DE9F84352
:1047C000456890462F48994605EB4502DFF8CCC076
:1047D00005EB85042C4B92000026A40053F82530ED
:1047E000871882580CEB04000CF804607F685200B4
:1047F00041604FF4FA64D8F80010C2F3090C8670D7
:10480000816009044670C66001F47F011F611F6862
:104810001E4E47F001071E4A46F825000A431F6056
:104820001C4859681C4F01400A4342EA0C025A6076
:104830001A6842F092021A6000E054B14FF47A72A2
:1048400000230020013CB84756F825309A78002A0A
:10485000F3D0DB68D8F8002093420AD00BB1934222
:104860000BD3002CC8F800300CBF12200020BDE88C
:10487000F8830022C9F80020F3E70122C9F80020DC
:10488000EFE700BF881A0020841A0020BC1A00201D
:1048900000200082009800FC916B0008A81A0020FC
:1048A0002DE9F04F456883B0934612684FEA8508BA
:1048B000DFF8149105EB4507009208EB05043E4A2A
:1048C000BF00DFF808C1A400002602EB070E009A23
:1048D00009EB0400DFF8F8A0019782601204C660BB
:1048E00002F47F024160DEF804700AEB040142EA40
:1048F0000C0C0C9ADFF8DCE012684B6001238A6034
:104900005EF8252009F8046086708E704E70CE60C7
:104910000AF804304FF4FA64437017611168274EA7
:104920001943019F244B46F82500DF5911602448A4
:104930007F005368C7F30901224F03404CEA030389
:104940000B435360136843F09203136000E054B1CB
:104950004FF47A7200230020013CB84756F8253006
:104960009A78002AF3D04544DBF80020AD00A94432
:10497000D9F80C1091420BD001230D9ACBF80010FE
:104980001360002C0CBF1220002003B0BDE8F08F94
:1049900055440C99EA680A60DB689A4207D0002BFC
:1049A000EFD09A42EDD901230D9A1360E9E7002375
:1049B0000D9A1360E5E700BF881A0020BC1A00209A
:1049C000009800FC916B0008A81A002000200082CB
:1049D000941A0020841A0020F0B583B0224D234B96
:1049E00001A8234C98476B68626899691E685F68E4
:1049F000CF0690681BD5F70619D510210125D9617E
:104A0000196821F096011960957030B91A68012073
:104A1000616822F096021A608870DC6943F23802FD
:104A2000144901A82243DA61884703B0F0BD4F075B
:104A30000DD577070BD5586A5168D368C854D2E9A9
:104A40000203591C01386B68C2E90201DDE78D07DA
:104A5000DBD5B107D9D5D168013856684D1C715CDA
:104A60009962C2E90205D0E7841A0020A54E000829
:104A7000BC1A0020B94E0008F0B583B0224D234B7C
:104A800001A8234C9847AB68A26899691E685F68C3
:104A9000CF0690681BD5F70619D510210125D961DD
:104AA000196821F096011960957030B91A680120D3
:104AB000A16822F096021A608870DC6943F238021D
:104AC000144901A82243DA61884703B0F0BD4F07BB
:104AD0000DD577070BD5586A5168D368C854D2E909
:104AE0000203591C0138AB68C2E90201DDE78D07FA
:104AF000DBD5B107D9D5D168013856684D1C715C3A
:104B00009962C2E90205D0E7841A0020A54E000888
:104B1000BC1A0020B94E0008F0B583B0224D234BDB
:104B200001A8234C98472B68226899691E685F6822
:104B3000CF0690681BD5F70619D510210125D9613C
:104B4000196821F096011960957030B91A68012032
:104B5000216822F096021A608870DC6943F23802FC
:104B6000144901A82243DA61884703B0F0BD4F071A
:104B70000DD577070BD5586A5168D368C854D2E968
:104B80000203591C01382B68C2E90201DDE78D07D9
:104B9000DBD5B107D9D5D168013856684D1C715C99
:104BA0009962C2E90205D0E7841A0020A54E0008E8
:104BB000BC1A0020B94E0008F0B583B0224D234B3B
:104BC00001A8234C9847EB68E26899691E685F6802
:104BD000CF0690681BD5F70619D510210125D9619C
:104BE000196821F096011960957030B91A68012092
:104BF000E16822F096021A608870DC6943F238029C
:104C0000144901A82243DA61884703B0F0BD4F0779
:104C10000DD577070BD5586A5168D368C854D2E9C7
:104C20000203591C0138EB68C2E90201DDE78D0778
:104C3000DBD5B107D9D5D168013856684D1C715CF8
:104C40009962C2E90205D0E7841A0020A54E000847
:104C5000BC1A0020B94E00082DE9F8432149002470
:104C6000214B0122214D4FF0000899604FF00009BF
:104C70001F492048D960204903601F205C601F4FF6
:104C80001F4EC3E904511F491F4DC3E906511F4D73
:104C90001D60EB611E4BAA612B601E4A1E4BC5E9CD
:104CA00001231E4BC5E90489DFF884803B60C047BF
:104CB0002020C0473B681A4A19201C60136C23F45B
:104CC00000131364B0471820B047164B1649284606
:104CD000164A1C72C3E90044C1E90244C2E9024415
:104CE000BDE8F883CD430008641A0020954300080E
:104CF00005450008601A0020D1460008841A0020EB
:104D00003D3F0008A1480008BD470008C01A002028
:104D1000407503081C7F0308050000400054004054
:104D200000380240881A0020941A0020A81A002097
:104D3000854E000870B4134B4FF0FF32124C0646FC
:104D40001248C3F88020E063C3F88420C3F88820A9
:104D5000C3F88021C3F88421C3F88821BFF35F8F93
:104D60000B4A00200B4DC3F80C2CC3F8084CD3F8A9
:104D7000242C094C42F4E022C3F8242C2E6021603C
:104D800070BC704700E100E000000020816E000868
:104D90000007FA05E41A0020E01A002000207047FE
:104DA000EFF3108000F00100704700BF62B60120F1
:104DB000704700BFEFF3108072B600F0010070473B
:104DC000EFF3108362B630BF83F31088704700BFE3
:104DD00062B67047114B00201149124A70B4C3E902
:104DE000010111490024DA600025104A01261961E9
:104DF0000F495A6199610F4A0F49DA6119620F4AE6
:104E00000F491A601046D36111600E4B0E4996612E
:104E1000C2E90445C2E9011370BC7047081B0020B9
:104E2000354D00089D4D0008AD4D0008B54D0008FA
:104E3000C14D0008A14D0008D14D0008E81A00201E
:104E40004075030801000020647F030803460B4AF5
:104E5000103010B442F82010BFF35F8F012003F030
:104E60001F0207495B1100FA02F201EB8304C4F848
:104E7000802141F823205DF8044B7047000000209A
:104E800000E100E00123411100F01F02203118462B
:104E9000934010B4024C44F821305DF8044B704745
:104EA00000E100E0034B10B504461B68984720461C
:104EB00010BD00BFE41A0020034B10B504461B6868
:104EC0009847204610BD00BFE01A0020EFF3108283
:104ED000026072B6704700BF0368DB0700D462B699
:104EE000704700BF006800F0010070470368DB07EF
:104EF00003D5EFF31083036072B670470368DB07D6
:104F000003D4EFF31083036062B67047014B024A8B
:104F1000DA60FEE700ED00E00400FA0500207047CB
:104F2000012911D002290BD11C491D4A0B6943F0FC
:104F300004030B61136843F00203136030BF704732
:104F4000174B1B6830BF7047144B40F201221448C6
:104F5000196941F00401196101680A43026030BF18
:104F6000104A1068114640F4803010601A6922F02F
:104F700004021A610B689A03FCD50B68094A43F0D6
:104F800080730B6013689B01FCD5936843F00203A8
:104F90009360136823F001031360704700ED00E095
:104FA0000070004000380240002070470E4A002088
:104FB0000E4B0F4970B4C2E90103D16000240D4BC0
:104FC00000250D490126136151610C4B0C491360FA
:104FD0001846DA6119600B4A0B499E61C3E9044522
:104FE000C3E9011270BC70472C1B00201D4F000844
:104FF000A94F00080D4F0008214F0008481B002052
:105000004075030802000020A07F030804207047B9
:1050100043680B4AC3EBC3031B01D358DB0302D421
:105020009FED030B70479FED040B7047AFF30080BB
:1050300000000000CCBF894100000000CCBF9941B6
:10504000A01B0020000000009FED010B704700BF77
:10505000000000000000F03F2DE9F04FD0F8049070
:1050600093463F4D88464FEAC9033E4A3E4C2DEDDC
:10507000028B85B0B0EE408AF0EE608A0193A3EB1C
:1050800009031B0105EB030AEF58DAF860603046AC
:10509000904753EC182BCDE90201A047334B9847BA
:1050A000DAF86430DAF86820864206F1FF3103F15D
:1050B000FF3328BF0646052ABB62F96237D0022AB1
:1050C00035D007F13403B2B223F828204FEA880222
:1050D000022393403A6ABBF1000F38D013433B627E
:1050E000019B214CA3EB090308EB430305EBC3032E
:1050F000DDE90201D3E91023A0471C4B9847B042D9
:1051000001D001237B61019B0020A3EB090405EB87
:10511000041308EB4404984405EBC40488F824B055
:1051200084ED108B05B0BDEC028BBDE8F08FB8F1BB
:10513000000F01D17E63C9E7B8F1010F0BD0B8F1C0
:10514000020F0AD0B8F1030FC0D13E64BEE722EAD5
:1051500003033B62C4E7BE63B8E7FE63B6E700BF84
:10516000A01B00207D5C0308715D03082163030818
:10517000F8B543680E462C4C0746C3EBC3032B49D6
:1051800006EB43021B0104EBC202E5585068884756
:10519000002842D015F4803F2549264AC5F38423D0
:1051A00008BF0A464FF0010C786811680CFA03F347
:1051B00019424FEAC0010ED117683B430F1A04EBA6
:1051C000071713608422BB6E2A60012BC5F814C038
:1051D00025D0082B23D016F0010F4FF0000305F166
:1051E000340214BF4FF4D04C4FF0680C22F8263034
:1051F000B3070ED405F11807AB69091A43EA0C038B
:105200000122002004EB01143B60A11981F8282041
:10521000F8BD05F11C07EB69EFE70C20F8BD6B6CDE
:1052200043F400436B64D6E7A01B00200D3F000849
:105230004038024044380240F8B50D464168064601
:105240001F4CCB0015F0010FA3EB010214BF6FF44C
:105250007F4C6FF0FF0CA8074FEA0212A2582BD424
:1052600002F11807906900EA0C0038609769D0696C
:1052700038430ED112F4803FDFF850C01148C2F31A
:10528000842208BF604601279740026822EA07028D
:1052900002605B1A0C4A05EB430304EBC303586836
:1052A000904771680023C1EBC101184604EB01145B
:1052B000611981F82830F8BD02F11C07D069D2E7E6
:1052C000A01B0020443802403D3F00084038024007
:1052D000406800220323C0EBC000F0B501EB40069C
:1052E0000F4D83B0000105EBC6060C46009202216B
:1052F0002D58A4007068367A0A4F0196B8470122EB
:105300002B6A02FA04F4A4B21C432C622B68D9075E
:1053100003D413436A619BB22B60002003B0F0BD3D
:10532000A01B0020E93F0008426803231348C2EB9A
:10533000C202F0B5150101248F000026455901EB8A
:10534000420104FA07F783B02C6A00EBC100324631
:105350003146A4B2406824EA0704094F2C62CDE923
:105360000066B84741F211131C4203D12B6823F0A9
:1053700001032B60002003B0F0BD00BFA01B002084
:10538000E93F00080000000043682DE9F04FDA0013
:1053900087B0DFF884920393D31A04921B018E4ADC
:1053A000D618D55800228D4B05F4803596ED0E7B2E
:1053B00058EC177B17EE100A41468DED007BC8476D
:1053C000002800F09080864C3A4643467EA1D1E901
:1053D0000001A0470022834C834BA047834B984792
:1053E000002D04460290824A18BFD825814808BF84
:1053F0006C25814918BF01469442B36E22D804FB44
:1054000005F47E4A7E4F0125A2FB0424A409022B49
:1054100000F08D80052B00F08A80B4F5803F05D226
:1054200085E064086D00B4F5803F17D3B5F5004FF3
:10543000F7D94FF0000A4FF0000B4BEC10AB07B060
:10544000BDE8F08F22466D4C022BA4FB02244FEAEC
:10545000941400F0A280052B694FDED1B1FBF5F367
:1054600005934FF00108B3FBF4F6B7FBF6F6654B76
:10547000B7FBF6F0984782468B4602460B46DDE9BD
:105480000001C847002856D018F0FF0F03D0029B38
:105490009E4280F087800134059BB3FBF4F6B7FB96
:1054A000F6F6002EC5D098460595564B4FF00105EF
:1054B000B7FBF6F0984782468B4602460B46DDE97D
:1054C0000001C84708B94FF0000515F0FF0F02D0E2
:1054D000029B9E4265D20134B8FBF4F6B7FBF6F6A8
:1054E000002EE2D1A5E7DDE900AB0022464B504695
:1054F0005946C84728B33A4C52465B46434F34A1FD
:10550000D1E90001A0470022364C374BA047374B6A
:105510009847002D384A0446B36E18BFD825354940
:1055200004BF6C251146022B02907FF473AF002C50
:105530003FF47FAF92E74FF0000818F0FF0FA6D1BD
:10554000A9E752465B46264C00202449A04700228A
:10555000254B244CA047254B9847002D2C4B264A21
:1055600024492C4D04BF11461D46031E0293FFF62D
:1055700060AF1C4602E0002CFFF65BAF6D086400D4
:10558000B5F5803FF7D8DDE903234FF47A779B1A0E
:10559000114A02EB03139B6E39E71C4B184F05931E
:1055A0005FE7059DDDE903234BEC10AB9B1A0A4A2C
:1055B00002EB0313C3E90CABC3E9184507B0BDE820
:1055C000F08F00BFAFF300800000000065CDCD413B
:1055D0000000000080842E41A01B002000408F406E
:1055E000C55F0308055A03080000E03F2163030874
:1055F0004B682F0100E6DF0C00F36F06D34D6210FD
:1056000000CA9A3B7D5C03080000F03F40420F0057
:10561000E0A50100C04B03007D62030843682DE94B
:10562000F04FC3EBC303B54C83B0814604EB0315C5
:105630008846DFF8D8A2D1E90067D5E90E013246E5
:105640003B46D04718B1002003B0BDE8F08FC5E954
:105650000E67AB4B48469847D9F80450EE00731BD1
:105660001B01E7187A68013288ED000B5AD1731BD1
:105670001B01E718FA68013240F09880731B1B0188
:10568000E7187A69013240F0D280731B1B01E718DA
:10569000FA690132D7D0D7F860909A4A484654F850
:1056A00003809047DFF868B297F827A097ED167B44
:1056B00053EC172B8DED007BD847934B98477B6EAF
:1056C000BA6E814509F1FF3C494603F1FF3328BF1B
:1056D0000146052AC8F82830C8F82CC000F00B8114
:1056E000022A00F0088189B2A8F84010D8F82030CA
:1056F000BAF1000F00F0F18043F40053C8F82030F5
:10570000814502D20123C8F81430751B00209DED9D
:10571000007B04EB051484F827A084ED167B03B00E
:10572000BDE8F08FD7F86090764A484654F8038079
:105730009047DFF8DCB197F824A097ED107B53EC8D
:10574000172B8DED007BD8476F4B98477B6EBA6E59
:10575000814509F1FF3C494603F1FF3328BF01466B
:10576000022AC8F82830C8F82CC000F0BB80052AEF
:1057700000F0B88089B2A8F83410BAF1000F00F038
:105780009780D8F8203043F00203C8F820308145D4
:1057900002D20123C8F81430731B9DED007B04EB8B
:1057A000031383F824A083ED107B60E7D7F86090A3
:1057B000544A484654F803809047DFF854B197F8AC
:1057C00025A097ED127B53EC172B8DED007BD8476E
:1057D0004D4B98477B6EBA6E814509F1FF3C4946B7
:1057E00003F1FF3328BF0146052AC8F82830C8F85E
:1057F0002CC07AD0022A78D089B2A8F83810BAF131
:10580000000F5CD0D8F8203043F02003C8F82030D7
:10581000814502D20123C8F81430731B9DED007B33
:1058200004EB031383F825A083ED127B26E7D7F85A
:105830006090344A484654F803809047DFF8D0B06F
:1058400097F826A097ED147B53EC172B8DED007B7A
:10585000D8472D4B98477B6EBA6E814509F1FF3CC6
:10586000494603F1FF3328BF0146052AC8F828300E
:10587000C8F82CC03CD0022A3AD089B2A8F83C1013
:10588000BAF1000F22D0D8F8203043F40073C8F8E2
:105890002030814502D20123C8F81430731B9DEDDE
:1058A000007B04EB031383F826A083ED147BECE666
:1058B000D8F8203023F00203C8F8203067E7D8F882
:1058C000203023F02003C8F82030A1E7D8F820309A
:1058D00023F40073C8F82030DBE723F40053C8F842
:1058E00020300DE7C8F8341047E7C8F8381086E7CD
:1058F000C8F83C10C4E7C8F84010F7E6A01B002029
:10590000895300087D5C0308216303084162030892
:10591000715D03082DE9F04FCB4B4FEA4018C600EC
:10592000CA4C53F8082003EB0801331A83B00979F5
:10593000054604EB03135A600132197206D00022A7
:105940000020002183F82420C3E91001731B04EB1D
:10595000031393F82830002B61D1BB4B03EB0802F3
:10596000731B916804EB0313127BD96001311A7425
:1059700006D000220020002183F82520C3E912016F
:10598000731B04EB031393F82930002B40F06A815A
:10599000AD4B03EB0802731B116904EB0313127D7B
:1059A000596101311A7606D000220020002183F8C7
:1059B0002620C3E91401731B04EB031393F82A3068
:1059C000002B40F0E480A04B03EB0807731BBA697F
:1059D00004EB0313397FDA61013283F8201006D01B
:1059E00000220020002183F82720C3E91601731B41
:1059F00004EB031393F82B30002B6DD1761B0022A0
:105A00000023013504EB06140021A566C4E9181132
:105A1000C4E90E23C4E90C2303B0BDE8F08FDFF81E
:105A20003C924FF0000C0323894F59F82510624631
:105A300048686146C0EBC000000154F800B0204443
:105A4000DBF820A040681FFA8AFA2AF0010E1FFA3C
:105A50008EFECBF820E0CDE900CCB84741F2101320
:105A60001AEA030F05D1DBF8003023F00103CBF86D
:105A7000003059F82590D9F80430D800C21A120124
:105A8000A258916921F0FF019161D2F818C0D16943
:105A90005CEA010110D112F4803FDFF8C4E16D49E6
:105AA000C2F3842208BF71464FF0010C0CFA02FCCD
:105AB0000A6822EA0C020A60C31A674A04EB03135D
:105AC00058689047D9F804300022C3EBC30304EBB5
:105AD000031383F8282040E7DFF880914FF0000C93
