:020000040800F2
:10000000F8FF0720C5010008D5010008D501000848
:10001000D5010008D5010008D50100080000000046
:10002000000000000000000000000000D5010008F2
:10003000D501000800000000D5010008495500085E
:10004000D5010008D5010008D5010008D501000838
:10005000D5010008D5010008D5010008D501000828
:10006000D5010008D5010008D5010008D501000818
:10007000D5010008D5010008D5010008D501000808
:10008000D5010008D5010008D5010008D5010008F8
:10009000D5010008D5010008D5010008D5010008E8
:1000A000D5010008D5010008D5010008D5010008D8
:1000B000D5010008D5010008D5010008D5010008C8
:1000C000D5010008D5010008D5010008D5010008B8
:1000D000D5010008D5010008D5010008D5010008A8
:1000E000D5010008D5010008D5010008D501000898
:1000F000D5010008D5010008D5010008D501000888
:10010000D5010008D5010008D5010008D501000877
:10011000D5010008D5010008D5010008D501000867
:10012000D5010008D5010008D5010008D501000857
:10013000D5010008D5010008D5010008D501000847
:10014000D5010008D5010008D5010008D501000837
:10015000D5010008D5010008D5010008D501000827
:10016000D5010008D5010008D5010008D501000817
:10017000D5010008D5010008D5010008D501000807
:10018000D5010008D5010008D5010008D5010008F7
:10019000D5010008D5010008D5010008D5010008E7
:1001A000D5010008D5010008D5010008D5010008D7
:1001B000D5010008D5010008D5010008D5010008C7
:1001C000D5010008DFF808D000F006F800F066BAA4
:1001D000F8FF0720FEE70000F0B4BFF34F8FBFF336
:1001E0006F8F5B480022C0F85022BFF34F8FBFF3E0
:1001F0006F8F436943F400334361BFF34F8FBFF305
:100200006F8FC0F88420BFF34F8FD0F8805043F633
:10021000E07CC5F3C906C5F34E35B7076D0105EAA5
:100220000C043946324644EA0103013A01F14041E7
:10023000C0F86032531CF6D1203D15F1200FEED1ED
:10024000BFF34F8F436943F480334361BFF34F8F54
:10025000BFF36F8FD0F888103E4B41F470011A46FF
:10026000C0F88810416921F008014161196841F026
:100270000101196013689907FCD500233549936083
:10028000136823F0A0631360136843F48033136092
:100290000B689A03FCD5304B1B68DBB2112B50D096
:1002A0002E4B40F205321A602A4B2D491A465960EE
:1002B000196841F08071196013689B01FCD594683E
:1002C00049F2024327482349204090609068034345
:1002D00093608B6803F00C03082BFAD100234FF4D2
:1002E00080104FF080544FF48042086320204B630D
:1002F0008B630C644A640B681B4A23F001030B6098
:100300000B6B43F00F030B630B6B43F010030B639A
:100310000B6B03430B630B6B43F040030B630B6BE3
:1003200043F080030B630B6B43F480730B630B6B25
:1003300043F400730B630B6B43F48063F0BC0B63FB
:100340001047064A136843F005031360ACE700BF8B
:1003500000ED00E000380240002004E0003C0240D4
:10036000196C40090F03FFFF59070008052917D82A
:100370000C4B01EB4101012003EB81011070D1E92D
:1003800001301844834203D308E00433984205D96E
:1003900019680131F9D000201070704700207047B3
:1003A0000920704784610308052920D801EB410129
:1003B000124B53F821300B2B17D8114A1169002921
:1003C00030B416DB0E49DB0040F202250D4C0A4624
:1003D0001C431D430D610C610C61D368DB03FCD42D
:1003E0004FF00043136130BC704703207047092071
:1003F0007047054C054954605160E3E78461030888
:10040000003C02400202010023016745AB89EFCDA9
:100410002BB31448814215D900F58020814213D9AD
:10042000B1F1016F10D300F5002081420CD900F525
:100430008020814208D900F58020814204D9B1F1A1
:10044000026F01D3092070470A44914205D208681F
:1004500004318A4243F8040BF9D800207047022087
:10046000704700BFFFFF0708002B00F0A280524832
:10047000814215D900F58020814213D9B1F1016F75
:1004800010D300F5002081420CD900F58020814274
:1004900008D900F58020814204D9B1F1026F01D35F
:1004A000092070472DE9F0430020444EC6F884002F
:1004B000BFF34F8F706920F480307061BFF34F8FAE
:1004C000D6F8800043F6E078C0F3C90EC0F34E3C86
:1004D0004FEA8E794FEA4C1C0CEA08074D467446E9
:1004E00047EA0500013C05F14045C6F87402601C6E
:1004F000F6D1ACF1200C1CF1200FEDD1BFF34F8FE2
:10050000BFF36F8F2E480469002C03DA2D4D2E4C5B
:10051000456044600A442A4840F201249142046143
:1005200012D21C1F54F8043F0D689D4209D00B6085
:10053000BFF34F8FC368DD03FCD40D6823689D4271
:1005400034D104318A42EDD81D4A4FF000411B4896
:1005500000231161C0F88430BFF34F8FD0F8803092
:1005600043F6E07CC3F3C906C3F34E33B7075D011E
:1005700005EA0C043946324644EA0103013A01F126
:100580004041C0F86032531CF6D1203D15F1200FD8
:10059000EED1BFF34F8F436943F480334361BFF320
:1005A0004F8FBFF36F8F0020BDE8F0830820BDE8B8
:1005B000F0830220704700BFFFFF070800ED00E056
:1005C000003C024023016745AB89EFCD70B504467E
:1005D000074D0669A84701462046B047A66AA847C6
:1005E0000449426833462046BDE87040184700BFC2
:1005F000151C00080300004070B51E4B04461E4D3C
:1006000018600669A84701462046B047A66AA84771
:100610004FF0804142682046184DB0472669A847F0
:1006200001462046B047A66AA847154942682046B9
:10063000B047144B2569984701462046A847124BFE
:100640002569984701462046A847104B25699847D9
:1006500001462046A8470E4B25699847014620468B
:10066000A84720460B4B984720460B4BBDE87040EF
:10067000184700BFC80500209D0E00082D33000854
:10068000040000402D4400082D4C00089D66000821
:10069000DD8F000841500008CD050008F0B587B097
:1006A0001C4B98471C4B03A902A898471B4B0024DE
:1006B0001B4DDDE9020198471A4A05A904A81A4B07
:1006C00014609847194BDDE9040198470022184946
:1006D00009231848A847184B9847184B05469847D0
:1006E000174B064698470746164B98473146034630
:1006F0003A462846144DA847012206A8134B00F895
:10070000112D98479DF80710114B12489847204625
:1007100007B0F0BD5950000845500008F5A6000884
:1007200099920008C8050020C15000081DA70008C4
:10073000CC5C0308E05C0308AD0F00089D340008A2
:1007400075360008B954000841A50008D9500008C2
:100750005DAF0008F90500082DE9F041002388B0DD
:100760003E4A042103931D460493804605933C4C66
:100770000693079104F5E477136B3A4E43F0FC03BC
:1007800013632279083454F8080C03230221CDE9BD
:1007900000520022B047BC42F3D1304AB8F1100FEA
:1007A000936B43F00103936304D0B8F1200F01D0A1
:1007B000069501E0CDF81880079B06992A4A0B435D
:1007C0002A48114643F4CA53136090608B6913F0B2
:1007D0002003FBD13120264A08610593059B9342F3
:1007E00005D8059B01330593059B9342F9D91E4912
:1007F0008B699D06FCD432231B4A0B6193699C06CE
:10080000FCD440F21313184913618B699806FCD489
:10081000184B154A0B6193699906FCD45369124928
:1008200043F4506353618B699B06FCD4124A4FF02A
:10083000C0401249136843F4806313600390039B24
:100840008B4208D80E48039A039B1060043303932D
:10085000039B8B42F7D908B0BDE8F0810038024015
:10086000F05C030851300008400100A072742202BD
:100870003F420F003440040000380140FF0F006089
:10088000AA55AA55F8B59A4C06460F460020994934
:10089000A04799490320994DA04799490020A047B6
:1008A00098490220A04796490020A0479649002079
:1008B000A0470A20A84795490020A0479449002056
:1008C000A0470A20A84793490020A047924900204A
:1008D000A04792490020A04791490020A047914994
:1008E0000020A04790490020A04782490020A0474F
:1008F0008E490020A0478E490020A0478D49002046
:10090000A0478D490020A0478C490020A0478C4972
:100910000020A0478B490020A0478B490020A0471A
:100920007F490020A04773490020A0478749022043
:10093000A04787490020A04786490020A047864954
:100940000020A04785490020A04785490020A047F6
:1009500084490020A04776490020A0478249002012
:10096000A04775490020A04780490020A047804942
:100970000020A0477F490220A04761490020A047EE
:100980007D490620A0477D490020A0477C490E20D4
:10099000A0477C490020A0477B490E20A0477B4907
:1009A0000020A0477A490A20A0477A490020A047A2
:1009B00079490020A04752490020A04777490A20E2
:1009C000A04777490020A04776490F20A0476B49F0
:1009D0000020A04774490F20A0476A490020A04783
:1009E00072490A20A04769490020A04770490F209A
:1009F000A04768490020A0476E490F20A0476E49D4
:100A00000020A0476D490A20A0476D490020A0475B
:100A10006C490A20A0473A490020A0476A490A20A9
:100A2000A0475F490020A04768490F20A0475349CD
:100A30000020A04766490F20A04752490020A04748
:100A400064490A20A04751490020A04762490F206D
:100A5000A04750490020A04760490F20A0473449D3
:100A60000020A0475E490020A0475E490020A04723
:100A70005D490020A0475D490020A0475C49002057
:100A8000A0471C490020A0475A490320A047194904
:100A90000020A04717490020A04757491020A04731
:100AA00014490020A04755491020A0470020544970
:100AB000A0477820A847002E00F0C380022E00F047
:100AC000B080012F00F0B3804E490020A0474E496E
:100AD0000020A0474D490020A0474D490020A047D5
:100AE0004C490020A04703490020A04794E000BFE4
:100AF0009922000800600308B85E0308512300082B
:100B000004600308BC5E0308086003080C60030867
:100B10001060030814600308186003081C600308D1
:100B20002060030824600308286003082C60030881
:100B30003060030834600308386003083C60030831
:100B4000406003084460030848600308E85E030847
:100B50004C600308506003085460030858600308A1
:100B60005C60030860600308646003086860030851
:100B70006C600308EC5E0308F05E03087060030815
:100B8000F85E030874600308085F030878600308D0
:100B9000185F03087C600308B4600308245F03083F
:100BA00080600308305F0308405F0308505F03085C
:100BB0005C5F03086C5F0308846003087C5F0308C4
:100BC00088600308885F0308945F0308A05F030838
:100BD000B05F0308C05F0308CC5F0308DC5F030855
:100BE000B8600308BC600308C0600308C460030861
:100BF000C8600308EC5F0308C05E0308D45E030806
:100C00008C6003089C600308A0600308A4600308CC
:100C1000A8600308AC6003080C490020A04700202E
:100C2000F8BD0B490020A047012F7FF44DAF0949C3
:100C30000020A04708490420A04708490420A047F5
:100C400042E730460649A0473BE700BFB0600308D3
:100C50009060030898600308F05F0308F85F0308DA
:100C60009460030800280CBF02200020704700BFDA
:100C70001E4B585C10B4002831D003F1120401E07F
:100C8000A34228D013F8011F8142F9D1A0F110042A
:100C9000174B012CD96C586317D9154B9868194616
:100CA00040F0804098600B689B07FCD5012C06D96A
:100CB0000F4B00205DF8044BDB6C136070470D494F
:100CC0004B6823F400034B60F2E70A494B6843F496
:100CD00000034B60E1E703205DF8044B7047044BD1
:100CE0006FF00F04D96C5863D7E700BF3061030879
:100CF0000022014000230140132070470C20704760
:100D00000020704740F6FF70704700BF002070471A
:100D1000002914BF04200020704700BFB1FA81F001
:100D200040097047F0B5414F83B07C5C122C49D824
:100D30000F2C0E4632D9002C64D03D4D3B4B01E0C8
:100D40009D4242D013F8012FA242F9D139494B6C90
:100D500013F480633CD1486C0125374A0F2C40F4D2
:100D60008060DFF8ECC0486434483549CCF8043082
:100D7000D36253609560D06011612BD8BC5D122C9A
:100D800032D94FF0FF30002403232E4D0194224628
:100D900000941946A847204603B0F0BD4CB13B462D
:100DA00007F1120501E0AB4217D013F8012FA24260
:100DB000F9D1254A254B105D98470028BBD10C205E
:100DC00003B0F0BD062003B0F0BD032003B0F0BDBA
:100DD0000F2C09D9002003B0F0BD4FF0FF301B4BA2
:100DE00098470028AAD1EAE74CB1104B03F1120151
:100DF00001E09942C5D013F8012FA242F9D1124B5C
:100E0000185DC0E70B4B5A6C5205F8D4596C0120A1
:100E1000094A41F480610E4D59640849084B6C60E1
:100E2000D46254609060D1601361A7E73061030819
:100E30004261030800380240002201409224490226
:100E400092244912513000081C610308752F0008D4
:100E50000023014008B50B4B595C0F290DD841B157
:100E600003F1120001E0834209D013F8012F8A42F6
:100E7000F9D1054B585C054B9847002008BD4FF051
:100E8000FF30F8E7306103081C610308A52F000854
:100E900000280CBF02200020704700BF2649002216
:100EA00026484FF0804C264B2DE9F041C8600127C1
:100EB0002448254D086125486E1C4A60002248617F
:100EC00006F1120422488B60002388612148DFF874
:100ED000B080C86120480862204848622048886283
:100EE0002048C862204808632048486320480860BA
:100EF000C1612049876101601F4F2049C0F808C0C7
:100F00004160C0E9042315F8011F0F290BD839B13E
:100F1000334601E0A3420BD013F8012F8A42F9D1E6
:100F200018F80100B847A542EDD11148BDE8F0819D
:100F30004FF0FF30F6E700BFCC050020910E00080F
:100F4000650C0008250D00082F610308550E0008E8
:100F5000710C0008110D00080D0D00081D0D000892
:100F6000010D0008050D0008FD0C0008F90C000833
:100F700008060020CC600308A52F0008E4600308E1
:100F80001C610308012300200B707047002070478C
:100F900030B404480624044D0860002015601C602D
:100FA00030BC70476C06002084060020204B0020D7
:100FB000204A21492DE97003DA604FF000541F4A9E
:100FC0004FF0000858604FF000091A6101201C4AD8
:100FD0004FF0016699604FF480215A61194A1A4D09
:100FE0009A611A4ADA611A4A1A621A4A1A60D36175
:100FF000194B94601360194B194C5360194B906155
:101000001046236003F54023A660E360164BC2E957
:101010000489164A626002F58012C3E90011C4E92E
:101020000452C3E90211C3E90411BDE8700370471B
:10103000480600208D0F0008850F000811040008E5
:1010400069040008A9030008000018086D030008DF
:10105000910F000828060020CC60030844610308B3
:101060006C060020000008088406002000000C0820
:1010700003490020034B4FF0C04208701A607047CC
:101080001C08002030020020014B0020187070471F
:101090001808002004207047F0B41B4C00251B48A2
:1010A00024680D601460049902681A60002927D032
:1010B000174A4FF47A73174E1268174D03FB02F369
:1010C00037682D78154C1648164A174E4B60174B4B
:1010D00036682478007812780D701D68144B4C70B7
:1010E0001C78144B88701868134B0A721A68134BDB
:1010F000CF601B680C764B62C1E90465C1E9070249
:101100000820F0BC704700BF2C020020080200201D
:101110001C020020140200201802002019020020E6
:101120001A08002019080020100200200C020020DC
:101130001B0800202802002024020020200200209A
:1011400030B400200125034C08601D60146030BCE1
:10115000704700BFF8070020F0B4049C002932D18A
:101160001C4D1D482A600360002C2FD06368084680
:101170001A4A1B4DA2FB0323217867789B09A678A6
:10118000184A2B60184B11701F70217AE768174DB1
:10119000174A184B2E701F6026691170164D616931
:1011A000164A174B94F818C02E60E769154E116067
:1011B00083F800C01449154B3760D4E908520D601C
:1011C0001A60F0BC70470420F0BC70472046F0BCA9
:1011D000704700BF2C02002008020020D34D62108F
:1011E0001C02002018020020190200201A0800200A
:1011F0001908002014020020100200200C02002018
:101200001B080020280200202402002020020020C9
:10121000B24800782DE9F047099F002846D0B04831
:10122000B04D0678B04CB1482D6800682468032E94
:101230003CD8DFE806F07580B73E04FB00F25200B0
:10124000002A1446B8BFD41D534202F007024FEAE9
:10125000E40403F0070358BF5A42002C0ADDE400FF
:10126000A5F108033E19F7E80201BE42E3E90201D5
:10127000F9D12544002A19DD3B78012A2B7015D0BD
:101280007B78022A6B7011D0BB78032AAB700DD02B
:10129000FB78042AEB7009D03B79052A2B7105D025
:1012A0007B79062A6B7101D0BB79AB710020BDE858
:1012B000F087A4EB010901EB030C089904FB02FA87
:1012C000A0EB0108A9EB030101FB002089454FEACF
:1012D0004000EBDD089B4FEA4808D618B242E5DA39
:1012E0000AF1FF3E08EB430802380EEB0C030CF149
:1012F000FF3C05EB000EA3EB0909D4448944614689
:1013000070461346013337F811502144B34220F898
:10131000025FF7D10CF1FF3CC644CC45EFD1C5E7E5
:1013200051EA020679D1834202D1089EA64284D0B6
:101330004FF0000E72E0089EA0EB020C0B449619D1
:10134000089A9942ACEB020EA0EB020806F1FF36B8
:1013500000FB01E004FB06F64FEA4000A6DAF44584
:101360004FEA4802A2DD314402381E44C4EBC47483
:10137000ACEB0E0307EB410107EB460605EB00085B
:10138000640002EB430740460A4673460133158862
:1013900022449C4520F8025FF8D10231B844B142A2
:1013A000F1D183E7089EA41AA0EB030E3244461A3B
:1013B00002F1FF39089AA6EB0308A4EB020C00FB2C
:1013C000091164450CFB0080194405EB40007FF7D0
:1013D0006DAF46454FEA4E037FF768AFA8EB0602B4
:1013E00003EB4603A6EB080607EB4105A2EB0E0E46
:1013F000A3EB480877004FEA4E0EC61903462A466B
:1014000032F8021D23F8021BB342F9D10CF1010C92
:10141000754440446445F0D148E79646089C02EB89
:10142000040CE645BFF642AF5B000EFB00F2400045
:10143000002B994603F00708B8BF03F107095C4287
:101440004FEAE90904F0070301EB8906114458BF8C
:10145000C3F100084FEAC90A1644C9EB497205EB0B
:10146000410107EB4606D700B9F1000F0A4606EB2B
:10147000070309DDA1F10802F3E80245B342E2E9FE
:101480000245F9D10AEB0102B8F1000F1FDD1C780B
:10149000B8F1010F14701AD05C78B8F1020F5470D3
:1014A00015D09C78B8F1030F947010D0DC78B8F1A7
:1014B000040FD4700BD01C79B8F1050F147106D04D
:1014C0005C79B8F1070F547101D19B7993710EF1DA
:1014D000010E06440144E645C6D1E7E6180800209F
:1014E0001C08002030020020080200202C020020EE
:1014F0002DE9F04F854E044683B0854D31684FF499
:1015000000320023002021F08051824F4FF4806888
:101510004FF0050931603168A8477F494FF48032A8
:1015200000230020C6F88810D6F88C1021F4403132
:10153000C6F88C10316841F0805131603168A8479D
:10154000726C4FF0020E754B002142F080627448BD
:101550007264726C006802F08062D7F800C0236089
:1015600001929A696F4E22F070429A61A568626892
:101570009F692A43E5683A432A4325692A439A61C9
:101580009A6832409A609F68D4E905252F4347EA5C
:1015900002429A60DA683240DA60DF68D4E90725EF
:1015A0002F4347EA0242DA601A6932401A611F6922
:1015B000D4E909252F43012547EA024200FA05FB39
:1015C0001A615A6916405E615F69D4E90B263E4391
:1015D00046EA02425A61DF6A94F8356007F07F47B5
:1015E00094F83620DF62DF6A94F834A04AEA070AEA
:1015F000FF274AEA062A4FF0C0464AEA024A4A4A08
:10160000C3F82CA0D3F834A04AF0040AC3F834A0DD
:10161000D3F834A04AEA0E0AC3F834A0D3F818A0CD
:101620004AF0010AC3F818A05D62E063C4F844C040
:10163000C4F8548040F20548C4F85890A16321646E
:101640002165E665C4E9180CC4E912E7A4F868103E
:1016500084F86A10D3F80CA05468CAF30B4A04F457
:10166000704482445460DC68C4F30B490BF10304FA
:10167000A94444EA404449EA0A40DFF8B490506083
:10168000D3F80CA09068CAF30A0A00F47040E24450
:101690009060D868C0F30A00284440EA0A40DFF8A6
:1016A00094A09060106920F007001061C2F810E06B
:1016B0009069284691619161D2F814E02EF0FF0EF6
:1016C000C2F814E05761D76907EA0909174FC2F851
:1016D0001C90C2F81C80D2F828E091629662D16A10
:1016E00001F0E021D162D462116B01EA0A0AC2F86A
:1016F00030A0C2F830C01168294311605D624FF01C
:1017000001033B7003B0BDE8F08F00BF003802401A
:1017100059520008080200200060037F0068014061
:101720002C02002000F800F0846801401808002016
:10173000F8F8FFFF00F8FFFFBC4B1B7813B30C2831
:101740002DE9F04F95B07FD00D2800F08581B84A83
:101750000A281368019316D1013300211846B54BAE
:101760001F280293196000F2E881B34C1060B34B5C
:1017700004442022034404F8202BA342FBD115B0DB
:10178000BDE8F08F70474FEAC308AD4AA94B00EBA4
:10179000800B146808F1020719680022029308F10F
:1017A0000103129101EB410105934FEA440904FB47
:1017B00008F34900DFF89CA21E19CB180697A5195B
:1017C00011938E19139063194D1910960F9508F106
:1017D0000305079508F104050395E518CB180E934A
:1017E00008F10603089308F10703049305EB0903C6
:1017F0004D1904EB030ECB180D9508F105050C935C
:1018000001EB0E078F4B09951E68AEEB09038E4D59
:1018100040F6FF790B440B97D5F800C00AEB0B0597
:1018200093468A460A9315F8013B0AEB020013F02F
:10183000010E33D1844234D9E04580F019811199E9
:10184000114426F811E013E17D4B7F4A1B681468B0
:1018500004FB03F463000BD0A40000214FF0C04050
:101860007A4D2246A847224600214FF0C040A847A3
:10187000774800236E4D4FF031316E4A00F120045D
:101880002B60136000F50A62034643F8201C2033E6
:101890009342FAD104308442F4D170E7844200F2DA
:1018A000E180990740F1E680844200F23B815F07C6
:1018B00040F1EC80844200F22D81190740F1F28062
:1018C000844200F21F81DF0603F020010DD4844220
:1018D0000BD9039F674504D20D9F07EB020E26F834
:1018E0001EB0002940F0FC8002E0002940F0F680A4
:1018F000844240F2898009998C4503D90A9951188C
:1019000026F811B0590640F1F480844240F28180FB
:1019100008998C4503D90C99114426F81190DB09DC
:1019200079D10499614503D20B99114426F81130FD
:101930000132052A7FF477AF414B5146414C1A687A
:101940000531414B914213981B6824683ED298455B
:1019500004D202FB0818002524F81850059DAB425C
:1019600004D905FB0215002624F81560069DAB423C
:1019700004D905FB0215002624F81560079DAB422B
:1019800004D905FB0215002624F81560039D9D422D
:1019900004D202FB0515002624F81560099DAB4210
:1019A00004D905FB0215002624F81560089DAB42FA
:1019B00004D905FB0215002624F81560049D9D42FC
:1019C00004D202FB0511002524F8115012991A4C7B
:1019D0004D1C019E04EB4111442D885540F2AA8014
:1019E00030460021029D013029601F2800F2D1807D
:1019F00004F50C630E49044420220344086004F8F3
:101A0000202B9C42FBD1BAE65F063FF57EAF8442B5
:101A10006FD8DB098CD084428AD9049B634587D276
:101A20000B9B134426F8139082E700BF1808002090
:101A3000E4100020E010002020080020C01000204A
:101A40002C0200203002002008020020C3510308AD
:101A500040080020206203085F4B00221A6015B086
:101A6000BDE8F08FE04503D21199114426F811909A
:101A7000990757D484427FF61AAF05998C4503D94C
:101A80001099114426F811B05F0743D484427FF6C1
:101A900014AF06998C4503D90F99114426F811B05B
:101AA00019072FD484427FF60EAF07998C4503D9CE
:101AB0000E99114426F811B0DF0603F020017FF5DE
:101AC00006AF039F674506D20D9F07EB020E26F86F
:101AD0001E9029B90CE700293FF40DAF844293D939
:101AE00009998C457FF60EAF0A99511826F8119086
:101AF00008E708998C457FF612AF0C99114426F837
:101B000011B00CE707998C45D6D90E99114426F8E7
:101B10001190D1E706998C45C2D90F99114426F846
:101B20001190BDE705998C45AED91099114426F85E
:101B30001190A9E7029B1D6021E6284B1F20284A2F
:101B40001B681268274C02FB03F22060530004D08C
:101B500092004FF0C040244B9847244E0023214A66
:101B6000741E1360A046029A04F120091360002538
:101B7000705D08F805002035FFF7DEFDB5F50A6F4A
:101B8000F6D1013608F101084E45F0D1154B186821
:101B9000EDE503FB02F213481F230360530004D05A
:101BA00092004FF0C040104B9847104D00230D4A53
:101BB0006E1E136006F12007029A13600024285D50
:101BC00030552034FFF7B8FDB4F50A6FF7D1013571
:101BD0000136BD42F2D1D2E5E01000202C020020F7
:101BE00008020020E4100020C3510308210800204F
:101BF0005AB170B58D184C1E054E013D14F8010FF9
:101C0000B047AC42FAD1002070BD0020704700BF41
:101C100039170008134B00201349144A70B4C3E964
:101C2000010113490024DA600025124A0126596295
:101C300011499A629961114A11495A611961114A0F
:101C40001149DA611962114A11491A601046D361CB
:101C50001160104B10499661C2E90445C2E90113B5
:101C600070BC7047C0060020711000088910000881
:101C70004D2200089510000859110008991000081D
:101C80004111000811120008F11B0008A0060020F5
:101C9000CC61030803000040E4610308134B82B0E9
:101CA0005A6C42F080625A645A6C02F08062009270
:101CB000009A00925A6A42F080625A625A6A22F08E
:101CC00080625A625A6C42F000625A645A6C02F0A6
:101CD00000620192019A01925A6A42F000625A62CD
:101CE0005A6A22F000625A6202B07047003802401D
:101CF0002DE9F04F002489B00323012122460590ED
:101D0000D64D9F20019401270094A847D44E214628
:101D10009F20B047D34A00232046D349884701215A
:101D20009F20D24DB047D24B9847D24B0320042678
:101D30002B601A462874D3F80414EF6021F00801D0
:101D4000AE60C3F80414596821F001015960D3F85A
:101D5000A01021F00601C3F8A010D3F8301421F030
:101D60000101C3F83014D3F8301421F08071C3F8A6
:101D700030146C612C742874D3F8301441F08071E5
:101D8000C3F83014D2F80C34D904FBD5D2F830049F
:101D900042F69013B8490140B648C2F83014D2F860
:101DA00030140B43C2F83034D2F8303443F001031E
:101DB000C2F83034D0F80C34DB05FBD5059B002489
:101DC000D0F8A02040F2E54A002B6B6842F00602F2
:101DD00040F225290CBF4FF448764FF4F0764FF0CF
:101DE00005084FF0020E039640F2BE76C0F8A02020
:101DF00008BF5646D0F894204FF0040BAC6108BFE2
:101E00004FF4F07122F00302DFF880C218BF4FF4E4
:101E100048719A4FC0F894204FF04D0AD0F89420A2
:101E2000049640F2653643EA0203954A18BFB1466C
:101E300043F00103CDF818904FF40049C2E907447C
:101E4000C0F89430D0F8A430546223F00303C2F8F1
:101E50000480C2F80CE04FF40058C0F8A430D0F869
:101E6000A43043F00103C0F8A430836823F0FF03DB
:101E70008360836843EA0B038360D0F8183423F04F
:101E80003F03C0F81834D0F8183443F0080E794BEB
:101E9000C0F818E44FF4805EC0F8C440C0F8C840F1
:101EA00040F6FF706C61039E3960CCF800604FF023
:101EB000010C146085F810C04FF4006C9061586BF1
:101EC000049F20F00100116117634FF480671664CE
:101ED0004FF001065863D3F80004546120F001006C
:101EE0005663D464C3F80004986BC2F828B04FF06E
:101EF0000F0B20F00300C2F82CA0C2F844904FF45E
:101F00000079986340F23F3A986BC2F850804FF4E2
:101F1000807840F00200C2F854E0AEF5A04E98631D
:101F2000D86BC2F858C040F2032C00EA0E00C2E998
:101F30001779D8634FF01000DF6B6FF48069C2F837
:101F40006480A8F5045847EA0107C2F838B04E4447
:101F5000DF631F6CD06307EA0807906449481F6479
:101F60001F6C1F645F6C07EA0808474FC3F8448082
:101F7000D3F844806FEA18386FEA0838C3F8448011
:101F8000D3F80C8028F00308C3F80C80D3F80C8039
:101F9000C3F80C80D3F8148028F00708C3F8148025
:101FA000D3F81480C3F81480D3F8108028F00F08F9
:101FB000C3F81080D3F8108048F00508C3F81080EB
:101FC000D3F8008428F00E08C3F80084D3F8008406
:101FD00048F00A08C3F80084D3F8488008EA0008EB
:101FE000C3F84880D3F8488048F00408C3F8488014
:101FF000D3F84C8008EA000040F24338D86408BFA8
:102000006046D3F84CC018BF404640F2EF184CF081
:102010004D0C07900498C3F84CC0D3F850C00CEA9C
:10202000070740F2FF1C1F6518BFE2461F6D40F214
:102030002F3C47EA000703981F6508BF6746D3F89F
:1020400054C018BF47464FF023080CEA060CC3F8EB
:1020500054C0D3F854C04CF0010C19E051300008C2
:1020600021310008A086010059520008FC07002019
:102070009D1C0008006C01400386FCFF000200204C
:102080008C07002000F0FFFF0080FFFF040200200B
:10209000C3F854C0D3F858C00CEA060CC3F858C0B3
:1020A000D3F858C04CEA0B0CC3F858C0D3F85CC046
:1020B0000CEA060C614EC3F85CC0D3F85CC04CF06F
:1020C000100CC3F85CC0D3F860C00CEA0E0EDFF849
:1020D00074C1C3F860E0D3F860E040EA0E0EC3F8C4
:1020E00060E0D3F838E02EF4004EC3F838E0D3F8BF
:1020F00038E04EF4004EC3F838E0D3F818E02EF480
:102100007F0EC3F818E0D3F818E006984EF4801E4E
:10211000C3F818E0D3F818E02EF0FF0EC3F818E06B
:10212000D3F818E0C3F818E0D3F838E02EF4005ED6
:10213000C3F838E0D3F83890D2F868E049F4005298
:10214000F062316601209A634FF08041D3F83890F5
:102150004FF00042706129F480590798C6F81C803E
:1021600070623046C3F83890D3F83890DFF8D880E2
:1021700049F48059C3F83890D3F8389029F40069AD
:10218000C3F83890D3F8389049F40069C3F8389010
:10219000D3F8389029F48069C3F83890D3F8389090
:1021A00049F48069C3F83890D3F8389029F400795D
:1021B000C3F83890D3F8389049F40079C3F83890D0
:1021C000D3F8389029F48079C3F83890D3F8389050
:1021D00049F48079C3F83890D3F8389029F48049CD
:1021E000C3F83890D3F8389049EA0E0EC3F838E0B7
:1021F000039BB486736686F83640C6F800C0C6F8FE
:1022000020B0B461C6F830A0B762C6E90121C6E9C2
:102210000344C0472B68059920465A68084D42F090
:1022200001025A60D3F8042442F00802C3F80424DF
:10223000A847204609B0BDE8F08F00BFEC0600209B
:102240008508000800680140F114000870B50024FA
:1022500082B003230D4E2246012101949F20009459
:10226000B0470B4D01219F20A8472246032301219F
:102270008E20CDE90044B04701218E20A847054BB0
:1022800001209847204602B070BD00BF51300008C1
:1022900021310008F11C00082C4B01281A680BD8CA
:1022A00008784978536FDB07FCD50B0443EA002319
:1022B00043F01503D3667047F0B50D5C536FDB0731
:1022C000FCD5032837D900246CBB0B78072491F880
:1022D00001E006261B028F784FF0050C43EA0E43FF
:1022E0004FF0040E43EA076303272B43136711F8EB
:1022F0000E30A04211F80CC04FEA0323CF5D8E5D73
:1023000043EA0C4343EA070343EA06631367DBD857
:102310000130030218469BB200F47F0043F03903FA
:102320001843D066F0BD04F1010E04F1020CE61C66
:1023300027460434DBE74B780C781B04897843EAA2
:10234000042343EA01631D431567E1E7FC0700200E
:102350004FF47A720023024902FB00F21846084744
:1023600059520008014B53F821007047D413002044
:10237000B02070470023064A10B552F821201846B5
:10238000044CA047044C0A220023A04710BD00BF04
:1023900094160020E5500008814D03082DE9F04710
:1023A0000F2782B090460C1101EA0706012501A80B
:1023B000374AB3008946B5404FEA960A03F00C034A
:1023C0009F409C409047B8F1000F48D0314A02EB43
:1023D0008A0293683B40A34208D02F4B1B682B42D4
:1023E00047D1936823EA0703234393602B4976017F
:1023F00000232B4C8F192B4A184601F8069052F8EF
:1024000029203C6128498847284C0A220023A047FC
:10241000274B78600020C7F81480EC4398471E4A89
:10242000C7E9020190682146134620409060D068B9
:102430000140D160D1682943D160916829439160FE
:102440005D6158692840FBD11A68044615431D6038
:1024500001A8184B9847204602B0BDE8F0870AF162
:1024600002020C4B53F822301F40A74203D04446CF
:10247000EEE70C24ECE708494446084B0A6803EBF6
:10248000461622EA05050D60C6F81480E0E700BF95
:102490009535000800380140003C0140E81000205C
:1024A000E812002094160020E5500008814D030832
:1024B000E9510008A1350008A1F1FF30B0FA80F021
:1024C0004009AF29C8BF40F0010018B9032A98BFDE
:1024D000012070470020704730B583B00C460B4B8D
:1024E00001A89847AF2C0EDC631C0CD0084B1D5D77
:1024F0003DB901221A5501A8064B9847284603B05A
:1025000030BD0C25F7E70325F5E700BF953500083A
:1025100024130020A1350008AF2915DCA1F1FF30FC
:10252000B0FA80F0400978B9012330B40D1101F000
:102530000F01064C9A4203FA01F104EB852418BFFF
:102540000904A16130BC70470320704700000240BD
:10255000AF2915DCA1F1FF30B0FA80F0400978B95D
:10256000084B10B40C1101F00F0103EB84235DF84C
:10257000044B1B6923FA01F101F00101116070475E
:102580000320704700000240AF2938B51ADCA1F1E2
:10259000FF34B4FA84F46409A4B9501E42F20E73F5
:1025A00098420CD842F210730D462046074982FB30
:1025B00003238847064B43F82500204638BD0F24E7
:1025C000204638BD0324204638BD00BF19510008FD
:1025D00094160020344B2DE9F04F5C6999461B6836
:1025E00083B00A26314D1C40DFF8DC80304FC4F345
:1025F000852405E0640806F1010605F1200525D0D3
:10260000E307F7D56846C04701A8B84795F84021C9
:102610000123AF2A03FA06F31BDDC9F81430D5F8FD
:1026200054314BB1D5F844210ABBD5F8582195F85F
:102630004011D5F8500198471E4B01A898476846AD
:102640001D4B0136984720356408D9D103B0BDE849
:10265000F08F1011194902F00F0201EB8021096976
:1026600021FA02F202F00102C5F85821D5E705F57A
:10267000A47A134B00209847124B95F84021DAE9D1
:1026800000BC53F822200023B0EB0B0B61EB0C0CC9
:102690009C4508BF9345CFD3094B00209847CAE912
:1026A0000001D5F85431C0E7003C0140E81000209B
:1026B00095350008A135000881350008000002406A
:1026C000E9510008941600206D350008334B2DE9C0
:1026D000F04F5C6999461B6883B00526304D1C405D
:1026E000DFF8D4802F4FC4F3441405E0640806F1EA
:1026F000010605F1200525D0E307F7D56846C04758
:1027000001A8B84795F8A0200123AF2A03FA06F3E1
:102710001BDDC9F81430D5F8B4304BB1D5F8A4207E
:102720000ABBD5F8B82095F8A010D5F8B0009847A6
:102730001D4B01A8984768461C4B01369847203529
:102740006408D9D103B0BDE8F08F1011184902F028
:102750000F0201EB8021096921FA02F202F0010265
:10276000C5F8B820D5E70020DFF850A0D047114BBE
:1027700095F8A020D5E92ABC53F822200023B0EB1D
:102780000B0B61EB0C0C9C4508BF9345D0D300208C
:10279000D047D5F8B430C5E92A01C2E7003C014072
:1027A000E810002095350008A135000881350008A3
:1027B00000000240941600206D350008E951000821
:1027C0002DE9F04182B00D462A4E6846B047AF2D44
:1027D00047DCA5F1FF34B4FA84F46409002C40D13D
:1027E00005F00F07244A2B1101A854559D02DFF86C
:1027F0009080B04703227B0055F808604FEAE70E4F
:1028000001A89A4005EB0803D14306EA010C03EB4B
:102810008E064FEA870E45F808C0D3F80CC00EF0BC
:102820001C054FF00F0E01EA0C0C0EFA05FEC3F862
:102830000CC04FF0010C9D680CFA07FC29400F4DAD
:1028400011439960326A22EA0E0232625F6827EA17
:102850000C075F60A8476846A847204602B0BDE85D
:10286000F0810324054D6846A847204602B0BDE824
:10287000F08100BF9535000824130020A135000821
:10288000000002402DE9F04882B0214B214C6846FF
:102890009847214B01A898472378AF2B13DD1F4A97
:1028A0000121656951612DB16268CAB91946A269F1
:1028B0002069A84701A81A4B98471A4B68469847C1
:1028C00002B0BDE8F0881911174803F00F0200EBC1
:1028D0008121096921FA02F202F00102A261DEE718
:1028E0000020124DA847124B2278D4E9026753F812
:1028F00022200023861B61EB07079F4208BF9642F8
:10290000D8D30020A84765692378C4E90201CDE740
:102910006D350008E810002095350008003C0140A6
:10292000A13500088135000800000240E951000887
:10293000941600202DE9F04882B0234B234C6846C2
:102940009847234B01A8984794F82030AF2B13DD0C
:10295000204A0221656B51612DB1626ACAB91946DC
:10296000A26B206BA84701A81B4B98471B4B6846DE
:10297000984702B0BDE8F0881911194803F00F021A
:1029800000EB8121096921FA02F202F00102A2633F
:10299000DEE70020134DA847134B94F82020D4E91C
:1029A0000A6753F822200023861B61EB07079F422A
:1029B00008BF9642D7D30020A847656B94F8203013
:1029C000C4E90A01CBE700BF6D350008E81000201C
:1029D00095350008003C0140A1350008813500080C
:1029E00000000240E9510008941600202DE9F0484B
:1029F00082B0264B264C68469847264B01A898473C
:102A000094F88030AF2B17DD234A1021D4F894506E
:102A1000516145B1D4F88420E2B91946D4F8982020
:102A2000D4F89000A84701A81C4B98471C4B684657
:102A3000984702B0BDE8F08819111A4803F00F0258
:102A400000EB8121096921FA02F202F00102C4F8C7
:102A50009820D9E70020144DA847144B94F8802003
:102A6000D4E9226753F822200023861B61EB070775
:102A70009F4208BF9642D6D30020A847D4F894506E
:102A800094F88030C4E92201C7E700BF6D35000823
:102A9000E810002095350008003C0140A1350008F1
:102AA0008135000800000240E9510008941600201A
:102AB0002DE9F04882B0234B234C68469847234BBE
:102AC00001A8984794F84030AF2B13DD204A042129
:102AD000656D51612DB1626CCAB91946A26D206D48
:102AE000A84701A81B4B98471B4B6846984702B064
:102AF000BDE8F0881911194803F00F0200EB81219D
:102B0000096921FA02F202F00102A265DEE7002063
:102B1000134DA847134B94F84020D4E9126753F89B
:102B200022200023861B61EB07079F4208BF9642C5
:102B3000D7D30020A847656D94F84030C4E912014E
:102B4000CBE700BF6D350008E81000209535000880
:102B5000003C0140A135000881350008000002401A
:102B6000E9510008941600202DE9F04882B0234B6B
:102B7000234C68469847234B01A8984794F8603047
:102B8000AF2B13DD204A0821656F51612DB1626EB4
:102B9000CAB91946A26F206FA84701A81B4B9847D6
:102BA0001B4B6846984702B0BDE8F08819111948D8
:102BB00003F00F0200EB8121096921FA02F202F011
:102BC0000102A267DEE70020134DA847134B94F8DB
:102BD0006020D4E91A6753F822200023861B61EB9A
:102BE00007079F4208BF9642D7D30020A847656FCA
:102BF00094F86030C4E91A01CBE700BF6D350008D6
:102C0000E810002095350008003C0140A13500087F
:102C10008135000800000240E951000894160020A8
:102C2000AF2911DC4B1C0FD02DE9F04F154683B0B6
:102C30000C46052A00F29381DFE812F04E008C006A
:102C4000CC000D01520108000320704701F00F066F
:102C5000C44B01A80F114FEA4608DFF814A39847A8
:102C60000322BF024FF0010E02FA08F201A857F842
:102C70000AB00EFA08FCD14307EB0A030EFA06FE6F
:102C80004FEAE6080BEA010BB60003EB88084BEAB3
:102C90000C0B06F01C0947F80AB00F27DE6807FA8C
:102CA00009F9B14F0E4046EA0C06DE609E683140DD
:102CB00011439960D8F8206026EA0906C8F8206018
:102CC0005A6822EA0E025A60B847A84B002043F81F
:102CD000245003B0BDE8F08F01F00F08A14B01A80C
:102CE0000E114FEA480ADFF8889298470323B6028C
:102CF00001A803FA0AF14FEAE80E56F8097006EB4C
:102D00000902CB4307EA030C02EB8E0746F809C021
:102D10004FEA880CD2F80CE00CF01C064FF00F0CB8
:102D200003EA0E0E0CFA06FC0126C2F80CE0D2F8FB
:102D300008E006FA08F88C4E03EA0E030B43936092
:102D40003B6A23EA0C033B62536823EA080353609F
:102D5000B047BAE701F00F06824B01A80F114FEA06
:102D60004609DFF80C8298470323BF02012103FACA
:102D700009FE4FEAE60C57F808A001FA09F36FEADA
:102D80000E0907EB0802B140B6000AEA090A02EB95
:102D90008C0C06F01C0601A843EA0A0347F8083029
:102DA0000F23D76803FA06F86F4E09EA0707D760C2
:102DB000936809EA03034EEA03039360DCF82030CA
:102DC00023EA0803CCF82030536823EA010151605C
:102DD000B0477AE701F00F06624B01A80F114FEAE6
:102DE0004608DFF88C9198470323BF024FF0010C8F
:102DF00003FA08F101A857F809E007EB0902CB43F1
:102E00000CFA08F80CFA06FC0EEA030E47F809E083
:102E1000F710D2F80CE0B60002EB870703EA0E0EBB
:102E200006F01C0648EA0E084FF00F0EC2F80C80A0
:102E30000EFA06FED2F808804B4E03EA08030B4355
:102E400093603B6A23EA0E033B62536823EA0C0358
:102E50005360B04739E701F00F07424B01A80E114C
:102E60004FEA4708DFF8089198470322B6024FF06F
:102E7000020E02FA08F101A856F809C006EB090390
:102E8000CA430EFA08F807FA0EFE0CEA020C46F8DE
:102E900009C0FE10D3F80C900EF01C0C03EB860654
:102EA0004FF00F0E02EA09090EFA0CFE4FF0010C6A
:102EB00048EA09080CFA07FCC3F80C80D3F808802C
:102EC00002EA0802DFF8A0800A439A60326A22EA26
:102ED0000E0232625F6827EA0C075F60C047F4E6C3
:102EE00001F00F061F4B01A84FEA21197700DFF808
:102EF00080A0984703234FEA89294FF0010C03FA79
:102F000007F84FEAE60E59F80A100CFA07F26FEAD2
:102F1000080309EB0A070CFA06FCB600194007EB98
:102F20008E0E06F01C0601A811430F2249F80A1064
:102F300002FA06F9F9680C4E1940F960BA681340B4
:102F400048EA0303BB60DEF8202022EA0902CEF83B
:102F500020207B684CEA03037B60B047B5E6042081
:102F6000B7E600BF95350008A1350008D41300204E
:102F700000000240A0F1FF330246B3FA83F35B097D
:102F8000AF28D4BF184643F0010030B904498B5C28
:102F900023B901238B54184670470020704700BFA7
:102FA00024130020AF2848DCA0F1FF32B2FA82F2ED
:102FB0005209002A41D1034621492DE9F04182B04E
:102FC00000F00F051F4E041101A84FEA4508F25406
:102FD00088470322A4021C4F4FEAE50E02FA08F2CA
:102FE00001A8E659E319D143DFF8608006EA010C35
:102FF00003EB8E0644F807C0AF00D3F80CC007F00F
:103000001C040F2701EA0C0CA7400124C3F80CC0D4
:10301000D3F808C004FA05F501EA0C0111439960E0
:10302000326A22EA070232625A6822EA05055D60C6
:10303000C047204602B0BDE8F0810020704700BFC5
:10304000953500082413002000000240A135000837
:103050002DE9F04FAF2885B09DF838A09DF83C6071
:1030600050DC441C4ED000F00F054FF0010C1F4601
:10307000914605FA0CF20411264B03A801FA02F856
:103080000AFA02FA974000920CFA05F2A4024FEAFB
:10309000850B019298470323009A1F490BF01C0BE4
:1030A00003FA02F21D4163580F20D24306FA0BF6D1
:1030B00000FA0BFB60181340B9F1010F00EB850516
:1030C00043EA08036350C36803EA020343EA0A03BE
:1030D000C360836802EA030247EA020787602B6A3B
:1030E00023EA0B0B4BEA06032B6243680ED0019ACE
:1030F00023EA0206466003A8084B9847012005B062
:10310000BDE8F08F002005B0BDE8F08F019E1E43A2
:103110004660F0E79535000800000240A135000840
:1031200010B4074A0411012300F00F0002EB8422BF
:1031300003FA00F001B9000490615DF8044B704798
:10314000000002402DE9F04F654E89B04FF00009B4
:10315000DFF8CCB1DFF8CCA107E009F101090AF1F1
:10316000070AB9F1B00F00F09380002509F00F04B1
:103170005C4A0023284606F8015F5B4988475B4F9D
:10318000A2084BF8040FA1000F23901C4FEA19125C
:1031900001F00C0157F820008B408A4003409A420E
:1031A0000AD153480121534B0268A14003EB441359
:1031B00022EA010202605D619AF80630002BCCD051
:1031C000A1004FF0010C9AF804E007A801F01C01DF
:1031D00004FA0CF59AF803704FEA29180EFA01FE6A
:1031E0009AF8022005910CFA04F1AA40AF40009130
:1031F0004FEA88289AF801103F4BCDF808E0039772
:1032000004929AF80070019198470323DFF818C1DF
:1032100007FA05F205991C41AB4058F80C0008EB81
:103220000C05DB434FF00F0E05EB840418400EFA3B
:1032300001F1104348F80C00EA6803981A40024371
:1032400007A8EA60AA681340049A1343009AAB6087
:10325000236A23EA0101029B1943216201996B68E9
:1032600001290CBF134393436B60244B9847012FF4
:103270007FF473AF9AF80530002B2CD009F10109C7
:10328000009B0AF1070AB9F1B00FAB617FF46DAF93
:10329000174B00241A4D06201C6022461949A847E6
:1032A000224619490720A847224618490820A8475E
:1032B000224617490920A847224616490A20A8474E
:1032C000224615491720A847224614492820A84716
:1032D00009B0BDE8F08F009B1B04AB613DE700BF68
:1032E00023130020400D030019510008003801404D
:1032F000003C0140E810002095350008A135000889
:10330000153500088528000835290008B12A00086D
:10331000692B0008ED290008CD260008D5250008F6
:1033200090160020E06403080000024070B5184BBE
:103330000026184D0020184C00210122DC60174C9B
:10334000C3E90165164D5C611D61164D164C9D610A
:10335000164DDC61164C1D62164D5C62164C9D626A
:10336000164DDC62164C1D63164D5C63164C9D6356
:10337000164D1C60E361164B2560164D6360164BBD
:10338000A560A261C4E904019847204670BD00BF52
:10339000E8120020DD330008ED330008C1270008E3
:1033A000D92400085125000819250008B92400086F
:1033B00065230008212C00087523000889250008D2
:1033C0009D2300087123000858190020CC600308D1
:1033D000A8640308040000404531000808B5024B0A
:1033E0009847002008BD00BF4531000808B5024BD2
:1033F0009847002008BD00BF4531000870B4134B4A
:103400004FF0FF32124C06461248C3F88020E063AA
:10341000C3F88420C3F88820C3F88021C3F884212E
:10342000C3F88821BFF35F8F0B4A00200B4DC3F810
:103430000C2CC3F8084CD3F8242C094C42F4E0229D
:10344000C3F8242C2E60216070BC704700E100E0BE
:1034500000000020495500080007FA057C190020EB
:103460007819002000207047EFF3108000F0010071
:10347000704700BF62B60120704700BFEFF31080B5
:1034800072B600F001007047EFF3108362B630BFF0
:1034900083F31088704700BF62B67047114B00205D
:1034A0001149124A70B4C3E9010111490024DA60DC
:1034B0000025104A012619610F495A6199610F4A86
:1034C0000F49DA6119620F4A0F491A601046D36139
:1034D00011600E4B0E499661C2E90445C2E9011321
:1034E00070BC7047A0190020FD3300086534000847
:1034F000753400087D3400088934000869340008F8
:103500009934000880190020CC60030801000020D5
:10351000B069030803460B4A103010B442F820107B
:10352000BFF35F8F012003F01F0207495B1100FA10
:1035300002F201EB8304C4F8802141F823205DF8F6
:10354000044B70470000002000E100E0012341111E
:1035500000F01F0220311846934010B4024C44F88A
:1035600021305DF8044B704700E100E0034B10B5DB
:1035700004461B689847204610BD00BF7C190020F8
:10358000034B10B504461B689847204610BD00BF8A
:1035900078190020EFF31082026072B6704700BF06
:1035A0000368DB0700D462B6704700BF006800F014
:1035B000010070470368DB0703D5EFF31083036056
:1035C00072B670470368DB0703D4EFF31083036020
:1035D00062B67047014B024ADA60FEE700ED00E098
:1035E0000400FA0500207047012911D002290BD1EF
:1035F0001C491D4A0B6943F004030B61136843F037
:103600000203136030BF7047174B1B6830BF704711
:10361000144B40F201221448196941F00401196168
:1036200001680A43026030BF104A1068114640F436
:10363000803010601A6922F004021A610B689A0344
:10364000FCD50B68094A43F080730B6013689B013B
:10365000FCD5936843F002039360136823F00103E1
:103660001360704700ED00E0007000400038024039
:10367000002070470E4A00200E4B0F4970B4C2E97B
:103680000103D16000240D4B00250D490126136173
:1036900051610C4B0C4913601846DA6119600B4AF2
:1036A0000B499E61C3E90445C3E9011270BC704730
:1036B000C4190020E535000871360008D53500082A
:1036C000E9350008E0190020CC6003080200002062
:1036D000EC6903080420704743680B4AC3EBC3033B
:1036E0001B01D358DB0302D49FED030B70479FED02
:1036F000040B7047AFF3008000000000CCBF89418D
:1037000000000000CCBF9941381A002000000000E2
:103710009FED010B704700BF000000000000F03F6C
:103720002DE9F04FD0F8049093463F4D88464FEA7C
:10373000C9033E4A3E4C2DED028B85B0B0EE408A67
:10374000F0EE608A0193A3EB09031B0105EB030A6A
:10375000EF58DAF860603046904753EC182BCDE90B
:103760000201A047334B9847DAF86430DAF8682052
:10377000864206F1FF3103F1FF3328BF0646052AD2
:10378000BB62F96237D0022A35D007F13403B2B2F6
:1037900023F828204FEA8802022393403A6ABBF1BB
:1037A000000F38D013433B62019B214CA3EB09036C
:1037B00008EB430305EBC303DDE90201D3E9102362
:1037C000A0471C4B9847B04201D001237B61019B6D
:1037D0000020A3EB090405EB041308EB4404984410
:1037E00005EBC40488F824B084ED108B05B0BDEC63
:1037F000028BBDE8F08FB8F1000F01D17E63C9E7FD
:10380000B8F1010F0BD0B8F1020F0AD0B8F1030FD5
:10381000C0D13E64BEE722EA03033B62C4E7BE6355
:10382000B8E7FE63B6E700BF381A00205D4503081D
:1038300051460308014C0308F8B543680E462C4C6A
:103840000746C3EBC3032B4906EB43021B0104EB02
:10385000C202E55850688847002842D015F4803FDE
:103860002549264AC5F3842308BF0A464FF0010CB8
:10387000786811680CFA03F319424FEAC0010ED1BF
:1038800017683B430F1A04EB071713608422BB6EC3
:103890002A60012BC5F814C025D0082B23D016F0C0
:1038A000010F4FF0000305F1340214BF4FF4D04C68
:1038B0004FF0680C22F82630B3070ED405F1180734
:1038C000AB69091A43EA0C030122002004EB01143E
:1038D0003B60A11981F82820F8BD05F11C07EB69B0
:1038E000EFE70C20F8BD6B6C43F400436B64D6E744
:1038F000381A0020752F0008403802404438024032
:10390000F8B50D46416806461F4CCB0015F0010F77
:10391000A3EB010214BF6FF47F4C6FF0FF0CA807FC
:103920004FEA0212A2582BD402F11807906900EA5C
:103930000C0038609769D06938430ED112F4803F8B
:10394000DFF850C01148C2F3842208BF6046012747
:103950009740026822EA070202605B1A0C4A05EBF4
:10396000430304EBC3035868904771680023C1EB1D
:10397000C101184604EB0114611981F82830F8BD23
:1039800002F11C07D069D2E7381A002044380240FF
:10399000A52F000840380240406800220323C0EBF6
:1039A000C000F0B501EB40060F4D83B0000105EB00
:1039B000C6060C46009202212D58A4007068367A83
:1039C0000A4F0196B84701222B6A02FA04F4A4B206
:1039D0001C432C622B68D90703D413436A619BB242
:1039E0002B60002003B0F0BD381A002051300008D1
:1039F000426803231348C2EBC202F0B5150101244B
:103A00008F000026455901EB420104FA07F783B005
:103A10002C6A00EBC10032463146A4B2406824EA69
:103A20000704094F2C62CDE90066B84741F2111333
:103A30001C4203D12B6823F001032B60002003B04C
:103A4000F0BD00BF381A002051300008000000000F
:103A500043682DE9F04FDA0087B0DFF884920393D2
:103A6000D31A04921B018E4AD618D55800228D4BCA
:103A700005F4803596ED0E7B58EC177B17EE100A97
:103A800041468DED007BC847002800F09080864CB1
:103A90003A4643467EA1D1E90001A0470022834C6B
:103AA000834BA047834B9847002D04460290824ADF
:103AB00018BFD825814808BF6C25814918BF014629
:103AC0009442B36E22D804FB05F47E4A7E4F012552
:103AD000A2FB0424A409022B00F08D80052B00F02A
:103AE0008A80B4F5803F05D285E064086D00B4F5A6
:103AF000803F17D3B5F5004FF7D94FF0000A4FF0CC
:103B0000000B4BEC10AB07B0BDE8F08F22466D4CBC
:103B1000022BA4FB02244FEA941400F0A280052B90
:103B2000694FDED1B1FBF5F305934FF00108B3FB0C
:103B3000F4F6B7FBF6F6654BB7FBF6F0984782460E
:103B40008B4602460B46DDE90001C847002856D0E7
:103B500018F0FF0F03D0029B9E4280F08780013453
:103B6000059BB3FBF4F6B7FBF6F6002EC5D09846DE
:103B70000595564B4FF00105B7FBF6F09847824686
:103B80008B4602460B46DDE90001C84708B94FF0F5
:103B9000000515F0FF0F02D0029B9E4265D2013452
:103BA000B8FBF4F6B7FBF6F6002EE2D1A5E7DDE9A7
:103BB00000AB0022464B50465946C84728B33A4C02
:103BC00052465B46434F34A1D1E90001A047002291
:103BD000364C374BA047374B9847002D384A0446A0
:103BE000B36E18BFD825354904BF6C251146022B8A
:103BF00002907FF473AF002C3FF47FAF92E74FF059
:103C0000000818F0FF0FA6D1A9E752465B46264CE4
:103C100000202449A0470022254B244CA047254BD7
:103C20009847002D2C4B264A24492C4D04BF1146A1
:103C30001D46031E0293FFF660AF1C4602E0002CF7
:103C4000FFF65BAF6D086400B5F5803FF7D8DDE99E
:103C500003234FF47A779B1A114A02EB03139B6EEE
:103C600039E71C4B184F05935FE7059DDDE90323FA
:103C70004BEC10AB9B1A0A4A02EB0313C3E90CABE3
:103C8000C3E9184507B0BDE8F08F00BFAFF300806F
:103C90000000000065CDCD410000000080842E4171
:103CA000381A002000408F40A5480308E542030869
:103CB0000000E03F014C03084B682F0100E6DF0CD9
:103CC00000F36F06D34D621000CA9A3B5D450308AE
:103CD0000000F03F40420F00E0A50100C04B030090
:103CE0005D4B030843682DE9F04FC3EBC303B54CAC
:103CF00083B0814604EB03158846DFF8D8A2D1E9EA
:103D00000067D5E90E0132463B46D04718B1002086
:103D100003B0BDE8F08FC5E90E67AB4B4846984746
:103D2000D9F80450EE00731B1B01E7187A680132C2
:103D300088ED000B5AD1731B1B01E718FA6801329A
:103D400040F09880731B1B01E7187A69013240F03C
:103D5000D280731B1B01E718FA690132D7D0D7F85C
:103D600060909A4A484654F803809047DFF868B25A
:103D700097F827A097ED167B53EC172B8DED007B62
:103D8000D847934B98477B6EBA6E814509F1FF3C4B
:103D9000494603F1FF3328BF0146052AC8F82830F9
:103DA000C8F82CC000F00B81022A00F0088189B20B
:103DB000A8F84010D8F82030BAF1000F00F0F180D8
:103DC00043F40053C8F82030814502D20123C8F8DB
:103DD0001430751B00209DED007B04EB051484F866
:103DE00027A084ED167B03B0BDE8F08FD7F8609074
:103DF000764A484654F803809047DFF8DCB197F8DC
:103E000024A097ED107B53EC172B8DED007BD8474A
:103E10006F4B98477B6EBA6E814509F1FF3C49466E
:103E200003F1FF3328BF0146022AC8F82830C8F83A
:103E30002CC000F0BB80052A00F0B88089B2A8F839
:103E40003410BAF1000F00F09780D8F8203043F01A
:103E50000203C8F82030814502D20123C8F814308B
:103E6000731B9DED007B04EB031383F824A083ED0B
:103E7000107B60E7D7F86090544A484654F80380B6
:103E80009047DFF854B197F825A097ED127B53ECDB
:103E9000172B8DED007BD8474D4B98477B6EBA6E44
:103EA000814509F1FF3C494603F1FF3328BF014634
:103EB000052AC8F82830C8F82CC07AD0022A78D051
:103EC00089B2A8F83810BAF1000F5CD0D8F82030C9
:103ED00043F02003C8F82030814502D20123C8F8FE
:103EE0001430731B9DED007B04EB031383F825A0B6
:103EF00083ED127B26E7D7F86090344A484654F8A1
:103F000003809047DFF8D0B097F826A097ED147B98
:103F100053EC172B8DED007BD8472D4B98477B6ECC
:103F2000BA6E814509F1FF3C494603F1FF3328BFD2
:103F30000146052AC8F82830C8F82CC03CD0022A0F
:103F40003AD089B2A8F83C10BAF1000F22D0D8F8C4
:103F5000203043F40073C8F82030814502D2012399
:103F6000C8F81430731B9DED007B04EB031383F83A
:103F700026A083ED147BECE6D8F8203023F0020372
:103F8000C8F8203067E7D8F8203023F02003C8F8BD
:103F90002030A1E7D8F8203023F40073C8F820308F
:103FA000DBE723F40053C8F820300DE7C8F83410DD
:103FB00047E7C8F8381086E7C8F83C10C4E7C8F8E7
:103FC0004010F7E6381A0020513A00085D45030812
:103FD000014C0308214B0308514603082DE9F04F1B
:103FE000CB4B4FEA4018C600CA4C53F8082003EBED
:103FF0000801331A83B00979054604EB03135A60AC
:104000000132197206D000220020002183F82420FA
:10401000C3E91001731B04EB031393F82830002B42
:1040200061D1BB4B03EB0802731B916804EB0313D4
:10403000127BD96001311A7406D0002200200021C1
:1040400083F82520C3E91201731B04EB031393F8D3
:104050002930002B40F06A81AD4B03EB0802731B43
:10406000116904EB0313127D596101311A7606D0F0
:1040700000220020002183F82620C3E91401731BCD
:1040800004EB031393F82A30002B40F0E480A04B9C
:1040900003EB0807731BBA6904EB0313397FDA617A
:1040A000013283F8201006D000220020002183F87E
:1040B0002720C3E91601731B04EB031393F82B307D
:1040C000002B6DD1761B00220023013504EB061472
:1040D0000021A566C4E91811C4E90E23C4E90C2324
:1040E00003B0BDE8F08FDFF83C924FF0000C0323E3
:1040F000894F59F82510624648686146C0EBC000F8
:10410000000154F800B02044DBF820A040681FFAFA
:104110008AFA2AF0010E1FFA8EFECBF820E0CDE9D4
:1041200000CCB84741F210131AEA030F05D1DBF8AF
:10413000003023F00103CBF8003059F82590D9F86E
:104140000430D800C21A1201A258916921F0FF016F
:104150009161D2F818C0D1695CEA010110D112F462
:10416000803FDFF8C4E16D49C2F3842208BF714685
:104170004FF0010C0CFA02FC0A6822EA0C020A60F9
:10418000C31A674A04EB031358689047D9F8043000
:104190000022C3EBC30304EB031383F8282040E79A
:1041A000DFF880914FF0000C03235B4F59F8251086
:1041B000624648686146C0EBC000000154F80080C8
:1041C0002044D8F820A0C0691FFA8AFA2AF4805E39
:1041D0001FFA8EFEC8F820E0CDE900CCB84740F2C7
:1041E00011131AEA030F05D1D8F8003023F00103A8
:1041F000C8F8003059F825707968CA00531A1B01B5
:10420000E358D86920F47F40D861D3F818C0D86942
:104210005CEA000010D113F4803FDFF80CE13F4866
:10422000C3F3842308BF70464FF0010C0CFA03FC63
:10423000036823EA0C030360521A394B04EB0212A1
:10424000D06998477B680022C3EBC30304EB0313D8
:1042500083F82B2036E7DFF8CC904FF0000C0323D7
:104260002D4F59F82510624648686146C0EBC000E2
:10427000000154F800B02044DBF820A040691FFA88
:104280008AFA2AF4807E1FFA8EFECBF820E0CDE970
:1042900000CCB84741F211031AEA030F05D1DBF84D
:1042A000003023F00103CBF8003059F82590D9F8FD
:1042B0000430D800C21A1201A258D16921F0FF01BE
:1042C000D161D2F818C0D1695CEA010110D112F4B1
:1042D000803FDFF854E01149C2F3842208BF7146E1
:1042E0004FF0010C0CFA02FC0A6822EA0C020A6088
:1042F000C31A0B4A04EB031358699047D9F80430EA
:104300000022C3EBC30304EB031383F82A20BEE6A9
:104310005C6A0308381A0020513000084438024013
:10432000A52F0008001A002040380240DFF8C49092
:104330004FF0000C03232C4F59F8251062464868B3
:104340006146C0EBC000000154F800B02044DBF827
:1043500020A0C0681FFA8AFA2AF0100E1FFA8EFEFB
:10436000CBF820E0CDE900CCB84741F201131AEABE
:10437000030F05D1DBF8003023F00103CBF8003048
:1043800059F82590D9F80430D800C21A1201A25861
:10439000916921F47F419161D2F818C0D1695CEA3A
:1043A000010110D112F4803FDFF84CE00F49C2F355
:1043B000842208BF71464FF0010C0CFA02FC0A6817
:1043C00022EA0C020A60C31A094A04EB0313D868F4
:1043D0009047D9F804300022C3EBC30304EB031366
:1043E00083F8292038E600BF5130000844380240E5
:1043F000A52F0008001A00204038024028B140686C
:1044000008B5034B9847002008BD0220704700BF45
:10441000DD3F000828B1406808B5034B98470020ED
:1044200008BD0220704700BFDD3F0008E74A0021B9
:104430004FF0010CE64B02F168002DE9F04FDFF878
:10444000C8B302F13404022783B0DFF8C0A3E14E01
:10445000DFF8BC93DFF8BC83DFF8BCE3DE4DC2F8C5
:1044600038C0D766DFF8B4C3DC4F51600191CBF898
:104470000800DB49DB48C2F808A0C2F83CA0C2F83B
:1044800070A0D360136416615664C2F81490C2F829
:104490004890C2F81880C2F84C80C2F81CE0C2F8FC
:1044A00050E0C2F820C0C2F854C057629765D0628D
:1044B0001066156055639566CBE90024CA4C94627A
:1044C000D46511635166C2F89C50C2E92374C2E9F5
:1044D00031400324C2F8A04002F19C04CBF80C4008
:1044E00002F1D004C2E91D36C2E91F98C2E921ECED
:1044F000C2E92501C2E929A3C2E92B69C2E92D8ECF
:10450000C2E92FC7C2E936A3C2E93869C2E93A8EC7
:10451000C2E93315CBF810400424C2F80011C2F8E8
:10452000D440B14CC2F80CA1C2F82C41C2F8604191
:10453000C2F81031C2F81461C2F81891C2F81C8197
:10454000C2F820E1C2F824C1C2F82871C2F83001D3
:10455000C2F83411C2F840A1C2F84431C2F848612F
:10456000C2F84C91C2F85081C2F854E1C2F858C167
:10457000C2F85C71C2F86401C2F86811C2F8045153
:10458000C2F83851C2E93E4002F58274CBF81440BB
:104590000524C2F8084102F59C74C2E93CC7CBF877
:1045A00018400624C2F874A1C2F83C4102F5B67462
:1045B000C2F87831CBF81C408B4CC2F87C61C2F851
:1045C0009441C2F8C84102F5D074C2F88091CBF88A
:1045D000204002F5EA74C2F88481CBF82440072415
:1045E000C2F888E1C2F870410824C2F88CC1C2F850
:1045F0009071C2F89801C2F89C11C2F8A8A1C2F843
:10460000AC31C2F8B061C2F8B491C2F8B881C2F856
:10461000BCE1C2F8C0C1C2F8C471C2F8CC01C2F892
:10462000D011C2F8DCA1C2F8E031C2F86C51C2F876
:10463000A051C2F8D451C2F8A4410924C2F8E461DF
:10464000C2F8D84102F50274C2F8E891CBF82840CC
:10465000654CC2F8EC81C2F8FC41C2F8304202F568
:104660000F74C2F8F0E1CBF82C400A24C2F8F4C170
:10467000C2F8F871C2F80002C2F80412C2F810A21F
:10468000C2F81432C2F81862C2F81C92C2F8208232
:10469000C2F824E2C2F828C2C2F82C72C2F834026E
:1046A000C2F83812C2F844A2C2F84832C2F84C62CA
:1046B000C2F85092C2F85482C2F858E2C2F85CC202
:1046C000C2F80852C2F83C52C2F80C420B24C2F89D
:1046D0006C12C2F8404202F51C74C2F8A012C2F873
:1046E000D41202F52971CBF83040CBF834100C21EC
:1046F0003D4CC2F87C32C2F86442C2F89842C2F81B
:10470000B032C2F8CC424FF08044384BC2F8741239
:104710000D21C2F86072C2F86802C2F878A2C2F82D
:104720008062C2F88492C2F88882C2F88CE2C2F831
:1047300090C2C2F89472C2F89C02C2F8ACA2C2F84D
:10474000B462C2F8B892C2F8BC82C2F8C0E2C2F841
:10475000C4C2C2F8C872C2F8D002C2F87052C2F81D
:10476000A452C2F8A8121C6704F58064204EC3F856
:10477000E04004F58064DFF8A8A0C3F8504104F5D8
:104780008064DFF8A090DFF8A080DFF8A0E0DFF819
:10479000A0C0184F18481949194A1E60C3F8C041F3
:1047A0000024184EC3F830A2C3F8A092C3F81083B7
:1047B000C3F880E3C3F8F0C3C3F86074C3F8D0044F
:1047C000C3F84015C3F8B02534E000BF58200020DE
:1047D000154400083938000830230020E53C000863
:1047E000D5360008D936000811370008381A0020DD
:1047F000000001400048014000180040001C00403B
:1048000000200040DD3F0008001A0020FD430008A2
:104810000139000899390008F139000821370008EA
:10482000001000400014004000040140004001401E
:104830000044014020460134B0470E2CFAD1084E06
:104840000022084800230849AC61C5F81CB0A960E3
:10485000C5E900600548C5E9042303B0BDE8F08F51
:10486000CC600308246A03080600004030230020BF
:104870004368034A013B0348012B88BF1046704739
:10488000F36F0600F93703004368034A013B03480E
:10489000012B88BF1046704780F93703C0FC9B018D
:1048A0002DE9F041446882B0012C089857DCE700FC
:1048B0003D4E07EB040C06EB8C0CDCF810508D42DF
:1048C00065D0DFF8F8C03D1900F1FF385CF824C06E
:1048D00006EB8505B8F1020FDCF800E029612EF047
:1048E0003B0E6B612862CCF800E0AA6135D82F4BF3
:1048F00053F82850DFF8C88004F1FF3ED01746F681
:104900007813BEF1020F88FB02824DF2F02840F2CC
:10491000976EC0EBA21240F62F5024BF4346864646
:10492000B3EBC20F02D945F020057346B3EB420F3B
:1049300002D99B0845F010059342DCF80030084688
:104940001B4A88BF45F008051D43CCF8005090472E
:1049500048B9002002B0BDE8F0810025CAE7082070
:1049600002B0BDE8F0813C4400250323012106EBA1
:1049700084062A460F4CCDE900553069A0473069BE
:1049800001210D4B9847284602B0BDE8F081DCF8C4
:1049900014509D4295D1DCF82050854291D1DCF82D
:1049A000185095428DD1D4E7582300201C6C030881
:1049B000752F00085130000821310008082400201C
:1049C000D34D6210002830D000224FF0FF312DE986
:1049D000F04F446885B0DFF81881E5003F4F58F884
:1049E00034902B193E4E484607EB8303C3E904126B
:1049F0001A629A61B047A0B1DFF8F8A05AF834B053
:104A00005846B04768B1374B53F8343018460393D3
:104A1000B04730B1052C0FD8DFE804F05A544E48A7
:104A200042090C2005B0BDE8F08F022070472E4AE5
:104A3000536C43F400135364A8442C4B00264FF4EA
:104A4000517153F824E0AA4498F804C03246CEF8D5
:104A500000104846DFF8A080032302212C44CDE952
:104A6000006CC0479AF804C032460096CDF804C0E6
:104A7000584603230221C0471A4B009632462B4466
:104A80000398022107EB840493F804C00323CDF8B4
:104A900004C0C04701233046237705B0BDE8F08F3E
:104AA000114A536C43F480135364C5E70E4A536CA8
:104AB00043F400535364BFE70B4A136C43F40043C1
:104AC0001364B9E7084A136C43F480431364B3E7F3
:104AD000054A536C43F480535364ADE758230020D8
:104AE000752F0008706C030800380240082400206D
:104AF000806C0308606C03085130000800286BD0FC
:104B00002DE9F047456882B0052D09D8DFE805F0AA
:104B1000464C52585E03314A536C23F400135364DD
:104B20002F4A00242F4E032352F835902146224667
:104B3000019400944846B0472B4B2246214653F837
:104B400035700323019400943846B047274B224622
:104B5000214653F835A00323019400945046B047F2
:104B6000DFF890805046EE00C0474846C047204CD2
:104B700038467719C04704EB87073869431C08D1CA
:104B800000233544184604EB8504237702B0BDE8C2
:104B9000F087C0474FF0FF333B61F1E70F4A536C9A
:104BA00023F480535364BBE70C4A136C23F4804313
:104BB0001364B5E7094A136C23F400431364AFE7A9
:104BC000064A536C23F400535364A9E7034A536C19
:104BD00023F480135364A3E7022070470038024097
:104BE000606C030851300008706C0308806C030887
:104BF00058230020A52F00080020014B184700BFB4
:104C00007123000810B5144641B112680846054BDF
:104C1000022A054928BF0222920098470223002059
:104C2000236010BD7B510308340200202B482C4A1E
:104C300000F134012DE9F8432A4B00262A4C0125C6
:104C40001A60022761604FF0000828494FF0000900
:104C5000274A59609A602749274A8160C1630261E7
:104C600026494264264A4161816482612549C264C1
:104C7000254AC1610165026224494265244A4660B1
:104C800085634162234D816582622349C265234E5B
:104C9000234A03604363C162016602634266206087
:104CA000C56005641F4AC3E904899F61DC611E4F2A
:104CB0001E4B317FC2E9007329B996F840303BB9E9
:104CC0000848BDE8F883A84796F84030002BF7D095
:104CD0006068A8470348BDE8F88300BFA023002010
:104CE000CC6003081024002050230020286C030807
:104CF00007000040C5490008A1480008494E0008C7
:104D0000CD4E0008BD4D0008514F0008F94B00087A
:104D100071480008FD4A000889480008582300200F
:104D2000054C0008082400200030014000380040F5
:104D300000EBC0021F4BF0B592001F4C53F820301F
:104D4000A118A758D1E90245D1F804C0A5422E46C2
:104D5000B8BF2646002DCCBF9CF8001000219A68F1
:104D60009007FCD50022D960511C8E4217DD8D4280
:104D7000CCBF1CF8010000209A68D207FCD5D3F8FC
:104D80000CE09A689207FCD54A1ED860A24202DA6B
:104D90007A1802F801EC0A46511C8E42E7DC996849
:104DA000C907FCD5DB68A2424FF00100B8BFBB5475
:104DB000F0BD00BF08240020582300202DE9F04F4B
:104DC000456883B0012D03DD082003B0BDE8F08FF6
:104DD0004FEAC508DFF86C908B46174F08EB0506C5
:104DE00000219A460192B60009EB06042069B847F3
:104DF0000C9B019A19686369A160102B126849F82D
:104E000006A0E260C4F804B010D10C4B53F8253072
:104E10009C6814F08004FBD14544012109EB850511
:104E20002869B847204603B0BDE8F08F2846044BF8
:104E300098470028E9D1C7E721310008082400205D
:104E4000314D0008582300202DE9F84F4568012D09
:104E500002DD0820BDE8F88FEF00DFF868908B4690
:104E6000DFF8648007EB050A002116464FEA8A0A3C
:104E700009EB0A042069C0476169326800231029E0
:104E800049F80AB0E360C4E9013210D10B4B53F882
:104E900025309C6814F08004FBD13D44012109EBCE
:104EA0008509D9F81000C0472046BDE8F88F28468C
:104EB000034B98470028E9D1CBE700BF0824002026
:104EC000314D000858230020213100082DE9F84F0A
:104ED0004568012D02DD0820BDE8F88F4FEAC508BE
:104EE000DFF868908A46164F08EB050600219346C6
:104EF000B60009EB06042069B84700236169A36086
:104F00001029DBF80020C4F804A0E26049F806305C
:104F10000FD10C4B53F825309C6814F08004FBD162
:104F20004544012109EB85052869B8472046BDE8BD
:104F3000F88F2846044B98470028EAD1CBE700BFFA
:104F40002131000808240020314D0008582300209A
:104F50002DE9F04F456883B0012D03DD082003B033
:104F6000BDE8F08F4FEAC50B314F0C4606460021D5
:104F7000DFF8C480CDE900230BEB05034FEA83097A
:104F800007EB090ADAF81000C0470021DAF814002C
:104F9000009ACAF8081010281268CAF80440CAF823
:104FA0000C2047F809103CD1DFF890A05AF82530C2
:104FB0009C6814F08004FBD15D44012107EB85055A
:104FC0002869C0477668012EC8DCF5002146AB1978
:104FD0009B0007EB030B0093DBF81000C0470C9B12
:104FE000DBF814201968102ACBF80C40DDE90030FA
:104FF000CBE90141F85004D030460E4B98470028C9
:10500000ACD05AF826309C6814F08004FBD13544AB
:10501000012107EB85073869C047204603B0BDE88A
:10502000F08F2846034B98470028BDD196E700BF74
:1050300058230020314D00082131000808240020A9
:10504000704700BF024A034B02609B1A0B60704717
:1050500000004060F8FF7F600F491048814210B5A2
:1050600005D00F4A0F4B22F00302043298470E4935
:105070000E48814205D00E4A0A4B22F00302043248
:1050800098470C4A00210C4822F003020B4B0432D3
:10509000BDE81040184700BF20CB0308C0760020B1
:1050A000FCFFFFFF7B51030858C7030800020020E4
:1050B000C4030000F0700000C8050020C3510308BD
:1050C00038B5044B05460C469847002328602360FA
:1050D00038BD00BFDD8F000801230370704700BF9B
:1050E000042070472DE9784814461D464FEA820B8C
:1050F000084E9B001BEB040043EA927C4FF0D80261
:105100004FF000034CEB0501400041EB0101B047BB
:10511000BDE87888814D03082DE9304810461946CE
:105120000E4C0A220023A047420041EB010310EB82
:10513000020B41EB030C4FEACB044FEACC051BEB0F
:10514000040045EA5B754FEAC0024CEB0501CB0059
:1051500043EA507310461946BDE83088814D030874
:105160002DE97003114B4FF0FF344FF6FF751049D6
:10517000F0264FF000084FF0000900220720C3E995
:1051800000450C4B0C4D0D4CC1E900895D6084F865
:1051900023606FF07F449A60CC60186010465D60B9
:1051A0008C609A60BDE87003704700BF3024002017
:1051B0008824002010E000E0FEFFFF0000ED00E08A
:1051C000034A0020136823F001031360704700BFF7
:1051D00010E000E0034B186908B10820704719611E
:1051E000704700BF882400202DE9F04182B0164BA3
:1051F00001A89847154B1A689B6812F4803F144A1F
:1052000023F07F43916801D199421AD81BB10F480E
:105210004068C01A014401A80E4E9360D2E90045CF
:1052200067184FF6FF7445F10008C2E90078B047EF
:105230004FF0FF3304EA080103EA070002B0BDE8BB
:10524000F081C91AE7E700BF9535000810E000E0DB
:1052500088240020A1350008500043EB03012DE90C
:10526000700810EB020B054E4FEACB041BEB040059
:10527000C300581F3346BDE8700818474BC70308E2
:105280002DE9F04F85B0DFF8488116461F4602A889
:105290004C4CC04703A8C0474B4BA1681A689B6899
:1052A000D00323F07F4302D48B42C0F08980002BCF
:1052B00040F08180A3604FF6FF7C4FF0FF3B03A8D6
:1052C000424DD4E9002312EB010943F1000A4A469A
:1052D0005346C4E9002309EA0B020AEA0C034FEA29
:1052E000860ADFF8F090CDE90023A8471AEB060004
:1052F0004FEA87034FF00A0243EA967B4FF0000320
:105300004BEB0701400041EB0101C847420041EB74
:105310000103861841EB03074FEAC60A4FEAC70BA1
:105320001AEB06004BEA567B4FEAC0024BEB070133
:10533000CB0043EA5073002B08BF042A38D3D61E93
:1053400043F1FF37DDF800A0DFF87C9019E08B42D5
:1053500022D2C91AA36003A8D4E9002312EB010BDF
:1053600043F1000CC4E900BCCDE900BCA847DDE96D
:1053700000BCABEB0A0B5A46D3179F4208BF5E45F1
:1053800011D303A8C047D9F80020D9F80830D203B8
:10539000A16823F07F43DAD5002BDBD0D9F80420B5
:1053A000D21A1144D6E702A8A84705B0BDE8F08F8D
:1053B00000260027C6E7044A5268D21A114479E74A
:1053C000C91A77E78824002010E000E0A135000822
:1053D00095350008814D03082DE9F04F83B0304C1E
:1053E000904699466846A04701A8A0472D4B2E4CF1
:1053F0001A689B6812F4803FA26823F07F4301D1B2
:1054000093422CD333BB01A8284DA360D4E9006795
:1054100016EB020A47F1000BC4E900ABA8474FF6B0
:10542000FF734FF0FF322249994508BF9045C1E90B
:10543000008916D00BEA03070AEA02064F4508BFA7
:10544000464518D3236998476846A847002003B00B
:10545000BDE8F08F13494968C91A0A44D3E7D21A44
:10546000D1E7104B6FF07F4212480021C4E90222BD
:1054700058609960E8E7A8EB06060E4B9E42E6608E
:1054800006D8084B711E0022A66059609A60DBE7BF
:10549000044A6FF07F400021A06053609160D3E721
:1054A0009535000810E000E088240020A1350008B0
:1054B00030240020FEFFFF00144B0020144A154941
:1054C00070B4C3E90102D9600024134A00251349CE
:1054D00001261A615961124A12499A61D961124A28
:1054E00012491A625962124A12499A62D962124AE0
:1054F00012491A601046D3611160114B114996612F
:10550000C2E90445C2E9011370BC70473824002089
:1055100061510008C1510008E1500008E95100083C
:10552000E550000819510008D5510008D95300086A
:10553000595200088152000868240020CC600308FA
:1055400003000020906C03082DE9F04182B0204B4D
:10555000204E68469847204B01A898471F4B1A6871
:105560009B6812F4803FB26823F07F4301D19342DD
:1055700027D30BBB1A4901A8B360D6E90045A71889
:1055800045F10008C6E9007888474FF6FF71154BD2
:105590004FF0FF3008EA010507EA0004D3E90023D1
:1055A0009D4208BF94420ED3336998470E4B68461C
:1055B000984702B0BDE8F08108494968C91A0A4411
:1055C000D8E7D21AD6E7094900208847EEE700BF9E
:1055D0006D350008882400209535000810E000E0B3
:1055E000A13500083024002081350008D953000877
:1055F00043680020034AC3EB031302EB83035B6A97
:105600000B607047B8240020184B2DE9F041074685
:1056100018680E460321436A98470EB37C6880469B
:10562000134D23011A1B05EB8202516A21B1436914
:10563000516898477C6823011B1BD8F8102031461D
:10564000404605EB8304666290477B686060C3EB6D
:10565000031305EB83056B682BB10020BDE8F081D7
:105660000120BDE8F0816B621520F7E7C805002036
:10567000B824002043680020034AC3EB031302EB65
:1056800083035B690B607047B8240020184B2DE939
:10569000F041074618680E460321436A984706B34F
:1056A0007C688046134D23011A1B9200A918496992
:1056B00021B14369A95898477C6823011B1B3146D7
:1056C00040469C00D8F810302A19566198477B68EC
:1056D0002851C3EB03139B00EA582AB10020BDE810
:1056E000F0810120BDE8F0812B4415205A61F6E7D6
:1056F000C8050020B824002000207047436800201F
:10570000034AC3EB031302EB83031963704700BF23
:10571000B824002043680020034AC3EB031302EBC4
:1057200083035963704700BFB824002007207047E7
:10573000072070472DE9F04182B04668214B804632
:1057400001A80C461546984730011F4F811B07EBF7
:10575000810191F82C305BB3D8F80420C2EB02121F
:1057600007EB8202536A1BB3D1F818C0831B286869
:10577000002207EB8303611E6045174628BF604681
:1057800028600FE05C68186A205C01F8010F186A55
:105790009C6901305E6A013CB04218629C6100D194
:1057A0001F622868824202F10102EBD3002402E06A
:1057B000002306242B6001A8044B9847204602B022
:1057C000BDE8F08195350008B8240020A135000817
:1057D00070B5456882B0052D03DD0124204602B076
:1057E00070BD0646134B01A800249847124A13497E
:1057F000C5EB051302EB830351F8252010499E6386
:1058000051F835009A620F4E1C611C62C3E90244D4
:10581000C3E90644B04730B90C2401A80A4B9847A5
:10582000204602B070BD094B53F83500B047002840
:10583000F2D0F2E795350008B82400206028002057
:10584000006D0308752F0008A1350008306D0308AE
:105850002DE9F04383B007466B4B01A86B4D984789
:105860007C6800222601331B05EB83039B6A1A60C8
:10587000072C00F2B780DFE804F074787C8084881D
:105880009B045320624B9847331B05EB83039B6AB1
:105890001A6822F020021A601A6822F080021A6048
:1058A000002C40F089805B4A536C23F01003536452
:1058B000331B594A4FF00009DFF8748105EB83036D
:1058C00052F83400C3E90299C3F81090C3F820904D
:1058D000C3E90699C047514B53F83400C047504BB9
:1058E00053F83400C0474F4B53F83400C0474E4B79
:1058F000186848B3436A032198477A6880461301C1
:10590000991A890005EB010CDCF814C0BCF1000FFA
:1059100009D06958436998477A681301991A05EBC9
:105920008101C1F814909B1A05EB83035A6A5AB19E
:1059300059684046D8F8143098477B680022C3EB7A
:10594000031305EB83035A62341B002601A8374B6F
:1059500005EB840585F82C609847304603B0BDE818
:10596000F0832B4B252098478EE7294B262098471C
:105970008AE7274B2720984786E7254B342098470E
:1059800082E7234B352098477EE7214B47209847F5
:10599000D5F854311A6822F020021A601A6822F0F1
:1059A00080021A601B4A536C23F0200353647FE784
:1059B000174B5220984767E7042C08DC15494FF431
:1059C00080320B6CA24023EA02030B6470E7062CC2
:1059D00013D0072C7FF46CAF0E4A136C23F00043F6
:1059E000136465E71A68052C22F020021A601A6811
:1059F00022F080021A60D5D052E7064A136C23F0D9
:105A00008043136454E700BF95350008B824002094
:105A10004D35000800380240006D0308306D030862
:105A2000606D0308606D0308C8050020A1350008FB
:105A3000A52F000838B543680A4CC3EB031304EBE9
:105A4000830494F82C305BB1A3683BB1064D00236E
:105A500001220020A847A368002BF8D1002038BD00
:105A6000062038BDB8240020595200082DE9F04F17
:105A7000446885B00746052C53D04CBBB54EB64D97
:105A8000706C40F01000706405EB5100B34D2601BE
:105A9000B0FBF1F1301B89B205EB8000806AC16078
:105AA000002B3AD0012B41F20C4E40F20C4C41F24B
:105AB0000C6340F20C6102F101021CBF73466146A7
:105AC000092A14D0082A11D0012005B0BDE8F08FB2
:105AD000042C2DDD062C00F01E81072CD4D19D4E08
