:020000040800F2
:10000000F87F00104100000851000008510000086E
:1000100051000008510000085100000800000000D5
:100020000000000000000000000000005100000877
:100030005100000800000000510000080D63000896
:10004000DFF808D005F072FE00F024BAF87F001047
:10005000FEE7000006291DD80F4B01EB410103EB21
:100060008101D1E90130184410B483424FF00104FA
:10007000147003D30AE00433984207D91968013198
:10008000F9D0002010705DF8044B704700205DF837
:10009000044B704709207047D4690308062901D929
:1000A0000920704701EB4101124B134A53F82130EC
:1000B00011690B2B88BF0433002910B414DBDB005B
:1000C0000D4943F4803444F0020443F002030B6111
:1000D0000A460C610C61D368DB03FCD44FF000438B
:1000E00013615DF8044B7047044C0549546051603E
:1000F000E5E700BFD4690308003C024023016745DF
:10010000AB89EFCD53B3164881421AD900F50030C0
:10011000814218D900F50030814214D900F5003031
:10012000814210D900F5003081420CD900F5003031
:10013000814208D9B1F1016F05D300F580208142D9
:1001400001D9092070470A44914205D2086843F852
:10015000040B04318A42F9D800207047022070470E
:10016000FFFF0308002B49D0254881421AD900F52A
:100170000030814218D900F50030814214D900F5D1
:100180000030814210D900F5003081420CD900F5D1
:100190000030814208D9B1F1016F05D300F580200C
:1001A000814201D909207047164830B40469002CF7
:1001B00003DA154D154C45604460124C0A4440F278
:1001C0000120914220610FD2043B53F8045F08687C
:1001D000A84206D00D60E068C003FCD418688542D0
:1001E00009D104318A42F0D8064B4FF0004200207A
:1001F0001A6130BC7047082030BC7047022070473D
:10020000FFFF0308003C024023016745AB89EFCDA7
:10021000004B1847190200082DE9F04F83B0002366
:10022000574A00930193136BDFF8708143F0780312
:100230001363019B58F82330002B49D04FF0010B7A
:100240004FF00F0A4FF00C090CE0196A21EA06067C
:1002500032431A62019B01330193019B58F823300A
:10026000002B35D0019B4749019A58F823308D5C0B
:1002700019682AB25400032000FA04FC02266FEA2F
:100280000C0006FA04F40140214319605C680BFA83
:1002900005FE24EA0E045C609C68044044EA0C04F9
:1002A0009C60DC68A5F10801B140B2402040072DF8
:1002B0000AFA02F60AFA01F709FA02F209FA01F15A
:1002C000D860C2D95A6A22EA070739435962C1E79E
:1002D0002B492D4B8A6B2D4C2D4842F001028A632D
:1002E0004FF4B0454FF4EA711D601A4659609C60A6
:1002F000D860936913F02003FBD129211161019388
:10030000019B244A934205D8019B01330193019B31
:100310009342F9D91C498B699D06FCD42A231A4AB9
:100320000B6193699C06FCD48B23174913618B697D
:100330009806FCD4184B144A0B6193699906FCD4B7
:100340005369114943F4AA6343F0060353618B696F
:100350009B06FCD44FF050430093009B13F13E5F8B
:100360000AD24FF0FF31009A009B116004330093D2
:10037000009B13F13E5FF6D303B0BDE8F08F00BFE2
:10038000003802407C670308400100A00070200094
:10039000720402023F420F002C620400A4670308AB
:1003A0002D4B2DE9F0412D4E1860044607692C4D68
:1003B000B04701462046B847A76AB0474FF0804192
:1003C0004268284E2046B8472769A847014620467C
:1003D000B847A76AA84724494268244D2046B84731
:1003E0002769B04701462046B847A76AB047204969
:1003F00042682046B8472669A84701462046B047CC
:10040000A66AA8471B4942682046B0471A4B25698F
:10041000984701462046A847184B2569984701464A
:100420002046A847164B2569984701462046A8470D
:10043000144B2569984701462046A847124B256969
:10044000984701462046A8472046104B984720462B
:100450000F4BBDE8F04118479007002081090008C4
:10046000591E0008512400080100004071340008A2
:100470000200004004000040093F0008CD4F000882
:100480001958000875740008AD9A0008115D00083D
:1004900011020008F0B51D4B1D4D87B0984703A908
:1004A00002A81C4B9847DDE902011B4B98471B4AE9
:1004B0001B4B002405A904A814609847DDE904013A
:1004C000184B98470022184918480923A847184B89
:1004D0009847184B05469847174B06469847174BC1
:1004E000074698473A46314603462846144DA847E2
:1004F00006A8012300F8113D124B98479DF80710FC
:10050000114B12489847204607B0F0BD355E0008F1
:10051000599D0008215E0008ADB100089007002039
:100520009D5E0008D5B100084068030850680308C4
:1005300069250008794000084D4200087D620008E6
:10054000F9AF0008B55E000811BA0008A103000861
:1005500000207047074A08B51068074B074A19681A
:10056000C3699847064B002818600CBF082000207C
:1005700008BD00BF90070020C00700200700004012
:10058000B8070020014B002018607047B807002012
:100590000420704730B40124034D0C6000201C601F
:1005A000156030BC704700BFF407002070B40848E5
:1005B000084C25680468039800260E6015601C60CE
:1005C00010B1054B1B680360002070BC704700BF72
:1005D000C4070020BC070020C00700202DE9F04F11
:1005E000354FDFF8DC803D68D8F8000000FB05F0EF
:1005F0004FEA400C83B0BCF1000FDDE90C6491467A
:1006000010DD2246601C04EB0C0B92F801A010F8E0
:1006100001EC00F801AC023202F801EC934500F164
:100620000200F2D169BBAB422BD1244906FB03F691
:10063000086802AA09FB03F1760042F8046D04EB96
:10064000410183699847D8F80030386800FB03F00F
:100650004FEA400CBCF1000F0FDD234604EB0C0009
:10066000621C5C7812F8011C02F8014C023303F89A
:10067000011C984202F10202F3D1002003B0BDE850
:10068000F08F4E445B00B1450193E3DADFF82CB004
:100690004FEA410A00E03D68DBF8000005FB09F184
:1006A0000AEB4101214409F10109836901AA984734
:1006B000B145F0D1C7E700BFBC070020B807002054
:1006C000C407002030B4029851B9074D074C2A6086
:1006D000236018B1064B02681A60084630BC7047A8
:1006E000042030BC704700BFBC070020C4070020B6
:1006F000C007002000207047134B144A14491548C6
:1007000070B4154C9A600022144D5A60DC60144A93
:10071000144C99621449154E5D629A61144D154A44
:100720005C61D961144C15491D611A6200250122D2
:1007300004600024C0E90161C0E904451860C36198
:10074000826170BC704700BFC807002051050008D7
:100750008505000898070020F506000855050008E3
:10076000C5060008AD050008DD0500087868030827
:100770009505000891050008606803080300004023
:1007800000280CBF02200020704700BF12207047D5
:100790000C2070470020704740F6FF70704700BF84
:1007A00000207047002914BF04200020704700BFBC
:1007B000B1FA81F0400970470F2901DD0020704730
:1007C00008B5034A034B505C9847002008BD00BFA2
:1007D000E86803082531000810B400294CD001292D
:1007E00023D0022921D003291FD004291DD0052997
:1007F0001BD0062919D0072917D0082915D0092997
:1008000013D00A2911D00B290FD00C290DD00D2996
:100810000BD00E2909D00F2907D0102921D011297A
:100820001FD003205DF8044B7047164BA1F1100058
:10083000DC6C596313498B6843F080438B600B6811
:100840009B07FCD5012806D90E4B5DF8044BDB6CE9
:100850001360002070470C494B6823F400034B6081
:10086000F2E7084B084CD86C5963636843F4000303
:10087000A1F110006360DDE7024B6FF00F00DC6C4C
:100880005963D7E70020014000230140F0B50F294C
:1008900083B00C4648DD012C22D0022C20D0032C42
:1008A0001ED0042C1CD0052C1AD0062C18D0072CD6
:1008B00016D0082C14D0092C12D00A2C10D00B2CD6
:1008C0000ED00C2C0CD00D2C0AD00E2C08D00F2CD6
:1008D00006D0102C37D0112C35D0032003B0F0BD3A
:1008E0001C4B5B6CDA0512D41A491B4B4A6C1B4F2C
:1008F0001B4E1C4D42F480724A64002001220F2CD2
:100900007860D86258609A60DE601D61E6DC164D42
:10091000285D164D00240323CDE9004422461946E4
:10092000A847204603B0F0BD0F4D114B685C9847B7
:1009300030B1002CAFD1074B5B6CD905D4D5E7E7BC
:100940000C2003B0F0BD034B5B6CDB05CCD5002065
:10095000C4E700BF003802400020014000230140EE
:100960009224490292244912E8680308AD31000834
:100970000531000800280CBF02200020704700BF8E
:100980001B4A1C491C4B70B5002011600021C2E9B4
:1009900004011A4850604FF08040194990600120CE
:1009A00090611A60D3619960164A1749D9611A6239
:1009B0001649174A174C184D184E19481C615D61AD
:1009C000184C194DDE60C3E90C1298615C6217483F
:1009D0009D620024164E174DD8625C600F2C01DC1E
:1009E000305DA8470134122CF8D1014870BD00BF1A
:1009F0003008002060680308F8070020B06803088A
:100A000081070008A1070008A50700089107000852
:100A10008D0700088D080008B9070008750900084F
:100A2000D9070008B10700089507000899070008D2
:100A3000E8680308253100084368044A03EB4303D0
:100A400002EB431300201B6C0B607047580800201A
:100A5000032943689CBF064A52F82310054A03EB5A
:100A6000430302EB431394BF012000201964704735
:100A700054690308580800204368044A03EB430301
:100A800002EB431300205B6C0B607047580800209A
:100A90004368064A03EB430302EB431301294FF07B
:100AA00001025A6414BF0420002070475808002037
:100AB0004368064A03EB430302EB43135B6B0B6093
:100AC000002B0CBF1A200020704700BF58080020E0
:100AD0004368044A03EB430302EB4313002019630A
:100AE000704700BF580800204368044A03EB4303E3
:100AF00002EB43130020D962704700BF5808002062
:100B00004268054B02EB420203EB42130020C3E9AB
:100B10000D00D863704700BF5808002040680B4A9A
:100B20000B4B002818BF134600209A68087050012C
:100B300002D49A68120103D501230B70002070477C
:100B40009B68DB00F8D40020704700BF00680040BD
:100B5000006400404068054A054B002818BF134652
:100B600000209B691B0E0B60704700BF00680040AF
:100B7000006400404068044A044B002818BF134634
:100B800000209B69086070470068004000640040D6
:100B9000014B0B600020704780DE8002002844D0AB
:100BA0002DE9F04F4568224E224F56F8358083B02C
:100BB00004464046B847002833D0DFF8889059F8FB
:100BC00035A05046B84760B3EF003E444FF0010BEC
:100BD00033790193B94402231946174ECDF800B07A
:100BE00040460022B04799F804200223CDE900B224
:100BF000194650460022B0471049114805EB4502FE
:100C000052018B1850F825508C5000201D64C3E908
:100C10000D00D86398645860C3E9020003B0BDE8D2
:100C2000F08F0C2003B0BDE8F08F0220704700BFAA
:100C30004469030805310008AD3100085808002058
:100C400054690308346903082DE9F047002856D099
:100C50002C4B446818682C4E436A032198472B4B51
:100C600053F83470804639460020B047054610B12D
:100C70002846BDE8F087264B53F834904946B047E4
:100C800005460028F4D13846DFF890A0214ED04721
:100C90004846D0476700204A07EB0409002C136C34
:100CA00006EB49190CBF6FF000716FF080610B40CB
:100CB000D9F80810136429B1D8F814304046984781
:100CC000C9F8085007EB040906EB4919D9F80C10CC
:100CD00031B1D8F81430404698470023C9F80C3099
:100CE0003C4406EB441671680029C1D0D8F8143092
:100CF00040469847002373602846BDE8F0870225E8
:100D0000B6E700BF90070020752800084469030873
:100D100034690308580800200038024025310008D3
:100D20002DE9F0474668224D7700BC1905EB4414C5
:100D300082B0606B002836D0984601A81D4B9146C2
:100D40008A469847E26B236CD4F804C0C2EBC20118
:100D50003E4401329A4205EB46154FEA810108BF35
:100D60000023E2630CEB010008BFE3636B6B846854
:100D7000027B013B6B63CAF8004089F80020447B8A
:100D80008269036988F800400C9C22600B9A13600A
:100D9000436953605CF801300A9942684A600B600D
:100DA00001A8054B9847002002B0BDE8F08700BFBE
:100DB0005808002065410008714100082DE9F04FF6
:100DC0004C4C246887B00746656A019320468946E3
:100DD00003211C469246A847A4007A680369029240
:100DE000214605469847214607462B6928469847DD
:100DF00080465FB939466B69284698472846414680
:100E00006B699847152007B0BDE8F08F0028F1D036
:100E100049462246DFF8EC903846C84722465146FC
:100E20004046C847019B012B52D93A1D08F1040BDB
:100E30000392DA4691464FF0010E9C464B465246CD
:100E4000714653E9016086420AD914681E6052F85F
:100E5000046C1660013943F8040D42F8044DF0D1DA
:100E60000EF1010EF4450AF1040A09F10409E5D175
:100E7000D8F800203B6893422FD87968D8F804301E
:100E80008B422AD38A4228D2012203990AE0DBF856
:100E9000044051F8043FA3420BF1040B1DD8006835
:100EA00083421AD9013296455846F0D1124B05A813
:100EB00098470299114B124A01EB410103EB411390
:100EC0000199D96505A8C3E91578904700209AE7EC
:100ED0003A68D8F800309A42E8D939466B69284612
:100EE0009847284641466B699847012007B0BDE8FE
:100EF000F08F00BF900700206541000858080020CF
:100F0000714100082B5C0308364B5A69520710B434
:100F100028D4344B5A69100716D4324B5A695205FB
:100F20002ED4304B5A69900551D42E4B5A69120574
:100F300034D42C4B5A69140439D42A4B5A69D1053C
:100F40004BD45DF8044B7047DA68D106E5D5264AE4
:100F5000D2F88C40106E1021D960234600215DF834
:100F6000044B1847DA681407D3D51F4AD2F88C40CF
:100F7000106E0821D960234601215DF8044B184703
:100F80009A695407CDD5184AD2F88C40106E0421C6
:100F90005960234602215DF8044B18479A6912F004
:100FA000700FC6D00021042299615A60C9E75A68BF
:100FB0005007C2D500200C4A98610421D2F88C4019
:100FC000106E5960234603215DF8044B18479A6957
:100FD0009107AAD5044A0421F0E79A69D207B0D54F
:100FE000F8E700BF00680040580800202C4B5A6901
:100FF000520722D42A4B5A69110714D4284B5A6934
:10100000500524D4264B5A6992053FD4244B5A6983
:10101000110526D4224B5A6912042BD4204B5A694D
:10102000D10539D47047DA68D206E7D51D4A1021B8
:10103000D9601068D36A00211847DA681007D9D53B
:10104000184A0821D9601068D36A012118479A69A3
:101050005107D7D5134A042159601068D36A022179
:1010600018479A6912F0700FD4D0002104229961B8
:101070005A6070475A685007D0D50020094A9861D5
:10108000042159601068D36A032118479A699007B0
:10109000BCD50421034AF4E79A69D207C2D5F8E720
:1010A0000064004058080020A64B5A692DE9F0471B
:1010B000540700F19A80A34B5A6911071BD4A14B26
:1010C0005A69570500F1FB809E4B5A69950500F15E
:1010D0001F819C4B5A69100500F1FF80994B5A699A
:1010E000110400F10581974B5D6915F4807540F09E
:1010F0001681954C0BE0DA68D206E0D5924C1021AF
:10110000D4F88C20206ED9600021904701258D49AC
:10111000E26ED1F8B03103F004031372002B5FD1FB
:10112000D1F8B0315B0D1360864BD3F8B01101F0EC
:1011300002015172D3F8B41101F00F019172D3F88A
:10114000B411090AD174D3F8B811D172D3F8B81117
:10115000090A1173D3F8B811090C5173D3F8B811F7
:10116000090E9173D3F8BC11D173D3F8BC11090ADD
:101170001174D3F8BC11090C5174D3F8BC11090EC9
:101180009174DA6842F02002DA603DBBD4F86CE07A
:10119000D4F8BC209EF80810DEE90036002914BF00
:1011A00001251E467AB3013AD4E92D7C13D40021DF
:1011B00002E0591C91420EDC8B1803EBD3735B10D9
:1011C0005CF82300B042F4D357F82320964232D281
:1011D0005A1E9142F0DDD4F8B020BAB9BDE8F087CC
:1011E000D1F8B031DB0853609EE7DA6810077FF56D
:1011F00062AF554C0821D4F88C20206ED9600121B3
:101200009047012583E7D4F8B020B2B1013AD4F871
:10121000AC70E3D4002102E0591C9142DEDC53188B
:1012200003EBD3735B1057F823008642F4D880F0A9
:1012300085805A1EF1E7002BCDDBD4F8A030D4F81E
:101240009420033B9A42C9D8404B9EF80A809EF8EE
:101250000990D4F864A0D4F898700020984702460A
:101260000B4600203A498847C7EBC707BF000AEB87
:1012700007034AF80700C9F34009E06E9E600027A3
:10128000D4E9251283F80D905F601D73D0F80B50E0
:101290001D61D4F8A050D0F80F0058610132AA4265
:1012A00001F10101C3F81880206ED4F89030C4E930
:1012B000251208BFC4F89870BDE8F04718479A692E
:1012C00056077FF501AF204C0421D4F88C20206E06
:1012D000596002219047012519E79A6912F0700FB1
:1012E0003FF4FCAE002504229D61174C5A600EE7C6
:1012F0005A6852077FF5F7AE0022134C9A61042119
:10130000D4F88C20206E5960032190470125FEE619
:101310009A6994077FF5DDAE0B4C0421F0E79D69D7
:10132000094C15F001053FF4F2AE0421D4F88C20ED
:10133000206E5960032190470025E8E6002BBFF698
:101340007CAF4BE70068004058080020B55F0008FC
:10135000C15E00089E4B5A692DE9F047540700F121
:1013600097809B4B5A6911071BD4994B5A695705B3
:1013700000F1EE80964B5A69950500F11081944B6F
:101380005A69100500F1F180914B5A69110400F17E
:10139000F7808F4B5D6915F4807540F007818D4CA7
:1013A0000AE0DA68D206E0D58A4C1021E26A2068A9
:1013B000D9600021904701258549E268D1F8B03114
:1013C00003F004031372002B5DD1D1F8B0315B0D33
:1013D00013607F4BD3F8B01101F002015172D3F8C2
:1013E000B41101F00F019172D3F8B411090AD1744C
:1013F000D3F8B811D172D3F8B811090A1173D3F820
:10140000B811090C5173D3F8B811090E9173D3F8C0
:10141000BC11D173D3F8BC11090A1174D3F8BC11F3
:10142000090C5174D3F8BC11090E9174DA6842F0BA
:101430002002DA602DBBD4F80CE0E26D9EF80810B3
:10144000DEE90036002914BF01251E466AB3013AC1
:10145000D4E9157C13D4002102E0591C91420EDC22
:101460008B1803EBD3735B105CF82300B042F4D30A
:1014700057F8232096422DD25A1E9142F0DD226D5C
:10148000AAB9BDE8F087D1F8B031DB085360A0E716
:10149000DA6810077FF565AF4E4C0821E26A2068D4
:1014A000D96001219047012586E7226DA2B1013A5A
:1014B000E76CE6D4002102E0591C9142E1DC5318AC
:1014C00003EBD3735B1057F823008642F4D87BD22A
:1014D0005A1EF2E7002BD2DB236C626B033B9A426D
:1014E000CFD83D4B9EF80A809EF80990D4F804A00E
:1014F000A76B0020984702460B46002037498847D3
:10150000C7EBC707BF000AEB07034AF80700C9F398
:101510004009E0689E600027D4E90D1283F80D9021
:101520005F601D73D0F80B501D61256CD0F80F0063
:1015300058610132AA4201F10101C3F81880206804
:10154000236BC4E90D1208BFA763BDE8F047184735
:101550009A6956077FF50EAF1E4C0421E26A206897
:10156000596002219047012526E79A6912F0700F11
:101570003FF40AAF002504229D61164C5A601BE718
:101580005A6852077FF505AF0022124C9A61042178
:10159000E26A206859600321904701250CE79A69A7
:1015A00094077FF5ECAE0B4C0421F1E79D69094CE3
:1015B00015F001053FF400AF0421E26A206859608C
:1015C000032190470025F7E6002B85DA59E700BF95
:1015D0000064004058080020B55F0008C15E0008A4
:1015E000036823F002030360036843F00103036010
:1015F0004368DB0758BF4FF6FF7302D504E0013B99
:1016000002D04268D207FAD5436813F001035BD0D9
:101610008B790A88012B03680CBF43F0800323F009
:10162000800370B40360CB79012B03680CBF43F0D7
:10163000400323F0400303600B7A012B03680CBFC7
:1016400043F0200323F0200303604B7A012B03684F
:101650000CBF43F0100323F0100303608B7A012BBF
:1016600003680CBF43F0080323F008030360CB7A40
:10167000012B03680CBF43F0040323F00403036051
:10168000CB788E780D794C791B0643EA867343EA52
:10169000054343EA0453013A1343C361036823F04B
:1016A000010303604368D90748BF4FF6FF7302D4B4
:1016B00004E0013B02D04268D207FAD44068C0433C
:1016C00000F0010070BC7047184670473A4A837AB0
:1016D000D2F8001241F00101F0B4C2F80012012169
:1016E000D2F81C529940CC432540C2F81C52057BCD
:1016F000002D47D1D2F80C62B0F806C04588878823
:10170000DB002640C2F80C6203F18043028803F537
:10171000C84345EA0C4542EA0742C3F84052C3F8C1
:101720004422C37A244A3BBBD2F804322340C2F895
:1017300004320389BBB9204BD3F814221440C3F8F8
:101740001442437B012B05D11B4AD2F81C321943AA
:10175000C2F81C12184AD2F8003223F00103C2F872
:101760000032F0BC7047012BEBD1134AD2F814328F
:101770000B43C2F81432E4E7D2F804320B43C2F848
:101780000432D6E7012DCCD1D2F80C62B0F800C0FB
:1017900045888788DB000E43C2F80C6203F1804362
:1017A000C28803F5C84345EA0C4542EA0742C3F83C
:1017B0004052C3F84422B4E7006400402DE9F041F0
:1017C0004568002D40F0AC80664E674FF563C6E972
:1017D0000D553B6A6549664C43F000733B624FF41C
:1017E0007A720023284688473B6A23F000733B62E5
:1017F0003A6C4FF000732F465B4913430B64236828
:1018000023F002032360236843F00103236063682D
:10181000D90758BF4FF6FF7302D504E0013B02D051
:101820006268D207FAD56368D8076AD57B1906EBD8
:1018300043137A199B7D012B23680CBF43F080036F
:1018400023F0800323607B1906EB431306EB42125F
:10185000DB7D917C107D012B23680CBF43F040039E
:1018600023F0400323607B1906EB43131B7E012BFF
:1018700023680CBF43F0200323F0200323607B196F
:1018800006EB43135B7E012B23680CBF43F0100370
:1018900023F0100323607B1906EB43139B7E012B7F
:1018A00023680CBF43F0080323F0080323607B196F
:1018B00006EB4313DB7E012B23680CBF43F00403CC
:1018C00023F004032360D37C1B0643EA8173517D1C
:1018D000128A43EA004343EA0153013A1343E361A6
:1018E000236823F0010323606368D90748BF4FF6DC
:1018F000FF7302D404E0013B02D06268D207FAD43D
:1019000063681C4B3D4406EB45101C3098476369E7
:1019100043F40F4343F00E0363610020BDE8F08100
:101920006F00104EDFF840801049134C7B1906EB16
:1019300043130020C3E90D00D863D8F8203043F0EA
:101940008063C8F820304FF47A7200238847D8F8B3
:10195000203023F08063C8F82030D8F840204FF0C2
:10196000C06349E7580800200038024021600008A1
:1019700000640040CD160008006800406C49DFF8A4
:10198000E8C12DE9F84F44680868DFF8E091456A3E
:10199000684F032166009A469046002C08BFE14636
:1019A000A847351907EB451583466B683BB9296C89
:1019B0000369C1EBC10189009847686098B1351986
:1019C00007EB4515AB688BB9696CDBF8103001EBA0
:1019D0008101890058469847A86038B96968DBF8E2
:1019E0001430584698471520BDE8F88F351907EB95
:1019F0004515EB6863B9DBF8103014215846984759
:101A0000E86028B9DBF81430A96858469847E5E73C
:101A1000494D2B6A002C5FD143F000732B6247497C
:101A200000234FF47A72204688472B6A23F0007314
:101A30002B622D6C4FF000710A9A3F4808F1FF337A
:101A400042EA03430B9A0AF1FF3A26444FEA46184A
:101A500043EA0A5302F1FF3A43EA0A6341EA050600
:101A600007EB08050664C3F30160C3F3025608F1EF
:101A70001001E874AB64C3F303406E75C3F309034C
:101A8000002628752E4A2B8239444846AE75EE75DD
:101A90002E766E76AE76EE76AE7490476CBB294AA3
:101AA00029482A4BC7F82620C7E90744BC84984731
:101AB000274D284922461320A847224626491420AC
:101AC000A847D9F8143043F40F4343F00E03C9F884
:101AD00014300020BDE8F88F43F080632B62174973
:101AE00000234FF47A72002088472B6A23F080632A
:101AF0002B622D6C4FF0C0619EE708F118033B4448
:101B000007EB080215495E6008F11C009E6038442E
:101B10000E4BAE84C2F8261098470D4C1049324641
:101B20003F20A04732460F494020A047C9E700BFE9
:101B3000900700205808002000380240216000086B
:101B4000E11500080000010174080020CD1600080E
:101B5000F1400008ED0F0008551300080E000101C8
:101B6000090F0008A9100008006400400068004048
:101B700038B5454A454B002808BF13465A695407F3
:101B800024D45A69120711D45A6954052ED45A69BB
:101B9000920556D45A69140538D45A6911043ED4B2
:101BA0005A6912F480725CD1002038BDDA68D5061B
:101BB000EAD5374A00EB40004001141810211058B4
:101BC000E46AD9600021A047012038BDDA68110716
:101BD000D7D52F4A00EB40004001141808211058B7
:101BE000E46AD9600121A047012038BD9A695107F4
:101BF000CDD5274A00EB40004001141804211058AD
:101C0000E46A59600221A047012038BD9A6912F0A8
:101C1000700FC2D00020042298615A6038BD5A6803
:101C20005207BDD51A4A00EB4000400114180021AC
:101C300004251058E46A996103215D60A0470120E2
:101C400038BD9A699507A5D5114A00EB40004001BF
:101C5000141804211058E46A59600321A047012098
:101C600038BD9A6912F001020BD0094A00EB40001E
:101C7000400114180421E46A105859600321A04758
:101C800092E7104638BD00BF006400400068004085
:101C90005808002040682DE9F0414FEA400C674E9B
:101CA000DFF8AC81664C069D0CEB000706EB47178E
:101CB0008E46B9684B72002818BF4446BB68002A9C
:101CC00000F08D8004221A72BB68C3F804E00CEBAC
:101CD000000306EB4313079A02F00F069A68967208
:101CE0009A682968D1722A689968120A0A739A68F0
:101CF000698851739A68E97891739A686968D173B1
:101D00006A689968120A0A749A68E98851749A682C
:101D1000E9799174A1689A684D0105D4A368190105
:101D20006DD50126314601E0002631463601A31962
:101D3000D3F8805105F00105C3F88051157A002DC4
:101D400052D0576892F809C045EAC705D3F88071A8
:101D500045EA0C053D43C3F88051977A394D07F0A9
:101D60000F079772D3F8847127F00F07C3F88471B7
:101D7000D3F884C1977A47EA0C07C3F884712644E4
:101D8000D2F80B70C6F88871D2F80F20C6F88C21F3
:101D9000D3F880212C4FDFF8BCC042F00102C3F819
:101DA00080214FF6FF76002209E03B40AB420FD086
:101DB000BB420DD063450BD0B24226D0013201297F
:101DC000A36830D00229F0D003EA0C03AB42EFD174
:101DD0004FF6FF739A4218D00020BDE8F0811A72C6
:101DE000BB68C3F800E072E792F809C01568D3F841
:101DF00080714CEA45553D43C3F88051ADE7A36877
:101E0000DB000AD50226314690E70129A3680CD0F1
:101E100002290ED043F08003A3600C4BC0B2984758
:101E20000820BDE8F0812B40C0E743F40043A360E5
:101E3000F3E743F40003A360EFE700BF5808002076
:101E4000006400400003000800000310711B00083C
:101E500000680040030000043E4B3F4ADFF834C1F5
:101E60003E493F482DE9F04F9A611A674FF0000E46
:101E70003C4ADFF82491C3F804E01A634FF0010EE6
:101E8000394AC3F85CE05A6303F1580E374A384DBB
:101E9000384CC9F804E09A63DFF800E1364ADFF80D
:101EA00000A1DFF80081354F354EC3F808C0C3F8F4
:101EB00060C0DD60DFF8F0C05D661C61314D9C667E
:101EC0005961314CD9663149DFF8E0B0C9F80030CA
:101ED000C3E90F2E2E4AC3F81CB0C3E908A8C3E912
:101EE0000A76C3F874B018609865C3E911C5C3E9F0
:101EF00013415A651B4AC3F888201B4AC3F88C203B
:101F00001A4AC3F890201C4ADFF8A4B0C3F878A09E
:101F1000DFF8A0A0C0F81C90C3E92076DFF8989005
:101F2000C3F87C8000264FF002080027C3E9252E65
:101F3000174AC3F8AC20C3E927C5C3E92941C0E962
:101F400000BAC0F80890C0E90467C0F81880BDE87E
:101F5000F08F00BF18090020210D0008951C000813
:101F6000C8090020BD0D0008010B00081D0B00086A
:101F7000490C0008BD170008750B0008E90A0008A5
:101F80009D210008390A0008510A0008790A000852
:101F9000910A00089D0B000850080020550B00080E
:101FA000B10A0008D10A0008910B00087D19000849
:101FB00060680308FC6803080100004002F1FF3C70
:101FC0000CEBDC7C4FEA6C0C61452DE9F047964642
:101FD00002F0010A57DA0F466FF040497D1C6C0091
:101FE00004EB090650F8352050F82680424500EBF6
:101FF000C5060AD2013C644550F8245040F82750E9
:1020000000EB840605DA2746E8E7644540F8272018
:10201000F9DBBAF1000F1FD0651E05EBD5758C42B8
:102020004FEA650514DD50F82570BB4204D80FE077
:1020300050F82270BB420BD96A1E02EBD2725210CA
:10204000A94240F8247000EB85062C461546EFDBCC
:102050003360BDE8F0870C46AEF1020E0EEBDE7E7B
:10206000B4EB6E0F02D000EB8406D5E7621C520081
:1020700002F18045013D50F8255040F82450541E8F
:1020800000EB8406C8E7BAF1000FE4D000EB81064C
:10209000DEE700BF0B1A402B7BDD2DE9F0438C46B9
:1020A00083B007469146002A74D000F10408DB1083
:1020B000786857F823105CF8044C3A68884209F1B4
:1020C000FF3921D2A1425DD3A04221D3C7E900024A
:1020D0005CF8042C454663462C462E4654F8041BF7
:1020E00081420FD39042A3F1040303D253F8042D8D
:1020F0008242FBD89D4210D244F8042C1960386803
:1021000053F8042C2546E7E7A042DFD3A14239D299
:102110003C604CF8042C3868DCE761464A462846A7
:10212000FFF7B8FFEB1B402B29DDAC46B9F1000FE0
:10213000BDD19C10A51E6D1005F10109DFF8588076
:1021400007EB890900E0013D4FF0000259F8043D1A
:102150008DF80020294622463846C047002DF2D18E
:1021600056F8043D3A683260F41B4FF000018DF8D8
:102170000010A21000213846C047042CF0DC03B048
:10218000BDE8F083396047F8232038685CF8042CF8
:10219000A0E770470E46CCE7BD1F00082DE9F04FC1
:1021A000664B4668186883B0436A88460321174621
:1021B0009847BC0003692146984700285AD0054635
:1021C0004146224600EB04085D4B9847A84540D0A5
:1021D000A210B2FA82F2C2F11F0228465200414612
:1021E000584B9847402C05F1040047DC804530D01F
:1021F0006FF00309DFF85CA1A9EB05090EE0854249
:1022000008D005F10803A3EB0B03184409EB0B02FC
:102210002946D047D8452C6058461AD083462B68AB
:102220005BF8044B9C42EAD35BF8083C9C42A0F16B
:1022300004027FD2594600E0024641F8043D52F8BC
:10224000043C9C42A2F10400F6D3D84514605846E1
:10225000E4D101A83C4B98473C4B3D4A06EB46066F
:1022600003EB461601A8C6E913579047002003B0B8
:10227000BDE8F08F152003B0BDE8F08F6FF0030AC2
:10228000AAEB050A05F1400410E0854209D005F1EA
:102290000802A2EB0B02104429460AEB0B022D4B5D
:1022A00098475C45C5F8009058461BD083462A687D
:1022B0005BF8049B9145E8D35BF8082C9145A0F1AD
:1022C000040139D2584600E0614640F8042D51F827
:1022D000042C9145A1F1040CF6D35C45C1F80090A3
:1022E0005846E3D1A045B4D0A44605F13C0E614662
:1022F00072465CF8044B5EF8043B9C4215D2614682
:1023000000E0024641F8043D52F8043C9C42A2F130
:102310000400F6D3E04514609BD0614672465CF839
:10232000044B5EF8043B9C42E9D30A46E045146046
:10233000F3D18EE7024688E70146CEE790070020FA
:102340002B5C030895200008654100085808002010
:1023500071410008415C030800280CBF02200020E6
:10236000704700BFC2F30B02034B11B99A60002003
:1023700070475A6100207047007400400220704787
:102380000C2070470020704740F6FF70704700BF78
:10239000F0B50D1D83B02846114B0C469847E0B1AF
:1023A0001049114F0A6C0323002642F000520A64C0
:1023B000284632461946CDE90066B8470B4A1368ED
:1023C0002CB943F001032046136003B0F0BD43F481
:1023D00080333046136003B0F0BD0C2003B0F0BD75
:1023E0000531000800380240AD310008007400409B
:1023F00070B50D1D0E46002029460E4B9847044629
:1024000090B90D4A13688EB923F0010313600B4B8A
:1024100028469847084B1B6813F0011F04D1084A4F
:10242000136C23F000531364204670BD23F48033F3
:102430001360ECE77528000800740040253100089F
:102440000038024000280CBF02200020704700BF67
:10245000284A29492DE9F84300201160274C284BD0
:1024600054600021C2E9040101242649264D274871
:10247000916094612649274E274C1A60D3619D6074
:10248000D860264D264819615E612649264A9C611E
:10249000264F274EDFF89C90DFF89C80DD610024FA
:1024A000186259629A625C60251D29460020B8476F
:1024B000013488B9012C2846336812D023F48033C4
:1024C0003360C847336813F0011F05D1D8F8403096
:1024D00023F00053C8F84030022CE5D10548BDE890
:1024E000F88323F001033360C847336813F0011FFA
:1024F000ECD0D9E7180A0020606803085C6903087B
:10250000E809002002000040592300084524000883
:1025100091230008F12300086523000885230008A3
:1025200089230008812300087D23000875280008FE
:1025300000740040253100080038024001230B7070
:10254000002070470020704710B4054C0C6005480F
:1025500010600721002019605DF8044B704700BF30
:102560007C0A0020980A0020204B21482149224A59
:10257000F0B4224C9C6000245C60214C1C61214D15
:10258000214CDD609C61214D214C5D611C62214D1F
:10259000214CDD611860214DC3614FF00053C0E94B
:1025A000014305601E4C1F4B0C60012585611E4DCB
:1025B0004B6004F5C02403F5C023002600278D607E
:1025C000CC6005F5C0254FF001640B614FF400337A
:1025D000C0E90467C1E90554C2E90033C2E9023326
:1025E000C2E904339361F0BC704700BF580A002071
:1025F000380A00207C0A0020980A00203D250008A7
:1026000005010008452500089D0000086501000837
:10261000492500085500000894690308606803080C
:10262000000004080000060800000808032A8CBF08
:1026300000200120704700BF014B53F82100704774
:10264000640D00207020704710B5064B064C53F8FF
:10265000212000231846A047044C0A220023A0474B
:1026600010BD00BF240F0020C15E000831580308D0
:102670002DE9F04701F00F0682B0B300174603F0D2
:102680000C034FF00F0A4FEA2118012401A8374A22
:1026900089460AFA03FA08FA03F8B440B5089047E5
:1026A000002F4BD0AB0003F1804303F59C339A68B5
:1026B00002EA0A02424509D02D4A1268224247D155
:1026C0009A6822EA0A0A4AEA08029A60294B2A4AC8
:1026D000DFF8BCC052F82920284976019D1903F87B
:1026E00006900023C5F810C018468847244E0A22D9
:1026F0000023B047234B68606F6100209847C5E90D
:1027000002011B4B9968E24311409960D9680A4065
:10271000DA60DA682243DA609A6822439A605C6180
:1027200058692040FBD11A6822431A60044601A868
:10273000154B9847204602B0BDE8F0870235134B91
:1027400053F8253003EA0A0AC24503D03C46EEE7B7
:102750000C24ECE70649074B0A6803EB461622EA0D
:1027600004040C603C467761E1E700BF6541000866
:10277000003C0140B80A0020240F0020C15E000880
:1027800031580308B55F0008714100080038014066
:10279000B80C002030B583B00C4601A80A4B98470E
:1027A0006F2C0EDC631C0CD0084B1D5D3DB9012263
:1027B0001A5501A8064B9847284603B030BD0C2592
:1027C000F7E70325F5E700BF65410008F40C00209A
:1027D000714100086F2912DC4B1C10D00B119B02B9
:1027E000012003F1804301F00F0100FA01F1824260
:1027F00003F5003318BF09049961002070470320D6
:10280000704700BF6F2911DC4B1C0FD00B119B02CE
:1028100003F1804303F5003301F00F011B6923FA34
:1028200001F101F0010111600020704703207047A1
:102830006F2918DC4B1C16D0501E42F20E739842C2
:102840000ED810B542F210730C4682FB0323002011
:1028500006498847064A002342F82400184610BD5E
:102860000F2318467047032318467047ED5E000893
:10287000240F00202DE9F04383B00D466846294F10
:10288000B8476F2D45DC6B1C3AD02C11A402264BA7
:10289000DFF8988004F1804404F5003405F00F0956
:1028A000002601A85E55B8474FEA49050323216871
:1028B000AB40DA4311402160E1681140E160A0685B
:1028C0004FEAE9010240134304EB8102A3604FEA9F
:1028D0008901136A01F01C000F21814023EA0103E2
:1028E00013626368012202FA09F923EA09036360AB
:1028F00001A8C0476846C047304603B0BDE8F08332
:10290000DFF828806846C0470326304603B0BDE89C
:10291000F083DFF818806846C0470326304603B0CE
:10292000BDE8F08365410008F40C00207141000807
:102930002DE9F04F344F354D7C693B68DFF8DC9072
:10294000DFF8DC801C4083B0C4F34414052605E0A6
:10295000640806F1010605F1200526D0E307F7D546
:102960006846C84701A8C04795F8A02001236F2AF0
:1029700003FA06F31CDD7B61D5F8B4304BB1D5F812
:10298000A4202ABBD5F8B82095F8A010D5F8B0003F
:1029900098471F4B01A8984768461E4B9847640804
:1029A00006F1010605F12005D8D103B0BDE8F08F8E
:1029B0001111890201F1804101F5003102F00F028D
:1029C000096921FA02F202F00102C5F8B820D2E743
:1029D0000020DFF850A0D047D5E92ABC0E4B95F86F
:1029E000A020B0EB0B0B53F8222061EB0C0C002362
:1029F0009C4508BF9345CCD30020D047D5F8B430D0
:102A0000C5E92A01BEE700BF003C0140B80A00202A
:102A10007141000851410008240F00203D41000889
:102A200065410008B55F00082DE9F04F354F364D80
:102A30007C693B68DFF8E490DFF8E4801C4083B0F9
:102A4000C4F385240A2605E0640806F1010605F1B1
:102A5000200526D0E307F7D56846C84701A8C04738
:102A600095F8402101236F2A03FA06F31CDD7B61F0
:102A7000D5F854314BB1D5F844212ABBD5F85821AB
:102A800095F84011D5F850019847204B01A8984778
:102A900068461F4B9847640806F1010605F12005BA
:102AA000D8D103B0BDE8F08F1111890201F1804146
:102AB00001F5003102F00F02096921FA02F202F079
:102AC0000102C5F85821D2E7124B002005F5A47A7F
:102AD0009847DAE900BC104B95F84021B0EB0B0B9E
:102AE00053F8222061EB0C0C00239C4508BF934552
:102AF000CBD3084B00209847CAE90001D5F85431E0
:102B0000BCE700BF003C0140B80A0020714100084A
:102B100051410008B55F0008240F00203D41000826
:102B2000654100082DE9F04882B0224B224C6846EE
:102B3000984701A8214B984721786F2912DD204A38
:102B400063690120506123B16268D2B9A26920692A
:102B5000984701A81B4B984768461B4B984702B003
:102B6000BDE8F0880B119B0203F1804303F50033AD
:102B700001F00F001A6922FA00F303F00103A361C8
:102B8000DDE70020114DA847D4E90267104B2278F9
:102B9000861B53F8222061EB070700239F4208BFE2
:102BA0009642D6D30020A8476369C4E90201217880
:102BB000CCE700BF3D410008B80A0020654100088D
:102BC000003C01407141000851410008B55F000818
:102BD000240F00202DE9F04882B0234B234C684697
:102BE000984701A8224B984794F860106F2912DD8E
:102BF000204A636F0820506123B1626ED2B9A26F80
:102C0000206F984701A81C4B984768461B4B984774
:102C100002B0BDE8F0880B119B0203F1804303F57D
:102C2000003301F00F001A6922FA00F303F00103E8
:102C3000A367DDE70020124DA847D4E91A67114BBE
:102C400094F86020861B53F8222061EB07070023CD
:102C50009F4208BF9642D5D30020A847636FC4E9BE
:102C60001A0194F86010CAE73D410008B80A002034
:102C700065410008003C01407141000851410008D5
:102C8000B55F0008240F00202DE9F04882B0234BE7
:102C9000234C6846984701A8224B984794F8201087
:102CA0006F2912DD204A636B0220506123B1626AF2
:102CB000D2B9A26B206B984701A81C4B9847684675
:102CC0001B4B984702B0BDE8F0880B119B0203F143
:102CD000804303F5003301F00F001A6922FA00F374
:102CE00003F00103A363DDE70020124DA847D4E9F8
:102CF0000A67114B94F82020861B53F8222061EBC1
:102D0000070700239F4208BF9642D5D30020A8475B
:102D1000636BC4E90A0194F82010CAE73D4100083A
:102D2000B80A002065410008003C014071410008DC
:102D300051410008B55F0008240F00202DE9F0483C
:102D400082B0234B234C6846984701A8224B9847F2
:102D500094F840106F2912DD204A636D0420506101
:102D600023B1626CD2B9A26D206D984701A81C4BAB
:102D7000984768461B4B984702B0BDE8F0880B1196
:102D80009B0203F1804303F5003301F00F001A6941
:102D900022FA00F303F00103A365DDE70020124DE2
:102DA000A847D4E91267114B94F84020861B53F8CA
:102DB000222061EB070700239F4208BF9642D5D32C
:102DC0000020A847636DC4E9120194F84010CAE7D7
:102DD0003D410008B80A002065410008003C014060
:102DE0007141000851410008B55F0008240F002020
:102DF0002DE9F04882B0264B264C6846984701A83A
:102E0000254B984794F880106F2916DD234AD4F893
:102E10009430102050613BB1D4F88420EAB9D4F842
:102E20009820D4F89000984701A81D4B9847684611
:102E30001C4B984702B0BDE8F0880B119B0203F1D0
:102E4000804303F5003301F00F001A6922FA00F302
:102E500003F00103C4F89830D8E70020124DA847CA
:102E6000D4E92267114B94F88020861B53F8222066
:102E700061EB070700239F4208BF9642D4D300208E
:102E8000A847D4F89430C4E9220194F88010C6E72A
:102E90003D410008B80A002065410008003C01409F
:102EA0007141000851410008B55F0008240F00205F
:102EB0006F2911DC4B1C0FD02DE9F041154682B073
:102EC0000C46052A00F21581DFE812F046004600A4
:102ED0007A00B500DA000800032070470E11B60230
:102EE00006F1804606F5003601F00F07824BDFF849
:102EF000108201A898477900032330688B40DA4399
:102F00004FF0010C00EA020E0CFA01F04EEA00014B
:102F10003160F16811400143F160B1680A40F91075
:102F20001A4306EB8101B260BA000B6A02F01C0082
:102F30000F22824023EA02030B6273680CFA07F740
:102F400023EA070701A87760C0476C4B43F8245079
:102F5000002002B0BDE8F0810E11B60206F18046F5
:102F600006F5003601F00F07634BDFF8948101A8E6
:102F700098477800032331688340DA4305FA00F06C
:102F8000114001433160F1681140F160B0680240C6
:102F9000F9101A4306EB8101B260BA000B6A02F025
:102FA0001C000F22824023EA02030B627368012295
:102FB00002FA07F723EA070701A87760C047C4E7CA
:102FC0000E11B60206F1804606F5003601F00F0735
:102FD00001A8494B98477A000323D6F800C0484916
:102FE0009340D8430CEA000CC6F800C0D6F80CE0B9
:102FF0004FF0010C00EA0E0E0CFA02F242EA0E0249
:10300000F260B2680240F81006EB80001A43B2602A
:10301000BA00036A02F01C0E0F2202FA0EF223EA33
:103020000203036272680CFA07F322EA030301A8A1
:103030007360884789E70E11B60206F1804606F5EF
:10304000003601F00F072C4BDFF8B48001A8984739
:103050004FEA470C0323306803FA0CF3DA431040BD
:103060003060F0680221104001FA0CF10143F16078
:10307000B0680240F910134306EB8101B3608CE79E
:103080000E11B60206F1804606F5003601F00F0873
:1030900001A8194B1A4F98474FEA48010322D6F866
:1030A00000C08A40D04301230CEA000C03FA01F16E
:1030B00041EA0C013160F1680140F160B168014002
:1030C0004FEAE80006EB80000A43B2604FEA88014D
:1030D000026A01F01C0C0F2101FA0CF122EA010234
:1030E0000262726803FA08F3134301A87360B847D9
:1030F0002BE704202DE700BF65410008640D002088
:10310000714100086F2808DC431C06D0044A135C98
:103110001BB901231354184670470020704700BFA5
:10312000F40C00206F2839DC431C37D070B5041133
:10313000A40282B003461A491A4A04F1804404F5F5
:10314000003400F00F06002501A8CD54904775000B
:10315000032320681449AB40DA4310402060E06844
:103160001040E060A568F0102A40134304EB800291
:10317000A360B000136A00F01C050F20A84023EAEA
:10318000000313626368012505FA06F623EA0606C2
:1031900001A866608847284602B070BD00207047CD
:1031A000F40C002065410008714100082DE9F04F42
:1031B00085B06F289DF838C09DF83C804EDC441CDB
:1031C0004CD0061100F00F04B602650006F18046EF
:1031D00006F50036A94017469B460CFA05F203A8EF
:1031E000204B01910092984703230BFA05FB03FA49
:1031F00005F533680199009AED432B40194331607E
:10320000F3682B401A43F260B3684FF0010A0AFAE0
:1032100004FA4FEA84091D40E41006EB840445EAF1
:103220000B05B560236A0F2209F01C0908FA09F89A
:1032300002FA09F923EA090343EA080323627368DF
:10324000012F0CBF4AEA030323EA0A03736003A8B1
:10325000054B9847012005B0BDE8F08F002005B070
:10326000BDE8F08F654100087141000803119B0221
:1032700000F00F0203F18043012003F5003390407A
:1032800001B90004986170472DE9F04F664F674E11
:10329000DFF8D8A189B04FF0000B07E00BF1010B6C
:1032A000BBF1700F0AF1070A00F096800025604A12
:1032B00007F8015F002328465E4988470BF00F049A
:1032C000A30802335C4946F8040FA20051F823001A
:1032D00002F00C010F238B404FEA1B1203408A407F
:1032E0009A420AD15548564B02680121A14003EB8E
:1032F000441322EA010202605D619AF80630002B55
:10330000CCD09AF803209AF802309AF804E09AF8A0
:1033100001109AF8000002914FEA2B154FEA440879
:103320004FEA8409AD024FF0010C02FA08F203FAE9
:1033300008F309F01C0907A905F1804505F50035DA
:103340000090059208460CFA04F20EFA09F1049373
:103350003C4B03910192984703212868009B059AF2
:1033600001FA08F1C943084003FA08F840EA0800E6
:103370002860E868049B08400243EA60AA68029853
:103380001140E4100B4305EB8404AB60236A0399FE
:10339000019A4FF00F0E0EFA09F923EA09030B43C5
:1033A00023626B6801280CBF134393436B6007A82B
:1033B000254B9847009B012B7FF470AF9AF805309E
:1033C000002B2CD00BF1010B019BAB61BBF1700FFB
:1033D0000AF1070A7FF46AAF184B1C4D1C49002400
:1033E0001C6022460620A84722461A490720A84703
:1033F000224619490820A847224618490920A8470B
:10340000224617490A20A847224616491720A847EE
:10341000224615492820A84709B0BDE8F08F019B36
:103420001B04AB613AE700BFF30C0020200F002023
:10343000400D0300ED5E000800380140003C0140F3
:10344000B80A00206541000871410008F1400008F9
:10345000252B0008892C00083D2D0008D52B0008DD
:10346000F12D000831290008292A0008606A0308A4
:1034700038B5184B184A194819499A60D86019612B
:103480000022184818495A60D8611962174D184A25
:1034900018481949194C5D619A61D8621963184D31
:1034A000184A194819495D629A62194D194A5D63B3
:1034B000C4E900019A631C600122E361002000213D
:1034C000154D164BA560C4E90401A261984720463A
:1034D00038BD00BFB80C0020213500083135000888
:1034E00095270008D52700082D2600087528000814
:1034F000052800084926000831280008E8100020A7
:1035000039260008B12E000860680308286A0308FD
:103510007126000845260008040000408932000892
:1035200008B5024B9847002008BD00BF893200084B
:1035300008B5024B9847002008BD00BF893200083B
:10354000012A30B443680ED052B9D225074C04EB9F
:10355000C30044F833100571427130BC002070473D
:10356000042030BC704780222325EFE73011002073
:1035700000285ED02DE9F04744683A4D3A4E55F8A0
:10358000347082B03846B04700284ED0DFF804814E
:1035900058F834904846B047002846D04FEAC40A4D
:1035A000554401262B790193D0443246032302214E
:1035B0002E4D00963846A84798F80430019300969F
:1035C0000323324648460221A847294B1B6C002C96
:1035D00031D0B4420CBF4FF480014FF40001244AB3
:1035E0000B43012C1364116232D027D3022C08D173
:1035F00000222049204D4820A84700221F49492089
:10360000A8471F4B1A4953F8243000202A22086289
:10361000D2255A602B244FF480410122DD611C62C7
:1036200099601A6002B0BDE8F0870C2002B0BDE8D6
:10363000F087022070474FF40011D0E700221149B3
:103640000D4D1F20A84700220F492020A847D8E78A
:1036500000220E49084D2120A84700220C492220B3
:10366000A847CEE7B06D030805310008AD3100086A
:1036700000380240013B0008F140000831370008E3
:103680002C110020593C000889370008B13D000882
:10369000E1370008A86D030800282DD070B54468F4
:1036A00084B1012C2AD01C4D4820A8474920A847A6
:1036B0001A4A1B4B52F82420002111601E6C6FF433
:1036C00000030BE0144D1F20A8472020A847134AF1
:1036D000134B126814601E6C6FF40013104A1149EA
:1036E000114D51F8340033401364A8470F4B53F881
:1036F0003400A847002070BD02207047064D2120ED
:10370000A8472220A847054A054B526800211160AE
:103710001E6C6FF48003E1E7214100082C110020AA
:1037200000380240B06D030825310008A86D030879
:1037300030B583B0104B01A89847104A104B9168E0
:103740009B6800225A6109B102220A619A699007B6
:1037500006D51A68920503D41A6842F400721A60FA
:103760005A68084C22F4E06201255A6001A88D7065
:10377000A04703B030BD00BF3D41000860110020EC
:103780002C1100205141000830B583B0104B01A826
:103790009847104A104B11681B6800225A6109B102
:1037A00002220A619A69900706D51A68920503D425
:1037B0001A6842F400721A605A68084C22F4E062F7
:1037C00001255A6001A88D70A04703B030BD00BF2D
:1037D0003D410008601100202C11002051410008DB
:1037E00030B583B0104B01A89847104A104B516870
:1037F0005B6800225A6109B102220A619A69900746
:1038000006D51A68920503D41A6842F400721A6049
:103810005A68084C22F4E06201255A6001A88D70B4
:10382000A04703B030BD00BF3D410008601100203B
:103830002C110020514100082DE9F84345682E4F16
:103840002E4C2F4854F8254007EBC50705EB85069D
:10385000B600904697F805C03A7999460127831932
:103860008755E069274E596002EB0C22D8F800100A
:10387000996082424FF0000199705970D96046F802
:10388000253007D012F4004F0CBF2B230D232160ED
:10389000E2612362002301222260636163681A4FA0
:1038A00043F44073636040F2015323604FF4FA64C1
:1038B00000E054B14FF47A7200230020B84756F864
:1038C00025309A78013C002AF3D0DB68D8F8002034
:1038D00093420CD003D213B10122C9F80020002C6E
:1038E000C8F800300CBF12200020BDE8F883002289
:1038F000C9F80020F3E700BF301100202C11002090
:103900003811002060110020216000082DE9F843E3
:1039100045682D4C2D4F2E4805EB8506B60004EB6F
:10392000C50C9046BA1950F825009CF805E09CF8A3
:1039300004405160D8F80010916099460021C36995
:10394000B95504EB0E24234E91709C425170D16006
:1039500046F8252007D014F4004F0CBF2B230D236D
:103960000160C46103620023012202604361436875
:10397000194F43F44073436040F2015303604FF426
:10398000FA6400E054B14FF47A7200230020B84783
:1039900056F825309A78013C002AF3D0DB68D8F835
:1039A000002093420CD003D213B10122C9F80020A9
:1039B000002CC8F800300CBF12200020BDE8F883AE
:1039C0000022C9F80020F3E7301100204C1100203C
:1039D0002C11002060110020216000082DE9F84F13
:1039E0004468DFF81481DFF814913F4D92464FEAA6
:1039F000840B0BEB040CDAF800703C4A4FEA8C0C99
:103A0000002008EB0C06C6E9027071600A9952F8B2
:103A100024200968B07009EB0C0E05EBC405CEF844
:103A2000081069792D79CEF8043005EB0123D169AE
:103A30002F4D8EF802008EF80100CEF80C008B425C
:103A40004FF0010E08F80C0009F80CE086F801E0D0
:103A500045F8246007D013F4004F0CBF2B210D2133
:103A60001060D3611162002301211160536153681A
:103A7000204E43F44073536040F2015313604FF4FF
:103A8000FA6700E057B14FF47A7200230020B04784
:103A900055F824309A78013F002AF3D05C44A40002
:103AA000A044DAF80020D8F80C0090420AD00B9A13
:103AB000CAF8000001231360002F0CBF1220002061
:103AC000BDE8F88F4C440A99E2680A60DB689A42C4
:103AD00006D0F1D9002BEFD00B9A01231360EBE74E
:103AE0000B9A00231360E7E7301100202C1100200F
:103AF00060110020216000084C11002038110020C6
:103B0000F0B54F4F4F4B504D83B001A89847B9685F
:103B1000AB680E7858698A689C691C681EB310F0FF
:103B2000010F264640D0012A64D0022A04BF44F483
:103B300000641C60454800694000C0B20130186153
:103B400062B9AB684A78002A58D05A68404922F4D2
:103B5000806240F201505A601860B96001A83D4B84
:103B6000984703B0F0BDC40718D404469AB10006C4
:103B700056D5D1F804C0C868604401E026064FD588
:103B800010F8014B1C61013AA0EB0C065C698A60DD
:103B9000CE60002AF2D16207E0D5D3E72B48006956
:103BA0004000C0B21861CBE710F0020F14D0012A18
:103BB00041D0022AC4D124F480641C60CEE7032AD9
:103BC00012D0C8684C681B692354CC68AB68013AB2
:103BD00001345869C1E90224440625D5022AEED1F0
:103BE00046F400761E60ECE74007B7D526F4806601
:103BF0001E60E6E724F480641C609BE79A699007E6
:103C000006D51A68910503D41A6842F400721A6046
:103C10005A68B96822F4E06201205A6088709DE712
:103C200063079BD401328BE7012A89D15A6842F499
:103C300080625A6092E744F400741C60F6E700BFAB
:103C4000601100203D4100082C110020301100209F
:103C50006011002051410008F0B54F4F4F4B504DBF
:103C600083B001A8984739682B680E7858698A682C
:103C70009C691C681EB310F0010F264640D0012A33
:103C800064D0022A04BF44F400641C604548006804
:103C90004000C0B20130186162B92B684A78002A2E
:103CA00058D05A68404922F4806240F201505A606C
:103CB0001860396001A83D4B984703B0F0BDC407B8
:103CC00018D404469AB1000656D5D1F804C0C86885
:103CD000604401E026064FD510F8014B1C61013A03
:103CE000A0EB0C065C698A60CE60002AF2D1620704
:103CF000E0D5D3E72B4800684000C0B21861CBE79D
:103D000010F0020F14D0012A41D0022AC4D124F4A9
:103D100080641C60CEE7032A12D0C8684C681B6917
:103D20002354CC682B68013A01345869C1E9022454
:103D3000440625D5022AEED146F400761E60ECE753
:103D40004007B7D526F480661E60E6E724F4806459
:103D50001C609BE79A69900706D51A68910503D401
:103D60001A6842F400721A605A68396822F4E062F4
:103D700001205A6088709DE763079BD401328BE76E
:103D8000012A89D15A6842F480625A6092E744F469
:103D900000741C60F6E700BF601100203D41000880
:103DA0002C11002030110020381100205141000852
:103DB000F0B54F4F4F4B504D83B001A898477968ED
:103DC0006B680E7858698A689C691C681EB310F08D
:103DD000010F264640D0012A64D0022A04BF44F4D1
:103DE00000641C60454880684000C0B20130186122
:103DF00062B96B684A78002A58D05A68404922F460
:103E0000806240F201505A601860796001A83D4B11
:103E1000984703B0F0BDC40718D404469AB1000611
:103E200056D5D1F804C0C868604401E026064FD5D5
:103E300010F8014B1C61013AA0EB0C065C698A602A
:103E4000CE60002AF2D16207E0D5D3E72B48806824
:103E50004000C0B21861CBE710F0020F14D0012A65
:103E600041D0022AC4D124F480641C60CEE7032A26
:103E700012D0C8684C681B692354CC686B68013A3F
:103E800001345869C1E90224440625D5022AEED13D
:103E900046F400761E60ECE74007B7D526F480664E
:103EA0001E60E6E724F480641C609BE79A69900733
:103EB00006D51A68910503D41A6842F400721A6094
:103EC0005A68796822F4E06201205A6088709DE7A0
:103ED00063079BD401328BE7012A89D15A6842F4E7
:103EE00080625A6092E744F400741C60F6E700BFF9
:103EF000601100203D4100082C11002030110020ED
:103F00004C110020514100081F492048204AF8B5B3
:103F1000204B214D0B60214998600024DA60196123
:103F20001F48204A204958619A61D9611D60EB61A0
:103F30005C601E491E4B1F4E1F4A2A60C5E90113D3
:103F400000200021C5E9040101221C4B1C4FAA617D
:103F50001F203360B8472020B8473368194A1C60D7
:103F6000136C194E23F4001313641720B047162066
:103F7000B0471649164A174B0C608C802846C2E998
:103F80000244C3E90244F8BD08110020713500085D
:103F9000993600080C1100206811002041350008F6
:103FA000393800080D390008DD390008706D030844
:103FB000050000402C1100206068030800540040F8
:103FC000214100080038024025310008301100204E
:103FD000381100204C11002070B4134C134B144ABC
:103FE000E2634FF0FF32C3F880200646C3F8842016
:103FF000C3F88820C3F88021C3F88421C3F888213E
:10400000BFF35F8F0B4AC3F80C2CC3F8084CD3F8EE
:10401000242C094D094C42F4E022C3F8242C002042
:104020002E60216070BC70470000002000E100E0BD
:104030000D6300080007FA058C110020881100208C
:1040400000207047EFF3108000F00100704700BFC0
:1040500062B60120704700BFEFF3108072B600F027
:1040600001007047EFF3108362B630BF83F310880E
:10407000704700BF62B6704770B4114B114C1249C3
:104080001248134A9C600025124CD9601249134E05
:104090005D601A61124D134A5C61D961124C13497B
:1040A0009D611A620025012204600024C0E90161BB
:1040B000C0E904451860C361826170BC704700BFED
:1040C000B0110020D93F00084140000890110020A5
:1040D000514000085940000845400008B86D0308E9
:1040E0006540000875400008606803080100002072
:1040F00000F11002094B43F82210BFF35F8F431108
:104100009B0003F1604303F5614300F01F020120AF
:1041100000FA02F2C3F880211A6070470000002004
:104120004211203200F01F030349012000FA03F37B
:1041300041F82230704700BF00E100E010B5034BAA
:1041400004461B689847204610BD00BF8C11002014
:1041500010B5034B04461B689847204610BD00BFAE
:1041600088110020EFF31082026072B6704700BF22
:104170000368DB0700D462B6704700BF006800F038
:10418000010070470368DB0703D5EFF3108303607A
:1041900072B670470368DB0703D4EFF31083036044
:1041A00062B67047014B024ADA60FEE700ED00E0BC
:1041B0000400FA0500207047012914D002290BD110
:1041C0001E491F4A0B6943F004030B61136843F057
:1041D0000603136030BF7047194A136843F00403A5
:1041E000136030BF7047154A1549136943F0040343
:1041F00013610B6843F4017343F001030B6030BF9C
:10420000104B196841F480311960116921F00401E3
:1042100011611A689203FCD519680A4A41F080714D
:10422000196013689B01FCD5936843F00203936007
:10423000136823F001031360704700BF00ED00E036
:1042400000700040003802400020704770B40E4BF0
:104250000E480F4A0F49104D104E9A600024104A24
:104260005C6019610F4C1049DD605A610025012224
:1042700004600024C0E90161C0E904451860C3611D
:10428000826170BC704700BFD4110020F011002083
:10429000B5410008A541000849420008F46D030833
:1042A000B94100086068030802000020042070473C
:1042B00043680B4AC3EBC3031B01D358DB0302D48F
:1042C0009FED030B70479FED040B7047AFF3008029
:1042D00000000000F406844100000000F406944150
:1042E00048120020000000009FED010B704700BF46
:1042F000000000000000F03F2DE9F04F2DED028B93
:10430000B0EE408AF0EE608AD0F804903D4D3E4B0E
:104310003E4E85B04FEAC9000190A0EB09000001B4
:1043200005EB000A55F80080DAF8607038469346CD
:104330000C46984753EC182BCDE90201B047344B9B
:104340009847DAE91932874207F1FF3103F1FF3369
:1043500028BF0746022AC8F82830C8F82C1039D0E0
:10436000052A37D008F13403BAB223F82420A2007A
:1043700002239340D8F82020BBF1000F37D013431D
:10438000C8F82030019B214EA3EB090304EB430343
:1043900005EBC303D3E91023DDE90201B0471C4B51
:1043A0009847B8421CBF0123C8F81430019BA3EB07
:1043B000090605EB0613234404EB460405EBC4048D
:1043C000002083F824B084ED108B05B0BDEC028B87
:1043D000BDE8F08F14B9C8F83470C8E7012C0BD0D1
:1043E000022C0CD0032CC2D1C8F84070BFE722EADF
:1043F0000303C8F82030C5E7C8F83870B7E7C8F835
:104400003C70B4E7481200200D5003080151030826
:10441000B1560308F8B543682D4C0E46C3EBC303F1
:1044200006EB430204EBC2021B0107462949506810
:10443000E5588847002848D0274B284A786815F463
:10444000803F08BF1A460127C5F38423116807FA85
:1044500003F3194217D1D2F800C0C10043EA0C039C
:10446000A1EB000C04EB0C1C1360DCF86830842218
:10447000012B2A606F6101D0082B05D16B6C43F4CE
:1044800000436B6400E0C10005F13402002322F810
:10449000263016F0010F14BF4FF4D04C4FF0680CCB
:1044A000091AB30754BFAB69EB6904EB011454BF9D
:1044B00005F1180705F11C07A11943EA0C030122B5
:1044C0003B60002081F82820F8BD0C20F8BD00BF1B
:1044D00048120020053100084038024044380240AC
:1044E000F8B50D4641681F4CCB005A1A120115F061
:1044F000010FA258064614BF6FF47F4C6FF0FF0CFB
:10450000A80755BF9069D06902F1180702F11C078E
:1045100000EA0C0038609769D06938430FD1124F18
:10452000124812F4803F08BF3846C2F3842207685D
:104530004FF0010C0CFA02F227EA020202605B1A49
:1045400005EB430304EBC303094A586890477168BD
:10455000C1EBC10104EB01146119002081F82800AE
:10456000F8BD00BF481200204038024044380240E5
:104570002531000870B54368124D134EC3EBC303D9
:1045800001EB430205EBC20282B01B015068127AB4
:10459000ED58019200220C46009203230221B047FD
:1045A000A40001222B6A02FA04F4A4B21C432C6278
:1045B0002B68D90703D413439BB26A612B60002098
:1045C00002B070BD48120020AD3100084368134AA4
:1045D000C3EBC303180170B501EB43031658104D2C
:1045E000346A02EBC30389005868012303FA01F11E
:1045F000A4B224EA0104002282B034620323CDE98C
:1046000000221146A84741F211131C4203D133681E
:1046100023F001033360002002B070BD4812002077
:10462000AD310008000000002DE9F04FD0F804A0E3
:10463000DFF850B2844C87B04FEACA030393A3EB70
:104640000A031B010BEB030595ED0E7B58EC177B62
:104650005BF803607D4B8DED007B17EE100A414641
:10466000002206F48036A047002878D03A46434618
:10467000774C784F6EA1D1E90001A0470022764B1C
:10468000764CA047764B98477649774AAB6E002E1A
:104690000ABF0F46A82554259042804620D9734C66
:1046A000DFF8E491A4FB0024022B4FEA94142CD0F1
:1046B000052B28D0B4F5803F06D224E06408B4F579
:1046C000803F4FEA450520D3B5F5004FF6D99FED61
:1046D0005A7B52EC171B42EC101B07B0BDE8F08F61
:1046E000624A00FB05F4A2FB0424022B4FEA941457
:1046F00000F08780052BDFF890914FF0010502D084
:10470000B4F5803FDAD2002CE1D0B7FBF5F7B7FB68
:10471000F4F6574BB9FBF6F6B9FBF6F09847CDF82F
:1047200010A00595C2464D468046894605E0B5FB7A
:10473000F6F04F4B9847804689465645DDE9002301
:104740004046494603D34B4EB047002860D1013460
:10475000B7FBF4F6B5FBF6F6002EE8D1B7E7DDE9D6
:1047600000780022444B38464146A047E8B13A461B
:104770004346374CDFF81491364F31A1D1E900019F
:10478000A0470022354C344BA047354B9847354A5B
:10479000AB6E002E04460ABF1746A8255425804656
:1047A000022B85D1002C92D0AFE73A464346284CE5
:1047B0002649284F314D0020A0470022274C264B88
:1047C000A047274B9847274A2D4B002E04BF17467A
:1047D0001D46B0F10008A8BF444603DA77E7002C75
:1047E000FFF675AF6D08B5F5803F4FEA4404F6D883
:1047F000039BA3EB0A030BEB03134FF47A799B6E35
:10480000CEE7002C3FF463AFDFF87C9001257EE714
:10481000DDE904A5039B49EC178BA3EB0A0A0BEB1C
:104820000A1B41464A468BED0C7BCBE9184552E703
:104830000000000065CDCD41000000000000000038
:104840000000000080842E410D56030800408F4078
:1048500055530308007A030A0000E03F954D030812
:10486000B156030800BD010561188601D34D6210E1
:104870000D500308F95503080000F03F4090020076
:10488000204801004812002000CA9A3B40420F0015
:104890002DE9F04F4368B74CDFF8E8A2D1E9006793
:1048A000C3EBC30304EB031583B08146884632464D
:1048B000D5E90E013B46D04718B1002003B0BDE852
:1048C000F08FC5E90E67AC4B48469847D9F80450BD
:1048D000EE00731B1B01E71888ED000B7A680132AC
:1048E0005CD1731B1B01E718FA68013240F09A8013
:1048F000731B1B01E7187A69013240F0D480731BE7
:104900001B01E718FA690132D7D097ED167BD7F86B
:1049100060909A4A54F80380DFF86CB297F827A0A9
:104920008DED007B48469047DDE90023D847944B46
:104930009847D7E91932814503F1FF33C8F8283089
:1049400009F1FF314B4628BF0346022AC8F82C1054
:1049500000F00D81052A00F00A819BB2A8F84030D2
:10496000D8F82030BAF1000F00F0F38043F4005380
:10497000C8F82030751B9DED007B814504EB0514C4
:1049800038BF01234FF0000038BFC8F8143084ED61
:10499000167B84F827A003B0BDE8F08F97ED107B5D
:1049A000D7F86090754A54F80380DFF8DCB197F8C7
:1049B00024A08DED007B48469047DDE90023D847D1
:1049C0006F4B9847D7E91932814503F1FF33C8F897
:1049D000283009F1FF314B4628BF0346022AC8F8A8
:1049E0002C1000F0BB80052A00F0B8809BB2A8F81C
:1049F0003430BAF1000F00F09780D8F8203043F03F
:104A00000203C8F82030814502D20123C8F81430CF
:104A1000731B9DED007B04EB031383ED107B83F888
:104A200024A05EE797ED127BD7F86090534A54F8C4
:104A30000380DFF854B197F825A08DED007B484640
:104A40009047DDE90023D8474D4B9847D7E9193205
:104A5000814503F1FF33C8F8283009F1FF314B4697
:104A600028BF0346022AC8F82C107AD0052A78D02D
:104A70009BB2A8F83830BAF1000F5CD0D8F82030DB
:104A800043F02003C8F82030814502D20123C8F842
:104A90001430731B9DED007B04EB031383ED127B3D
:104AA00083F825A024E797ED147BD7F86090334A6C
:104AB00054F80380DFF8D0B097F826A08DED007B86
:104AC00048469047DDE90023D8472D4B9847D7E962
:104AD0001932814503F1FF33C8F8283009F1FF315D
:104AE0004B4628BF0346022AC8F82C103CD0052AA2
:104AF0003AD09BB2A8F83C30BAF1000F22D0D8F8D7
:104B0000203043F40073C8F82030814502D20123DD
:104B1000C8F81430731B9DED007B04EB031383ED89
:104B2000147B83F826A0EAE6D8F8203023F00203AD
:104B3000C8F8203067E7D8F8203023F02003C8F801
:104B40002030A1E7D8F8203023F40073C8F82030D3
:104B5000DBE723F40053C8F820300BE7C8F8343003
:104B600047E7C8F8383086E7C8F83C30C4E7C8F8EB
:104B70004030F5E648120020294600080D50030891
:104B8000B1560308D1550308015103082DE9F04F30
:104B9000C84AC94C4FEA4018C600331A02EB080154
:104BA00004EB031352F8082009795A60013283B0EC
:104BB0000546197206D000200021C3E91001002229
:104BC00083F82420731B04EB031393F82830002B85
:104BD00061D1B84B03EB0802731B9168127B04EBA5
:104BE0000313D96001311A7406D000200021C3E9F3
:104BF0001201002283F82520731B04EB031393F8A2
:104C00002930002B40F06481AA4B03EB0802731B90
:104C10001169127D04EB0313596101311A7606D034
:104C200000200021C3E91401002283F82620731B11
:104C300004EB031393F82A30002B40F0E0809D4BE7
:104C400003EB0807731BBA69397F04EB0313DA61BE
:104C5000013283F8201006D000200021C3E916019C
:104C6000002283F82720731B04EB031393F82B30E7
:104C7000002B6BD1761B04EB061400220023C4E941
:104C80000E23C4E90C2301350023A566C4E91833BB
:104C900003B0BDE8F08FDFF83492884F59F8253023
:104CA0005B68C3EBC3031B01E21854F803B0506800
:104CB000DBF820301FFA83FA2AF0010300229BB2AE
:104CC000CBF8203011460323CDE90022B84741F24A
:104CD00010131AEA030F05D1DBF8003023F00103AB
:104CE000CBF8003059F82590D9F80430D800C21A12
:104CF0001201A258916921F0FF019161D2F818C008
:104D0000D1695CEA010111D1DFF8BCC16C4912F430
:104D1000803F18BF6146C2F38422D1F800C04FF033
:104D2000010E0EFA02F22CEA02020A60C31A04EB28
:104D30000313644A58689047D9F80430C3EBC3039F
:104D400004EB0313002283F8282042E7DFF87C916C
:104D50005A4F59F825305B68C3EBC3031B01E218B7
:104D600054F803A0D069DAF820301FFA83F828F449
:104D7000805300229BB2CAF8203011460323CDE9AC
:104D80000022B84740F2111318EA030F05D1DAF8F0
:104D9000003023F00103CAF8003059F82570796813
:104DA000CA00531A1B01E358D86920F47F40D86128
:104DB000D3F818C0D8695CEA000011D1DFF800C14F
:104DC000414813F4803F08BF6046C3F38423D0F802
:104DD00000C04FF0010E0EFA03F32CEA0303036048
:104DE000521A04EB0212374BD06998477B68C3EB29
:104DF000C30304EB0313002283F82B203AE7DFF808
:104E0000CC902E4F59F825305B68C3EBC3031B01D0
:104E1000E21854F803B05069DBF820301FFA83FA27
:104E20002AF4807300229BB2CBF820301146032372
:104E3000CDE90022B84741F211031AEA030F05D168
:104E4000DBF8003023F00103CBF8003059F825904F
:104E5000D9F80430D800C21A1201A258D16921F041
:104E6000FF01D161D2F818C0D1695CEA010111D10A
:104E7000DFF854C0124912F4803F18BF6146C2F3F4
:104E80008422D1F800C04FF0010E0EFA02F22CEA93
:104E900002020A60C31A04EB03130A4A58699047D6
:104EA000D9F80430C3EBC30304EB0313002283F8E7
:104EB0002A20C4E6646E030848120020AD310008C1
:104EC00040380240253100084438024010120020CA
:104ED000DFF8C0902C4F59F825305B68C3EBC30353
:104EE0001B01E21854F803B0D068DBF820301FFA39
:104EF00083FA2AF0100300229BB2CBF8203011462F
:104F00000323CDE90022B84741F201131AEA030F47
:104F100005D1DBF8003023F00103CBF8003059F85D
:104F20002590D9F80430D800C21A1201A25891690C
:104F300021F47F419161D2F818C0D1695CEA010186
:104F400011D1DFF854C0114912F4803F18BF6146F7
:104F5000C2F38422D1F800C04FF0010E0EFA02F223
:104F60002CEA02020A60C31A04EB0313084AD86849
:104F70009047D9F80430C3EBC30304EB03130022BA
:104F800083F8292040E600BFAD31000840380240D8
:104F900025310008101200204438024028B108B51D
:104FA0004068034B9847002008BD0220704700BFAF
:104FB0008D4B000828B108B54068034B9847002086
:104FC00008BD0220704700BF8D4B00082DE9F04F4F
:104FD000D34BDFF87CB3D34AD34EDFF87883DFF8C6
:104FE00078E3D24FD248D349D34D9A60022483B09C
:104FF000DC6600245C600194D04C9C61DC64D04C85
:105000009C62DC654FF00109CE4CC3F8389003F187
:10501000340A03F16809DC621C66CB4CDA631A6758
:10502000DE601E64C3F81080C3F84480C3F814E047
:10503000C3F848E0DF611F651862586559629965D9
:10504000CBF80030CBF804A0CBF808901D605D636E
:105050009D661C635C66B94CC3F87CE0C3E92047DD
:10506000B74CC3F89040B74CC3F89440B64CDFF847
:10507000ECC2C3E92645B14CC3E92D47B04CC3F897
:10508000C440B04CC3F8C840AF4CC3E93345AB4C47
:105090004FF0030AC3E93A4703F19C09C3F8A0A003
:1050A000A74CCBF80C9003F1D00AC3E91D68C3E903
:1050B0002201C3E92926C3E92B8EC3E92F01C3E9E5
:1050C0003626C3E9388ECBF810A0C3F8F8409D4CC3
:1050D000C3F8FC409C4CC3F80041984CC3F81C41F9
:1050E000974CC3F82C41974CC3F83041964CC3F809
:1050F0003441924CC3F85041914CC3F86041914CFB
:10510000C3F8644103F5827A4FF004098E4CC3F86A
:10511000D490C3F8684103F59C79CBF814A0874C70
:10512000C3F80C214FF0050AC3E93C01C3F8106134
:10513000C3F81481C3F818E1C3F82071C3F824013F
:10514000C3F82811C3F84021C3F84461C3F848816B
:10515000C3F84CE1C3F85471C3F85801C3F85C11AB
:10516000C3F808A1C3F80451C3F83851CBF818901C
:10517000C3F88441724CC3F89441724CC3F898410F
:10518000714CC3F89C416D4CC3F8B8416C4CC3F8EA
:10519000C8414FF0060A6B4CC3F83CA1C3F8CC41A0
:1051A00003F5D07A684CC3F8D041CBF820A003F5C2
:1051B000EA744FF0070A03F5B679C3F870A1CBF88B
:1051C00024404FF0080A5D4CC3F87421C3F878619D
:1051D000C3F87C81C3F880E1C3F88871C3F88C01FF
:1051E000C3F89011C3F8A821C3F8AC61C3F8B0812B
:1051F000C3F8B4E1C3F8BC71C3F8C001C3F8C4116B
:10520000C3F8DC21C3F8E061CBF81C90C3F86C5103
:10521000C3F8A051C3F8D451C3F8A4A1C3F8EC411A
:10522000474CC3F8FC41474CC3F80042464CC3F816
:105230000442424CC3F82042414CC3F83042414C36
:10524000C3F83442404CC3F8384203F502794FF0BA
:10525000090A3A4CC3F8D8A1C3F8544203F50F7AAF
:1052600003F51C74CBF828904FF00A09C3F8E481C9
:10527000C3F8E8E1C3F8F071C3F8F401C3F8F8111A
:10528000C3F81022C3F81462C3F81882C3F81CE2F2
:10529000C3F82472C3F82802C3F82C12C3F84422BE
:1052A000C3F84862C3F84C82C3F850E2C3F858729E
:1052B000C3F85C02C3F80852C3F83C52CBF82CA0E8
:1052C000C3F80C92CBF830401D4CC3F864421D4C1F
:1052D000C3F868421C4CC3F86C42184CC3F88842AF
:1052E000174CC3F89842174CC3F89C42164CC3F8AD
:1052F000A042124CC3F8BC42114CC3F8CC42114C32
:10530000C3F8D042104CC3F8D4424FF00B090F4CF5
:10531000C3F84092C3F87822C3F8AC2220E000BF63
:10532000681800209D4F0008B54F0008CD450008C3
:10533000F942000891480008401B0020754500080C
:10534000E9420008B1420008AD42000800040040F4
:105350001012002015440008E14400084812002003
:1053600003F5297A0D224FF00C09C3F86012C3F837
:105370007C62C3F88082C3F884E2C3F88C72C3F8FD
:105380009002C3F89412C3F8B062C3F8B482C3F8B1
:10539000B8E2C3F8C072C3F8C402C3F8C812C3F8B5
:1053A0007052C3F8A452C3F87492CBF834A0C3F877
:1053B000A822CCF8E04004F58064CCF8504104F514
:1053C0008064CCF8C04104F580641D4ECCF83042B6
:1053D00004F580644FF08048DFF890E0194F1A48D8
:1053E0001A491B4A1B4BCCF80060CCF8A0421A4E5D
:1053F000CCF8708004F59634CCF88043CCF810E3F8
:10540000CCF8F073CCF86004CCF8D014CCF840257C
:10541000CCF8B035002420460134B0470E2CFAD128
:105420000E4E0F480F49A960C5E900600E480022E2
:105430000023C5E9064BC5E9042303B0BDE8F08F9E
:1054400000000140004401400048014000180040B5
:10545000001C0040002000408D4B000860680308DD
:105460002C6E030806000040401B00200004014091
:105470004368034A0348013B012B88BF104670472D
:10548000BD010500DE8002004368034A0348013B7A
:10549000012B88BF1046704780DE8002406F4001BC
:1054A0002DE9F043446883B0012C0A9866DCE700DC
:1054B000474E07EB040C06EB8C0CDCF810508D42C9
:1054C00074D0444D55F824C0DCF800E03D1906EBDB
:1054D00085052EF4036E102B2EF00B0E40F60109FD
:1054E000C5E904132862AA6140F60308CCF800E07D
:1054F00018BF4FF0030840F6020E0DBF4B460123C4
:105500004FF0020E4FF4006518BF002502285BD053
:1055100003285BD0012818BF2B462F48651E80FB4F
:1055200002E0022D4FEAE2724AF2104E45F20825DF
:10553000C2EBA01228BF754640F6412038BF4FF499
:10554000A460B5EBC20F84BF054643F02003B5EB62
:10555000420F84BFAD0843F010039542DCF80020F1
:1055600088BF43F0080313430846CCF800301B49BA
:10557000884738B9002003B0BDE8F083082003B0A5
:10558000BDE8F0833C4406EB840600253069144CEA
:105590002A46CDE9005503230121A0473069114B6C
:1055A00001219847284603B0BDE8F083DCF8145089
:1055B0009D4286D1DCF82050854282D1DCF818501B
:1055C00095427FF47EAFD5E77346A6E74346A4E74E
:1055D000681B0020181C0020D34D62100531000804
:1055E000AD3100086D320008002830D02DE9F04FB1
:1055F0004468414ADFF81881404E58F83490E5007D
:105600002B1902EB83034FF0FF31002285B0C3E971
:1056100004121A629A614846B047A0B1DFF8F4A0BC
:105620005AF834B05846B04768B1354B53F8343067
:1056300003931846B04730B1052C0FD8DFE804F0CB
:1056400056504A443E090C2005B0BDE8F08F0220B8
:1056500070472C4A536C43F4001353642A4B2B4F6E
:1056600053F82420A844002698F804304FF45171D0
:10567000AA4411604846CDE9006332460323022163
:10568000B8479AF8043001933246009658460323EF
:105690000221B8471A4B00962B4403981B790193BB
:1056A000324603230221B847134B2C4403EB8404F6
:1056B00030460123237705B0BDE8F08F114A536CC3
:1056C00043F480135364C9E70E4A536C43F4005308
:1056D0005364C3E70B4A136C43F400431364BDE700
:1056E000084A136C43F480431364B7E7054A536CCC
:1056F00043F480535364B1E7681B00200531000870
:105700006C70030800380240181C0020AD310008FE
:105710007C7003085C700308002854D02DE9F04128
:105720004468052C09D8DFE804F030363C424803D1
:10573000264A536C23F400135364254BDFF8A080F2
:1057400053F83400234DC047234BE60053F8340090
:10575000C0473719214B05EB870753F83400C04782
:105760003869431C06D1344405EB840500202877B2
:10577000BDE8F081344405EB8405C0474FF0FF33AA
:1057800000203B612877BDE8F081104A536C23F478
:1057900080535364D1E70D4A136C23F480431364A0
:1057A000CBE70A4A136C23F400431364C5E7074AA6
:1057B000536C23F400535364BFE7044A536C23F43F
:1057C00080135364B9E70220704700BF00380240DD
:1057D0007C700308681B00205C7003086C70030871
:1057E000253100080020014B184700BF452600085E
:1057F00010B5144641B11268054B022A28BF022297
:10580000084692000349984702232360002010BDF8
:105810002B5C030800040020614A62496248634B24
:105820002DE9F04111606249624D634C1A60C2E992
:10583000010100200021C2E904016049604899602B
:10584000D963D8605F4918645F4819615964586129
:105850005E4998645E489961D964D8615D4918656C
:1058600000265D485E601962596558625B4998651B
:1058700001265B489E639962D965D86259491866CA
:1058800003F1340602205A6319632B606E60596677
:105890009061554B5548D561217F554AC3E90002B7
:1058A00071B994F8403013B93D48BDE8F081514FCB
:1058B0007568052D23D8DFE805F06D555B61671D20
:1058C00002F500324B4F536C23F480535364132082
:1058D000B8471420B8471520B8472069421C2BD17F
:1058E00094F8403000222277002BDDD06E68002E25
:1058F000DED1D9E7404A536C23F4001353643F4B85
:1059000053F83500B8473E4BEE0053F83500B84722
:1059100006EB05083B4B04EB880853F83500B84705
:10592000D8F81000431C12D1354404EB8504002341
:1059300023771B48BDE8F081B8474FF0FF33236160
:1059400094F8403000222277002BADD0CEE73544CA
:10595000B84704EB85044FF0FF33C8F8103000233C
:105960002377E6E7244A136C23F480431364C6E7E5
:10597000214A136C23F400431364C0E71E4A536C9E
:1059800023F400535364BAE71B4A536C23F4801387
:105990005364B4E7184A536C23F480535364AEE75E
:1059A000201C00206068030824700308B01B00203E
:1059B00007000040601B0020681B0020E95500081C
:1059C00019570008A15400081D5B00089D5B0008E2
:1059D000915A0008215C0008E5570008715400083E
:1059E00089540008F1570008181C002000300140BD
:1059F0000038004025310008003802407C70030860
:105A00005C7003086C700308F0B500EBC0021E4E1A
:105A10001E4B9200B118D1E90245D1F804C0B75825
:105A200053F82030A5422E46B8BF2646002DCCBFE5
:105A30009CF8001000219A689007FCD50022D960DC
:105A4000511C8E4217DD8D42CCBF1CF80100002096
:105A50009A68D207FCD5D3F80CE09A689207FCD577
:105A60004A1EA242D86002DA7A1802F801EC0A460D
:105A7000511C8E42E7DC9968C907FCD5DB68A2425D
:105A8000B8BFBB540120F0BD681B0020181C0020CB
:105A90002DE9F04F4568012D83B003DD082003B0E8
:105AA000BDE8F08F4FEAC508DFF86C90174F019200
:105AB00008EB0506B60009EB06048B4620690021B9
:105AC0009A46B8470C9B019A1B68A36063691268E9
:105AD000E260102B49F806A0C4F804B010D10C4BBA
